S0140000636F6E74726F6C426F6172642E7372656327
S11300000C9464000C9405140C9423140C943C1468
S11300100C9498000C9498000C9498000C949800FC
S11300200C9498000C9498000C945A130C94980017
S11300300C9498000C94471A0C9498000C94980013
S11300400C9498000C9498000C9498000C94FE1056
S11300500C949800E115EE15FB15081615161F16DD
S113006029163316FD16FD163D165E167F169C16D0
S1130070FD16FD16FD16FD16FD16FD16FD16FD16E4
S1130080FD16BD16FD16DD16FD16FD16FD16FD1634
S1130090FD16FD1689149A14AB14BC14C914DA1491
S11300A0EB14FC1409151A152B153C154915561596
S11300B061156C1577157A158B15A315AA15B51549
S11300C0C015CB15D6150117E1EDF1E0E370FF275C
S11300D0EF52FE4F2FE538E02C7FE217F30758F478
S11300E08EED9DEAAEEBBFEE81939193A193B19314
S11300F0E217F307C8F311241FBECFE5D8E0DEBF33
S1130100CDBF10E0A0E6B0E0EAE2F7E302C005905C
S11301100D92A037B107D9F721E0A0E7B0E001C004
S11301201D92A13DB207E1F70E94A0070C94931B16
S11301300C9400000F931F93FC017183608353831D
S113014042833583248381E0868317828087818775
S113015013870287158704871F910F910895FC0167
S113016011821082138212821582148216821782DF
S113017010861186138612861586148608950F93A9
S11301801F93CF93DF93CDB7DEB72A970FB6F894BA
S1130190DEBF0FBECDBF8C01FB01DC0119968C9133
S11301A01997882341F012968D919C911397908B07
S11301B0878719961C92D8011C968D919C911D9746
S11301C001971D969C938E931C97892B09F077C0F9
S11301D018964C9118972785308914968D919C9187
S11301E01597442329F0281B390B308B278704C02B
S11301F0820F931F908B878727853089D8018D9133
S11302009C9111978217930730F081E017968C9395
S1130210179718961C9227853089D80112968D91CC
S11302209C9113972817390730F017961C9217974B
S113023081E018968C93D8011A968D919C911B9706
S11302401D969C938E931C9767857089882777FDEC
S11302508095982F2AE030E0AE014F5F5F4F0E94F7
S11302603A1BCE0101960E943B1A8BE30E94371A77
S1130270F801678170E080E090E02AE030E0AE01B0
S11302804F5F5F4F0E943A1BCE0101960E943B1ABA
S11302908BE30E94371AD80118966C9170E080E0C5
S11302A090E02AE030E0AE014F5F5F4F0E943A1BBE
S11302B0CE0101960E943B1A8AE00E94371A81E01F
S11302C02A960FB6F894DEBF0FBECDBFDF91CF9153
S11302D01F910F9108950F931F93CF93DF93EC0118
S11302E089A99AA9ABA9BCA948815981662757FD58
S11302F06095762F840F951FA61FB71F89AB9AAB05
S1130300ABABBCABFE01E35AFF4F808191810196F8
S11303109183808309A91AA92BA93CA98081918181
S11303204081518197FD0196BC0175956795882799
S113033077FD8095982F600F711F821F931F9A017C
S1130340442737FD4095542F0E94B01A3A8F298FC5
S11303509E01275A3F4FF90180819181A281B38187
S113036048B559B5840F951FA11DB11D8083918394
S1130370A283B383FE01EF58FF4F808191810196E0
S113038091838083D9010D911D912D913C918081A0
S113039091814081518197FD0196BC0175956795C6
S11303A0882777FD8095982F600F711F821F931FF8
S11303B09A01442737FD4095542F0E94B01A38AB58
S11303C02FA78A819B81813F984D09F449C08A8176
S11303D09B8188349D4D09F443C08A819B81853675
S11303E0994120F084E699E19B838A838DA99EA993
S11303F0AFA9B8AD4A815B816AE0649F9001659FB3
S1130400300D1124820F931FA11DB11D8DAB9EAB26
S1130410AFABB8AFFE01E15AFF4F808191810196E5
S1130420918380830DA91EA92FA938AD8081918164
S11304304081518197FD0196BC0175956795882788
S113044077FD8095982F600F711F821F931F9A016B
S1130450442737FD4095542F0E94B01A3C8F2B8FB0
S11304608C819D81813F984DE9F18C819D818834F7
S11304709D4DC1F189AD9AADABADBCAD4C815D81F3
S1130480662757FD6095762F840F951FA61FB71F0B
S113049089AF9AAFABAFBCAFFE01EF59FF4F80817C
S11304A0918101969183808309AD1AAD2BAD3CAD4A
S11304B0808191814081518197FD0196BC017595A0
S11304C06795882777FD8095982F600F711F821F8D
S11304D0931F9A01442737FD4095542F0E94B01A68
S11304E03E8F2D8F8E819F81813F984D09F442C0AC
S11304F08E819F8188349D4DE9F19E01235C3F4F9D
S1130500F90180819181A281B3814E815F81662747
S113051057FD6095762F840F951FA61FB71F808304
S11305209183A283B383FE01ED59FF4F80819181B2
S1130530019691838083D9010D911D912D913C9158
S1130540808191814081518197FD0196BC0175950F
S11305506795882777FD8095982F600F711F821FFC
S1130560931F9A01442737FD4095542F0E94B01AD7
S113057038A32F8F88859985AA85BB85813F984D9F
S1130580AF4FBF4F09F446C088859985AA85BB85BE
S113059088349D4DAF4FBF4FE9F19E012F5B3F4F14
S11305A0F90180819181A281B381488559856A8549
S11305B07B85840F951FA61FB71F80839183A28319
S11305C0B383FE01EB59FF4F8081918101969183A2
S11305D08083D9010D911D912D913C918081918150
S11305E04081518197FD0196BC01759567958827D7
S11305F077FD8095982F600F711F821F931F9A01BA
S1130600442737FD4095542F0E94B01A29A33AA3DA
S11306104BA35CA38C859D85813F984D09F442C012
S11306208C859D8588349D4DE9F19E012B5B3F4F60
S1130630F90180819181A281B3814C855D85662712
S113064057FD6095762F840F951FA61FB71F8083D3
S11306509183A283B383FE01E959FF4F8081918185
S1130660019691838083D9010D911D912D913C9127
S1130670808191814081518197FD0196BC017595DE
S11306806795882777FD8095982F600F711F821FCB
S1130690931F9A01442737FD4095542F0E94B01AA6
S11306A03EA32DA38F859889813F984D09F442C0BC
S11306B08F85988988349D4DE9F19E01275B3F4FD2
S11306C0F90180819181A281B3814F855889662780
S11306D057FD6095762F840F951FA61FB71F808343
S11306E09183A283B383FE01E759FF4F80819181F7
S11306F0019691838083D9010D911D912D913C9197
S1130700808191814081518197FD0196BC0175954D
S11307106795882777FD8095982F600F711F821F3A
S1130720931F9A01442737FD4095542F0E94B01A15
S113073038A72FA389899A89813F984D09F442C02B
S113074089899A8988349D4DE9F19E01235B3F4F45
S1130750F90180819181A281B38149895A896627EF
S113076057FD6095762F840F951FA61FB71F8083B2
S11307709183A283B383FE01E559FF4F8081918168
S1130780019691838083D9010D911D912D913C9106
S1130790808191814081518197FD0196BC017595BD
S11307A06795882777FD8095982F600F711F821FAA
S11307B0931F9A01442737FD4095542F0E94B01A85
S11307C03AA729A78B899C89813F984D09F442C097
S11307D08B899C8988349D4DE9F19E012F5A3F4FA6
S11307E0F90180819181A281B3814B895C8966275B
S11307F057FD6095762F840F951FA61FB71F808322
S11308009183A283B383FE01E359FF4F80819181D9
S1130810019691838083D9010D911D912D913C9175
S1130820808191814081518197FD0196BC0175952C
S11308306795882777FD8095982F600F711F821F19
S1130840931F9A01442737FD4095542F0E94B01AF4
S11308503CA72BA78D899E89813F984D09F444C0FC
S11308608D899E8988349D4D09F43EC09E012B5A82
S11308703F4FD9014D915D916D917C918D899E89F8
S1130880AA2797FDA095BA2F480F591F6A1F7B1FEF
S1130890F9014083518362837383FE01E159FF4F61
S11308A080819181019691838083D9010D911D915D
S11308B02D913C91808191814081518197FD0196D8
S11308C0BC0175956795882777FD8095982F600FF3
S11308D0711F821F931F9A01442737FD4095542F9F
S11308E00E94B01A3EA72DA780E0DF91CF911F91FF
S11308F00F910895CF93C82FC49883E00E94241ABF
S11309008C2F0E94241A80EA0E94241AC49ACF9140
S113091008951F93CF93DF931F92CDB7DEB7182F9F
S1130920C49882E069830E94241A812F0E94241AA9
S11309306981862F0E94241AC49A0F90DF91CF9167
S11309401F9108951F93CF93DF9300D0CDB7DEB7E7
S1130950182FC49885E04A8369830E94241A812F42
S11309600E94241A6981862F0E94241A4A81842FA6
S11309700E94241AC49A0F900F90DF91CF911F9177
S11309800895EF92FF920F931F93CF93DF93EC019F
S11309908B01C29880EC0E94241A8EE00E947A0493
S11309A0807E8038D1F7C29A8AE090E00E94F10BF1
S11309B047E067E08AE20E94A20440E960E989E234
S11309C00E94A20442E062E088E20E94A20443E2A0
S11309D063E28BE20E94A20444E264E680E60E94A1
S11309E0A20440E260E680E70E94A2047E0183E064
S11309F0F694E7948A95E1F76E2D80E20E948904CB
S1130A00C295CC0FC07E4C2F60EE81E20E94A204FE
S1130A106E2D84E20E9489044C2F60EE85E20E94D0
S1130A20A204E80193E0D695C7959A95E1F74C2F77
S1130A306FEF80E00E94A2040295000F007E402F19
S1130A4060EE81E00E94A2044C2F6FEF84E00E94CC
S1130A50A204402F60EE85E00E94A2044C2F6FEFA9
S1130A6088E00E94A204402F60EE89E00E94A20464
S1130A704C2F6FEF80E10E94A204402F60EE81E1D1
S1130A800E94A2044C2F6FEF84E10E94A204402F25
S1130A9060EE84E10E94A2044C2F6FEF88E10E9473
S1130AA0A204402F60EE88E10E94A20440E06FEFB0
S1130AB08CE00E94A20440E06FEF8DE00E94A2044B
S1130AC040E060EE8FE00E94A204C29ADF91CF91D1
S1130AD01F910F91FF90EF900895CF92DF92EF92C4
S1130AE0FF920F931F93CF93DF931F92CDB7DEB77F
S1130AF08C01C49880EA0E94241A8FEF0E94241A61
S1130B0089838FEF0E94241AC49A898182FF09C0C5
S1130B10898184FF08C0898186FD52C054E0D52EA6
S1130B2004C0D12C02C042E0D42EC4988D2D806420
S1130B300E94241AF8018081918133E0969587956B
S1130B403A95E1F70E94241AF80180818295880F72
S1130B50807E0E94241A80E00E94241A80E00E9471
S1130B60241AF801C380F8E0FC1510F428E0C22E22
S1130B70F8018281882329F08C2D80640E94241A34
S1130B8011C08C2D0E94241AE12CF12C09C0F8010B
S1130B90EE0DFF1D84810E94241AFFEFEF1AFF0A55
S1130BA0EC14A8F3C49A0000C498D11002C081E8E0
S1130BB002C08D2D80680E94241AC49A81E001C06D
S1130BC080E00F90DF91CF911F910F91FF90EF90F4
S1130BD0DF90CF900895CF93C49880EB0E94241A9D
S1130BE08FEF0E94241AC82F8FEF0E94241AC49AF0
S1130BF08C2FCF910895DF92EF92FF920F931F9362
S1130C00CF93DF931F92CDB7DEB78C010E94EB0523
S1130C108983898186FF03C0C49880E905C08981DE
S1130C2087FF4BC0C49884E90E94241A8FEF0E9466
S1130C30241A98E0899F70011124F801F182E0825E
S1130C408FEF0E94241A829586958770E82AF8010E
S1130C50F182E0828FEF0E94241A8FEF0E94241AFF
S1130C608FEF0E94241A6FE0D62ED822F801D38287
S1130C70E12CF12C0AC08FEF0E94241AF801EE0D2A
S1130C80FF1D8483FFEFEF1AFF0AED14A0F3C49A4B
S1130C90898183FF04C081E0F801828302C0F801E6
S1130CA01282898140E086FF02C061E001C062E0F7
S1130CB08CE20E94A204898101C08FEF0F90DF9122
S1130CC0CF911F910F91FF90EF90DF900895EF92D5
S1130CD0FF920F931F93CF93DF93CDB7DEB72C977B
S1130CE00FB6F894DEBF0FBECDBF7C018B01CE01E1
S1130CF001960E94FB058F3F09F4DFC089819A8128
S1130D00282F2F70F4E096958795FA95E1F79927A7
S1130D108130910521F0029709F0E8C03BC02130F1
S1130D2021F49D8180E0F7013AC0223061F58D8184
S1130D3090E0A0E0B0E0B82FAA2799278827F70110
S1130D4080879187A287B38780859185A285B385A3
S1130D502E81A22B80879187A287B3878085918576
S1130D60A285B3852F81922B80879187A287B38731
S1130D7040855185628573858885482B40875187D6
S1130D806287738760C0233009F0B0C09D8180E022
S1130D90F7016CC0213051F59D8180E0F801958701
S1130DA08487848595852E81822B958784879F816E
S1130DB080E093838283828193812885822B93832D
S1130DC08283998580E095838483848195812A85B3
S1130DD0822B958384839B8580E097838683868199
S1130DE097812C85822B9783868380C02230C1F51E
S1130DF08D8190E0A0E0B0E0B82FAA27992788273A
S1130E00F80180879187A287B38780859185A28521
S1130E10B3852E81A22B80879187A287B387808593
S1130E209185A285B3852F81922B80879187A28794
S1130E30B38780859185A285B3852885822B808799
S1130E409187A287B387898586879A8580E0918375
S1130E508083808191812B85822B9183808346C0FE
S1130E60233009F043C09D8180E0F801908B87878F
S1130E70878590892E81822B908B87879F8180E044
S1130E80928B818B818992892885822B928B818B8D
S1130E90998580E0948B838B838994892A85822B1E
S1130EA0948B838B9B8580E0968B858B8589968933
S1130EB02C85822B968B858B19C08CE20E947A0438
S1130EC085FF10C08DE20E947A0480938800482F29
S1130ED0682F8DE20E94A20440E260E28CE20E944C
S1130EE0A20402C01092870080E001C081E02C9629
S1130EF00FB6F894DEBF0FBECDBFDF91CF911F9127
S1130F000F91FF90EF90089520E040E065E00E948B
S1130F10D21081E00895CF93DF9300D0CDB7DEB730
S1130F2090E499838A8320E040E062E0CE01019658
S1130F300E94D21080E00F900F90DF91CF9108951E
S1130F40CF93DF93CDB7DEB7CC5CD2400FB6F89425
S1130F50DEBF0FBECDBF0E9426126E0122EBC21A65
S1130F602DEFD20AC6010E94A5187E0185E2E81A77
S1130F708EEFF80AC7010E94A5185E01E8E9AE1ACF
S1130F80EEEFBE0AC5010E94A51845E06CE370E0CF
S1130F90CE0101960E94020C912CF7018481958167
S1130FA0F50195838483F70186819781F501978301
S1130FB08683F70180859185A285B385F5018087B5
S1130FC09187A287B387F70182819381F501938387
S1130FD0828380918700882321F0B701C6010E9493
S1130FE0670680916B018823C1F2F60184819581A3
S1130FF0813F984D81F0F6018481958188349D4D1F
S113100051F0F601648175818FE091E00E9413171D
S113101090E09BBD8ABDF6018481958120911E01DB
S113102030911F01821B930B0B973CF0293E3340F8
S113103024F0969A84E0982E05C0992019F09A9489
S113104009F49698F70184819581813F984D81F048
S1131050F7018481958188349D4D51F0F7016481B5
S113106075818CE891E00E94131790E099BD88BDCA
S113107080918600813019F0823061F512C0F6014A
S113108081899289813F984D29F1F601818992895C
S113109088349D4DF9F0F601618972898CE391E001
S11310A011C0F70185899689813F984D99F0F70120
S11310B08589968988349D4D69F0F701658976891B
S11310C08BEA90E00E94131793B5911102C081112D
S11310D08FEF83BD8FEF8093A7000E948B078091D1
S11310E07000823039F4AE014F5F5F4FB701C60123
S11310F00E944B14009170011091710120917201B2
S1131100309173010038194F2105310518F082E040
S113111080933901C6010E946B01C05ADE4F888159
S11311209981C056D1400196C05ADE4F9983888375
S1131130C056D140C05ADE4F28813981C056D140B3
S1131140C45ADE4F88819981CC55D140281739077C
S1131150E0F083E7F601DE01119601900D928A9585
S1131160E1F7C6010E948A19C05ADE4F198218821B
S1131170C056D140C959DE4F8881C756D1408F5FD0
S1131180C959DE4F8883C756D140CB59DE4F988169
S1131190C556D140C65ADE4F8881CA55D1409817EA
S11311A0E8F1C7010E946B01CE59DE4F8881998115
S11311B0C256D1400196CE59DE4F99838883C256D8
S11311C0D140CE59DE4F28813981C256D140C45A0C
S11311D0DE4F88819981CC55D1402817390748F1D1
S11311E083E7F701DE01AC58BF4F01900D928A9559
S11311F0E1F7C7010E948A19CE59DE4F198218827D
S1131200C256D140C959DE4F8881C756D1408F5F3D
S1131210C959DE4F8883C756D1400BC0CB59DE4F26
S11312208881C556D1408F5FCB59DE4F8883C55620
S1131230D140CE59DE4F28813981C256D140C45A9B
S1131240DE4F88819981CC55D140049728173907FE
S113125038F4CC59DE4F8881C456D140882389F1B3
S1131260C5010E946B01CC59DE4F8881C456D14020
S11312708F5FCC59DE4F8883C456D140CC59DE4FA2
S11312808881C456D1408930E0F083E7F501DE015E
S1131290A951BF4F01900D928A95E1F7C5010E94B3
S11312A08A19CC59DE4F1882C456D140C959DE4F31
S11312B08881C756D1408F5FC959DE4F8883C7568E
S11312C0D140C959DE4F8881C756D140833099F542
S11312D0C959DE4F1882C756D140809139018130F7
S11312E061F420E731E0AE0149515F4FBE016C5813
S11312F07F4FCE0101960E942F0C8091A800882375
S1131300D1F0C55ADE4F4881CB55D140C25ADE4F89
S113131068817981CE55D140CE0101960E94020C9C
S1131320C6010E948A19C7010E948A19C5010E9438
S11313308A191092A80080918201882331F06CE30D
S113134071E08CE791E00E94BF008091D500882372
S113135031F06FE071E08FEC90E00E94BF0080916B
S1131360C901882331F06CE871E083EC91E00E94BC
S1131370BF008091B601882331F06BEA70E080EB06
S113138091E00E94BF009E012F5F3F4FA501B7016E
S1131390C6010E94110A80E190E0CF53DD4F99838A
S11313A08883C15CD240CD53DD4F1882C35CD240E8
S11313B082E0CC53DD4F8883C45CD24081E0CB53C0
S11313C0DD4F8883C55CD24010E001C01F5FCE01B1
S11313D08F539D4F0E946D051A3F10F48823B1F37B
S11313E080E290E0CF53DD4F99838883C15CD24083
S11313F08AE090E00E94F10B10E001C01F5FCE0173
S11314008F539D4F0E946D051A3F10F48823B1F34A
S1131410C6010E946919C7010E94691910926B01E3
S1131420BCCDCF92DF92EF92FF920F931F93CF9395
S1131430DF93CDB7DEB7C05AD1090FB6F894DEBF3B
S11314400FBECDBFDC01C0900601D12CE12CF12CE4
S1131450C982DA82EB82FC82C0900701D090080135
S1131460E0900901F0900A01CD82DE82EF82F886D5
S1131470C0903801D12CE12CF12CC986DA86EB8698
S1131480FC86C0907901D12CE12CF12CCD86DE862E
S1131490EF86F88A1496CD90DC901597EE24D7FC4D
S11314A0E094FE2CC98ADA8AEB8AFC8AFB01C480A8
S11314B0D580EE24D7FCE094FE2CCD8ADE8AEF8A18
S11314C0F88E1696CD90DC901797EE24D7FCE09416
S11314D0FE2CC98EDA8EEB8EFC8EC680D780EE246D
S11314E0D7FCE094FE2CCD8EDE8EEF8EF8A21896FB
S11314F0CD90DD90ED90FC901B97C9A2DAA2EBA2EF
S1131500FCA2C084D184E284F384CDA2DEA2EFA243
S1131510F8A61296CD90DC901397E12CF12CC9A675
S1131520DAA6EBA6FCA6C280D380E12CF12CCDA6D2
S1131530DEA6EFA6F8AA1E96CC901E97D12CE12C1D
S1131540F12CC9AADAAAEBAAFCAAC684D12CE12CF4
S1131550F12CCDAADEAAEFAAF8AECD90DC901197BB
S1131560EE24D7FCE094FE2CC9AEDAAEEBAEFCAEB2
S1131570C080D180EE24D7FCE094FE2C2196CCAE22
S1131580DDAEEEAEFFAE21971F96CD90DC90509766
S1131590EE24D7FCE094FE2C2596CCAEDDAEEEAE68
S11315A0FFAE2597C784D088EE24D7FCE094FE2CA8
S11315B02996CCAEDDAEEEAEFFAE29975196CD9016
S11315C0DC905297EE24D7FCE094FE2C2D96CCAE02
S11315D0DDAEEEAEFFAE2D97C188D288EE24D7FCE7
S11315E0E094FE2C6196CCAEDDAEEEAEFFAE61971C
S11315F05596CD90DC905697EE24D7FCE094FE2CC3
S11316006596CCAEDDAEEEAEFFAE6597C588D688E6
S1131610EE24D7FCE094FE2C6996CCAEDDAEEEAEA3
S1131620FFAE69975396CD90DC905497EE24D7FC87
S1131630E094FE2C6D96CCAEDDAEEEAEFFAE6D97B3
S1131640C388D488EE24D7FCE094FE2CA196CCAEBB
S1131650DDAEEEAEFFAEA197C0903901D12CE12CE6
S1131660F12CA596CCAEDDAEEEAEFFAEA597CAB416
S1131670DBB4E12CF12CA996CCAEDDAEEEAEFFAE20
S1131680A997C8B4D9B4E12CF12CAD96CCAEDDAE9B
S1131690EEAEFFAEAD97C3B4D12CE12CF12CE196A4
S11316A0CCAEDDAEEEAEFFAEE19787E0C82ED12C16
S11316B0E12CF12CE596CCAEDDAEEEAEFFAEE597B7
S11316C0C9018C599E4FFC01C080D12CE12CF12C16
S11316D0E996CCAEDDAEEEAEFFAEE997C901855A10
S11316E09E4FFC01C080D180EE24D7FCE094FE2CF8
S11316F0ED96CCAEDDAEEEAEFFAEED97A35ABF4F86
S11317008D919C91AA2797FDA095BA2FC358DF4FBE
S113171088839983AA83BB83CD57D040FB01E35AC6
S1131720FF4F80819181AA2797FDA095BA2FCF57AB
S1131730DF4F88839983AA83BB83C158D040FA01C1
S1131740E35AFF4F80819181AA2797FDA095BA2F74
S1131750CB57DF4F88839983AA83BB83C558D04076
S1131760F901EA59FE4F808190E0A0E0B0E0C7574C
S1131770DF4F88839983AA83BB83C958D0408E01E5
S11317800F5F1F4F7E01FDE8EF0EF11CF801619120
S11317907191819191918F012AE030E0AE01475619
S11317A05F4F0E943A1BCE0187569F4F0E943B1AFF
S11317B08BE30E94371A0E151F0541F78AE00E9439
S11317C0371AC056DF4F0FB6F894DEBF0FBECDBF39
S11317D0DF91CF911F910F91FF90EF90DF90CF9009
S11317E00895109235011092340123E0880F991F57
S11317F02A95E1F7209134013091350128173907F2
S1131800C8F30895FC01E75AFE4F4083FC01E65AF1
S1131810FE4F4083FC01E55AFE4F71836083FC0157
S1131820E35AFE4F71836083FC01E15AFE4F11823B
S11318301082FC01EF59FE4F11821082FC01ED5918
S1131840FE4F1082FC01EC59FE4F1082FC01EB5953
S1131850FE4F1082FC01EA59FE4F108208958F92C8
S11318609F92AF92BF92CF92DF92EF92FF920F932B
S11318701F93CF93DF93CDB7DEB764970FB6F89479
S1131880DEBF0FBECDBF6C017B01FA0189012FB70A
S1131890F894D8018D909D90AD90BC90B501A401B1
S11318A0AFE07695679557954795AA95D1F742701D
S11318B0552766277727406A498377276B2D5A2D4A
S11318C0492D4A838B82809106018C838091070184
S11318D090910801A0910901B0910A01CD01AA27B4
S11318E0BB278D838091070190910801A091090184
S11318F0B0910A01892F9A2FAB2FBB278E83809139
S1131900070190910801A0910901B0910A018F8308
S1131910809138018887D6019F968D919C91D097AC
S11319208987858D968D892F990F990B8A87858D47
S1131930968D8B87878D90A1892F990F990B8C8712
S1131940878D90A18D8781A192A1A3A1B4A18B2F92
S1131950BB2787FDB0959B2FAB2F8E8781A192A1CA
S1131960A3A1B4A1CD01BB2797FDB095AB2F8F8761
S113197081A192A1A3A1B4A1892F9A2FAB2FBB2738
S1131980A7FDBA95888B81A192A1A3A1B4A1898B4B
S1131990838D948D892F990F990B8A8B838D948DC8
S11319A08B8B2FBF64E6B62E20E040E063E1CE01CE
S11319B001960E94D2108091A400882311F0BA9459
S11319C099F7F80180819181A281B3814096A11D8C
S11319D0B11D80839183A283B3832FB7F894408190
S11319E0518162817381DB01CA01EFE0B695A7954D
S11319F097958795EA95D1F782709927AA27BB27EF
S1131A00806A8983BB27A72F962F852F8A834B83D0
S1131A10F601858D968D892F990F990B8C83858D71
S1131A20968D8D83878D90A1892F990F990B8E8325
S1131A30878D90A18F8381A192A1A3A1B4A18B2FA3
S1131A40BB2787FDB0959B2FAB2F888781A192A1DF
S1131A50A3A1B4A1CD01BB2797FDB095AB2F898776
S1131A6081A192A1A3A1B4A1892F9A2FAB2FBB2747
S1131A70A7FDBA958A8781A192A1A3A1B4A18B875E
S1131A80838D948D892F990F990B8C87838D948DD9
S1131A908D87818D928D892F990F990B8E87818DDA
S1131AA0928D8F8785A596A5988B85A596A5898BFC
S1131AB083A594A59A8B83A594A58B8B2FBFE4E66D
S1131AC0DE2E20E040E063E1CE0101960E94D210B8
S1131AD08091A400882311F0DA9499F7F8018081A9
S1131AE09181A281B3814096A11DB11D8083918310
S1131AF0A283B3832FB7F89480819181A281B381AB
S1131B00AC01BD01EFE07695679557954795EA9549
S1131B10D1F74270552766277727406A4983492FB2
S1131B205A2F6B2F77274A838B83D7015D968D912C
S1131B309C915E97892F990F990B8C835D968D915B
S1131B409C915E978D835F968D919C919097892F40
S1131B50990F990B8E835F968D919C9190978F83AB
S1131B6091968D919D910D90BC91A02D8B2FBB27AB
S1131B7087FDB0959B2FAB2F8887F70181A192A198
S1131B80A3A1B4A1CD01BB2797FDB095AB2F898745
S1131B9081A192A1A3A1B4A1892F9A2FAB2FBB2716
S1131BA0A7FDBA958A8781A192A1A3A1B4A18B872D
S1131BB0838D948D892F990F990B8C87838D948DA8
S1131BC08D87818D928D892F990F990B8E87818DA9
S1131BD0928D8F8785A596A5892F990F990B888B50
S1131BE085A596A5898B83A594A5892F990F990B13
S1131BF08A8B83A594A58B8B2FBF54E6F52E20E00A
S1131C0040E063E1CE0101960E94D2108091A400CD
S1131C10882311F0FA9499F7F80180819181A281C7
S1131C20B3814096A11DB11D80839183A283B383A8
S1131C302FB7F89480819181A281B381AC01BD0159
S1131C403FE076956795579547953A95D1F7427059
S1131C50552766277727406A4983492F5A2F6B2FC8
S1131C6077274A838B838BEF8C838CEF8D838DEF67
S1131C708E838EEF8F832FBF14E620E040E067E071
S1131C80CE0101960E94D2108091A400882311F005
S1131C90115099F781E064960FB6F894DEBF0FBE39
S1131CA0CDBFDF91CF911F910F91FF90EF90DF9007
S1131CB0CF90BF90AF909F908F9008952F923F92B6
S1131CC04F925F926F927F928F929F92AF92BF9248
S1131CD0CF92DF92EF92FF920F931F93CF93DF93F4
S1131CE0CDB7DEB7C655D1090FB6F894DEBF0FBE27
S1131CF0CDBFFE01EF5BFF4F80E490E0A0E0B0E0D9
S1131D0080839183A283B3836E0145E4C40ED11C06
S1131D10D6011C9211961C928F0176015E01B1E2EC
S1131D20AB0EB11C3E01EDE16E0E711CF2C121E05F
S1131D3040E163E0C6010E94D2102091A400211169
S1131D4011C0D8014D915D916D917C91405F5F4FC1
S1131D506F4F7F4FF801408351836283738320E088
S1131D6030E003C09A9419F7ECCFFC01E20FF31FA3
S1131D704081F501E20FF31F40832F5F3F4F203175
S1131D80310599F749A18AA13BA12CA191E08C3F8F
S1131D9009F090E081E04B3F09F080E0982381E076
S1131DA03D3F09F080E0892319F02E3F09F4D8C1A2
S1131DB089A190E0A0E0B0E089839A83AB83BC83DF
S1131DC03AA18BA12CA190E0A0E0B0E0BA2FA92FFA
S1131DD0982F8827A32B822B8D839E83AF83B8876C
S1131DE08DA190E0A0E0B0E089879A87AB87BC879B
S1131DF08EA190E0A0E0B0E08D879E87AF87B88B7E
S1131E008FA128A5382E212CC101AA2797FDA095C2
S1131E10BA2F822B898B9A8BAB8BBC8B89A52AA575
S1131E202B968FAF2B972A961FAE2A972B964EADE3
S1131E305FAD2B97CA01AA2797FDA095BA2F822BD5
S1131E408D8B9E8BAF8BB88F8BA54CA53DA52EA5F6
S1131E5090E0A0E0B0E0B82FAA2799278827A42B08
S1131E60932B822B898F9A8FAB8FBC8F8FA528A938
S1131E702D968FAF2D972C961FAE2C972D96EEADE9
S1131E80FFAD2D97CF01AA2797FDA095BA2F822BDE
S1131E908D8F9E8FAF8FB8A388248394912C8C0E42
S1131EA09D1ED4016D917D918D919D914D012AE0EE
S1131EB030E0AE01475C5F4F0E943A1BCE01C996E9
S1131EC00E943B1A8BE30E94371A8A149B0449F739
S1131ED0B2E02996BFAF2997F80180819181A28150
S1131EE0B3817FE0B695A795979587957A95D1F7B5
S1131EF082709927AA27BB27806AD7018C93808197
S1131F009181A281B381892F9A2FAB2FBB27F7012F
S1131F108183F80180819181A281B381F701828359
S1131F20F4E69F2E21E040E163E0C6010E94D21056
S1131F302091A400211111C0D8014D915D916D91A2
S1131F407C91405F5F4F6F4F7F4FF8014083518317
S1131F506283738320E030E003C09A9419F7ECCFD6
S1131F60FC01E20FF31F4081F501E20FF31F4083F0
S1131F702F5F3F4F2031310599F749A18AA13BA139
S1131F802CA191E08C3F09F090E081E04B3F09F0F7
S1131F9080E0982381E03D3F09F080E0892319F037
S1131FA02E3F09F4B3C089A12AA12F968FAF2F9792
S1131FB02E961FAE2E972F964EAD5FAD2F97CA016A
S1131FC0AA2797FDA095BA2F822B89839A83AB8386
S1131FD0BC838BA12CA161968FAF619760961FAED5
S1131FE060976196EEADFFAD6197CF01AA2797FD8B
S1131FF0A095BA2F822B8D839E83AF83B8878DA142
S11320004EA13FA128A590E0A0E0B0E0B82FAA27F8
S113201099278827A42B932B822B89879A87AB87B0
S1132020BC8789A52AA563968FAF639762961FAE76
S1132030629763964EAD5FAD6397CA01AA2797FD79
S1132040A095BA2F822B8D879E87AF87B88B8BA5DF
S11320502CA565968FAF659764961FAE64976596B9
S1132060EEADFFAD6597CF01AA2797FDA095BA2FD6
S1132070822B898B9A8BAB8BBC8B8DA52EA56796F7
S11320808FAF679766961FAE669767964EAD5FAD46
S11320906797CA01AA2797FDA095BA2F822B8D8B2B
S11320A09E8BAF8BB88F8FA528A9582E412CC201C7
S11320B0AA2797FDA095BA2F822B898F9A8FAB8F71
S11320C0BC8F88248394912C8C0E9D1ED4016D9119
S11320D07D918D919D914D012AE030E0AE014F5CE0
S11320E05F4F0E943A1BCE01C1960E943B1A8BE3BC
S11320F00E94371A8614970449F72996BFAD299789
S1132100B1502996BFAF2997B111E6CE8AE00E945B
S1132110371AF80180819181A281B3817FE0B6955D
S1132120A795979587957A95D1F782709927AA27CD
S1132130BB27806AD7018C9380819181A281B3816E
S1132140892F9A2FAB2FBB27F7018183F801808158
S11321509181A281B381F7018283F4E69F2EE7CDBA
S113216081E0CA5ADF4F0FB6F894DEBF0FBECDBF71
S1132170DF91CF911F910F91FF90EF90DF90CF905F
S1132180BF90AF909F908F907F906F905F904F9093
S11321903F902F900895099A089A81E080B981B1FF
S11321A090E0089590938C0080938B009093A0000E
S11321B080939F002093A5001092A30089E0809350
S11321C0A4004093A2006093A10085EA86BF109208
S11321D06F0110926E0123E008C080916E0190910E
S11321E06F01449714F02093A4008091A4008930D7
S11321F0A1F38091A4008DE890E008951F920F92BE
S11322000FB60F9211242F933F938F939F93EF93C5
S1132210FF9381B1887F883209F496C090F48031AD
S113222009F44FC038F4882309F400C1883009F058
S1132230FDC01CC0883109F471C0803209F0F6C0B9
S1132240CBC0803409F4C3C038F4803309F4C4C06B
S1132250883309F0EBC0B9C0803509F4C1C08835B2
S113226009F4D8C0883409F0E1C0B6C09091A30045
S11322708091A100981304C08091A20081112BC009
S11322801092A30080919F009091A00090938C00E5
S113229080938B00E0918B00F0918C00808183B956
S11322A085E886BF80918B0090918C000196909375
S11322B08C0080938B008091A3008F5F8093A30098
S11322C0BAC09091A3008091A100981316C0809188
S11322D0A200882391F080919F009091A000909398
S11322E08C0080938B00E0918B00F0918C008081B6
S11322F0816080831092A3000AC01092A300809191
S11323009F009091A00090938C0080938B00E091AB
S11323108B00F0918C00808183B977C09091A300E9
S11323208091A100981305C08091A200811101C081
S113233078C09091A3008091A100981331C080913E
S1132340A200882369F11AC09091A3008091A10092
S1132350981306C08091A200811102C084E962C072
S11323609091A3008091A10098130AC08091A200CB
S1132370882331F08091A500811102C085EB48C00B
S11323809091A3008091A10098130AC08091A200AB
S1132390882331F08091A500882311F085EA38C0A4
S11323A0E0918B00F0918C00808183B980918B0047
S11323B090918C00019690938C0080938B00809177
S11323C0A3008F5F8093A30020C080E821C0809188
S11323D0A2008130E1F419C080E986BF82E029C0FF
S11323E08091A300E82FF0E093B1E557FF4F92836B
S11323F08F5F8093A3002091A3008091A20030E01E
S113240090E001972817390711F485E801C085EC9D
S113241086BF11C0E091A300F0E083B1E557FF4F00
S1132420828380E986BF1092A40005C080E986BF3C
S113243081E08093A400FF91EF919F918F913F9150
S11324402F910F900FBE0F901F9018958F929F920F
S1132450AF92CF92DF92EF92FF920F931F93CF939D
S113246083B7886083BF83B7826083BF89B7826084
S113247089BF8DE78CBF8FB5816A8FBD8EB58560AE
S11324808EBD1BBC1ABC19BC18BC85B5826685BD43
S113249013BC10927401109275011092760110927F
S11324A0770184E680937801BA988BB780628BBFFA
S11324B084B78F7B84BF8A9882B38C6082BB85B7D4
S11324C08F6085BF8BB7806C8BBF81B3806F81BBFE
S11324D084B3846F84BB82B38F7082BB85B38F70E7
S11324E085BB979AAA9A3E9A3F9886B1876086B927
S11324F010923301C1E0C09386001F9280E2882EBF
S1132500912CAA24A3949AEFC92ED12CE12CF12C5E
S113251000E010E02CE530E042E060E370E08FE0A2
S113252091E00E945C181F9220E032E041E060E4F8
S113253070E08CE891E00E945C181F9220E8822EE3
S1132540912C30E1C32E37E2D32E4AE0E42EF12C55
S113255021E030E040E068E070E08CE391E00E942C
S11325605C18CF9350E1852E912C60EDC62E67E068
S1132570D62E00E717E120E830E040E06CE070E0A0
S11325808BEA90E00E945C181F9270E4872E912CD5
S1132590ECEACE2EEDE0DE2E0AE010E023E030E09F
S11325A041E065E070E082EE90E00E945C1878946F
S11325B088E090E00E942B1A0E94CB100E94171A08
S11325C081E090E00E94F10B60E070E080E090E038
S11325D00E94C1041092DE001092DD00109263018B
S11325E010926201109265011092640110923B01F5
S11325F010923A0110923701109236011092E000C5
S11326001092DF001092BF011092BE0110926D0172
S113261010926C0110926101109260011092C2013B
S11326201092C1011092AA001092A9001092A70062
S113263010928900109287001092A800109238011D
S113264010927901C0936B011092390180E490E0FB
S1132650A0E0B0E08093700190937101A0937201A7
S1132660B0937301109288001092060181E090E00B
S1132670A0E0B0E08093070190930801A0930901C2
S1132680B0930A0110920B0110920C0110920D01EB
S113269010920E010F900F900F900F900F90CF910A
S11326A01F910F91FF90EF90DF90CF90AF909F908C
S11326B08F9008951F920F920FB60F9211242F93AB
S11326C08F939F93AF93BF9380917A0190917B01F5
S11326D0019690937B0180937A0180917A01909185
S11326E07B0188329F41D4F010927B0110927A01D1
S11326F081E080936B018091070190910801A09182
S11327000901B0910A010196A11DB11D8093070131
S113271090930801A0930901B0930A0180913301B9
S1132720882329F080913301815080933301809173
S11327307A0190917B0187709927892BD9F4809134
S11327406E0190916F01019690936F0180936E01D9
S113275080918A0190918B01019690938B018093D3
S11327608A0180913401909135010196909335014D
S11327708093340180917401843610F010927401B6
S11327808091750190917401981718F0843609F0BE
S1132790AF988091760190917401981718F084365F
S11327A009F0AE988091770190917401981718F010
S11327B0843609F0AD98909178018091740189175D
S11327C018F0943609F0AC98811110C0809175010D
S11327D08111AF9A809176018111AE9A809177012F
S11327E08111AD9A809178018111AC9A8091740124
S11327F08F5F80937401BF91AF919F918F912F91BF
S11328000F900FBE0F901F9018951F920F920FB646
S11328100F9211248F939F9380913301811109C0EA
S113282088EC809333018091390191E0892780936A
S113283039018AB780648ABF9F918F910F900FBE30
S11328400F901F9018951F920F920FB60F9211249C
S11328508F9380913301811106C088EC80933301FA
S113286082B3805882BB8AB780688ABF8F910F90E9
S11328700FBE0F901F9018951F920F920FB60F92D4
S113288011248F9381E0809387008F910F900FBE66
S11328900F901F901895BF92CF92DF92EF92FF9204
S11328A00F931F93CF93DF93CDB7DEB765970FB622
S11328B0F894DEBF0FBECDBF8A01B090720090E0E5
S11328C00EC09F5F292F30E0F901E059FF4F82814C
S11328D0ECE0F0E0EC0FFD1FE20FF31F8083E92F23
S11328E0F0E0E059FF4F82818111EBCFCE010D96CC
S11328F00E94131B6B017C018B2D90E0FC01E154C1
S1132900F109EA33F10508F078C2E65DFF4F0C9453
S1132910CC1A21E0C2162AE0D206E104F10408F040
S113292070C2C0922001D0922101E0922201F09263
S1132930230167C281E0C8168AE0D806E104F104E5
S113294008F05FC2C0922401D0922501E0922601D2
S1132950F092270156C221E0C2162AE0D206E10411
S1132960F10408F04EC2C0922801D0922901E092ED
S11329702A01F0922B0145C281EAC8168FE0D806DD
S1132980E104F10408F03DC2D0921F01C0921E017F
S113299038C221E0C2162AE0D206E104F10408F0AC
S11329A030C2C0929D01D0929E01E0929F01F092AC
S11329B0A00127C281E0C8168AE0D806E104F10428
S11329C008F01FC2C092A101D092A201E092A3011B
S11329D0F092A40116C221E0C2162AE0D206E10454
S11329E0F10408F00EC2C092A501D092A601E092B3
S11329F0A701F092A80105C281EAC8168FE0D806A3
S1132A00E104F10408F0FDC1D0929C01C0929B0145
S1132A10F8C121E0C2162AE0D206E104F10408F06C
S1132A20F0C1C0924D01D0924E01E0924F01F0925C
S1132A305001E7C181E0C8168AE0D806E104F10438
S1132A4008F0DFC1C0925101D0925201E0925301CB
S1132A50F0925401D6C121E0C2162AE0D206E10464
S1132A60F10408F0CEC1C0925501D0925601E09213
S1132A705701F0925801C5C181E4C8168CE9D80603
S1132A80E104F10408F0BDC1D0924C01C0924B01A5
S1132A90B8C12FEFC216D104E104F10411F008F01B
S1132AA0B0C1D0925A01C0925901ABC18FEFC81680
S1132AB0D104E104F10411F008F0A3C1C0920601AD
S1132AC0A0C12FEFC216D104E104F10411F008F003
S1132AD098C1C092380195C18FEFC816D104E104A2
S1132AE0F10411F008F08DC1C09279018AC10E94ED
S1132AF05E0E87C1D701C6010197A109B1098031D2
S1132B009E40A105B10508F07CC1F801E35AFE4FCF
S1132B10D182C08214C0F801E35AFE4F80819181B2
S1132B200A97AA2797FDA095BA2F8C159D05AE0587
S1132B30BF050CF466C1F801E65AFE4FC08281E07D
S1132B408093A8005EC18091390191E08927809328
S1132B50390157C112E01093660186E691E00E94A4
S1132B6084071E5F1A30B9F74CC18FEFC816D10421
S1132B70E104F10411F008F044C1C092670141C1BD
S1132B802FEFC216D104E104F10411F008F039C1A9
S1132B90C092680136C18FEFC816D104E104F10474
S1132BA011F008F02EC1C09269012BC12FEFC2169B
S1132BB0D104E104F10411F008F023C1C0926A01C8
S1132BC020C181E1C81687E2D806E104F10408F0C7
S1132BD018C1D092F200C092F10013C121E1C216D3
S1132BE027E2D206E104F10408F00BC1D092BB0045
S1132BF0C092BA0006C1D701C6010197A109B10963
S1132C000297A105B10508F0FCC0C0928600F9C086
S1132C1080E490E0A0E0B0E08093700190937101B3
S1132C20A0937201B0937301ECC085E6C816D10479
S1132C30E104F10408F0E5C0C0927501E2C025E6A4
S1132C40C216D104E104F10408F0DBC0C09276019D
S1132C50D8C085E6C816D104E104F10408F0D1C057
S1132C60C0927701CEC025E6C216D104E104F10476
S1132C7008F0C7C0C0927801C4C0C114D104E104F3
S1132C80F10419F48CE791E020C0D701C6010A973A
S1132C90A109B109873B984AA105B10508F0B1C063
S1132CA080EB91E00E94AF00860128EB3BE040E519
S1132CB056E468E873E18CE791E01EC0C114D104C6
S1132CC0E104F10429F48FEC90E00E94AF0099C074
S1132CD0D701C6010A97A109B109873B984AA10502
S1132CE0B10508F08EC0860124E630E040E85CE0DF
S1132CF060EF7AE08FEC90E00E949A0082C0C114E9
S1132D00D104E104F10419F483EC91E0DECFD7019E
S1132D10C6010A97A109B109873B984AA105B105E3
S1132D2008F06FC0860122E330E040E85CE060EF29
S1132D307AE083EC91E0E0CFC114D104E104F10422
S1132D4019F480EB91E0C1CFD701C6010A97A1091C
S1132D50B109873B984AA105B10508F052C08CE738
S1132D6091E00E94AF00860124E630E040EA5FE093
S1132D7064EF71E080EB91E0BFCF80E8C81681E595
S1132D80D80681E0E806F104E0F580E190E09A835A
S1132D9089831B8285E08C8382E08D83EE82DF82CF
S1132DA0C88610E001C01F5FCE0101960E946D0528
S1132DB01A3038F58823B9F324C020E8C21621E577
S1132DC0D20621E0E206F104E0F480E290E09A8386
S1132DD089831B8285E08C8382E08D83EE82DF828F
S1132DE0C88610E001C01F5FCE0101960E946D05E8
S1132DF01A3038F48823B9F304C080E690E00E94C6
S1132E003B1A1092700065960FB6F894DEBF0FBEA1
S1132E10CDBFDF91CF911F910F91FF90EF90DF9085
S1132E20CF90BF9008954F925F926F927F929F923E
S1132E30AF92BF92CF92DF92EF92FF920F931F93C4
S1132E40CF93DF93EC019BA0992051F0719561958C
S1132E5071098F859889919581959109988B8F87B0
S1132E60AF84B8888501061B170B8F8D98A1801736
S1132E7091070CF4D2C0919581959109081719070F
S1132E800CF4D6C08A819B819D838C83888199812F
S1132E909B838A83198308839801442737FD4095CF
S1132EA0542F101611061CF497FF0CC006C0011510
S1132EB0110519F0181619062CF41F8218861986A4
S1132EC01A861DC08F819885A985BA8577EEC72E8D
S1132ED073E0D72EE12CF12CC80ED91EEA1EFB1E7E
S1132EE06FECC61667E0D606E104F10440F4820FE5
S1132EF0931FA41FB51F8F839887A987BA8749A0FA
S1132F005AA0662457FC6094762C69897A898B8947
S1132F109C890E94A01AA30192010E94B01A69011F
S1132F207A01C1148EEFD8068FEFE806F80634F460
S1132F30C12C6EEFD62EEE24EA94FE2C2D893E8908
S1132F404F89588D6F81788589859A850E94A01A4A
S1132F50A30192010E94B01A29013A0141142FEFF2
S1132F605206620672062CF4412C55245A94652CA0
S1132F70752C8E81FE01E80FF11DE80FF11D808193
S1132F809181D801A81BB90B298D3A8D4B8D5C8D8D
S1132F900E94DD1A61152CEF72072FEF820792074A
S1132FA024F460E07CEF8FEF9FEF21E0C21622E073
S1132FB0D206E104F1042CF0C12C42E0D42EE12C21
S1132FC0F12C21E0421652066104710424F0412CD4
S1132FD0512C32015394C40CD51CE61CF71CDC01A3
S1132FE0CB01813064E09607A105B10524F080E0AF
S1132FF094E0A0E0B0E0C80ED91EEA1EFB1E8B854B
S11330009C85AD85BE85C80ED91EEA1EFB1E8FEFBA
S1133010C816D806E104F1044CF08EEF9FEFA0E04F
S1133020B0E08B879C87AD87BE870BC0F7FE05C0D9
S11330301B861C861D861E8604C0CB86DC86ED8618
S1133040FE86992029F0B194A194B108B88AAF867C
S11330504B845C846D847E84C301B20160587F4FCD
S11330608F4F9F4FC12CD12C7601D394A701960189
S11330700E94B01A8D8D9E8DA0E0B0E0281739070C
S11330804A075B0744F0C301B201A70196010E94FD
S1133090B01A822F01C080E0DF91CF911F910F9170
S11330A0FF90EF90DF90CF90BF90AF909F907F9074
S11330B06F905F904F9008958F929F92AF92CF92AE
S11330C0DF92EF92FF920F931F93CF93DF93CDB7CD
S11330D0DEB7FC01842FA9011182108213821282AF
S11330E0158214821386148615861686A682108B82
S11330F007878B0120E030E0018B128B238B348B0C
S113310090E0A0E0B0E0858B968BA78BB08F60E059
S113311070E0418F528F638F748F178210861186EF
S11331201286F68EE58ED0A2C78E92A281A28E85DB
S113313083A3DF91CF911F910F91FF90EF90DF90C8
S1133140CF90AF909F908F900895FC0181EF98ED00
S113315095878487938382839783868395838483E7
S113316016861182108241EF58ED6FEF7FEF408792
S1133170518762877387908B8787928B818B948B1F
S1133180838B968B858B908F878B928F818F948F77
S1133190838F968F858F90A3878F41A352A363A3B8
S11331A074A396A385A390A787A392A781A794A7A6
S11331B083A796A785A790AB87A711AA12AA13AADB
S11331C014AA15AA16AA17AA10AE11AE12AE13AEFF
S11331D014AEDF01DD961D921D921D921C92139771
S11331E0DF01AF5BBF4F1D921D921D921C9213977E
S11331F0DF01AB5BBF4F1D921D921D921C92139772
S1133200DF01A75BBF4F1D921D921D921C92139765
S1133210DF01A35BBF4F1D921D921D921C92139759
S1133220DF01AF5ABF4F1D921D921D921C9213973E
S1133230DF01AB5ABF4F1D921D921D921C92139732
S1133240DF01A75ABF4F1D921D921D921C92139726
S1133250DF01A35ABF4F11961C921E92DF01A15A9F
S1133260BF4F11961C921E92DF01AF59BF4F1196AA
S11332701C921E92DF01AD59BF4F11961C921E92F3
S1133280DF01AB59BF4F11961C921E92DF01A95961
S1133290BF4F11961C921E92DF01A759BF4F119682
S11332A01C921E92DF01A559BF4F11961C921E92CB
S11332B0DF01A359BF4F11961C921E92DF01A15941
S11332C0BF4F11961C921E92EF58FF4F118210822D
S11332D00895FC0188E49DED958784879383828318
S11332E0978386839583848316869183808348E4B9
S11332F05DED6FEF7FEF4087518762877387908B17
S11333008787928B818B948B838B968B858B908F05
S1133310878B0895FC0111AA12AA13AA14AA15AA4C
S113332016AA17AA10AE11AE12AE13AE14AEDC017B
S1133330DD961D921D921D921C921397DC01AF5BCA
S1133340BF4F1D921D921D921C921397DC01AB5B23
S1133350BF4F1D921D921D921C921397DC01A75B17
S1133360BF4F1D921D921D921C921397DC01A35B0B
S1133370BF4F1D921D921D921C921397DC01AF5AF0
S1133380BF4F1D921D921D921C921397DC01AB5AE4
S1133390BF4F1D921D921D921C921397DC01A75AD8
S11333A0BF4F1D921D921D921C921397DC01A35ACC
S11333B0BF4F11961C921E92DC01A15ABF4F119669
S11333C01C921E92DC01AF59BF4F11961C921E92A3
S11333D0DC01AD59BF4F11961C921E92DC01AB5912
S11333E0BF4F11961C921E92DC01A959BF4F119632
S11333F01C921E92DC01A759BF4F11961C921E927B
S1133400DC01A559BF4F11961C921E92DC01A359F1
S1133410BF4F11961C921E92DC01A159BF4F119609
S11334201C921E92EF58FF4F118210820895BC9A8D
S1133430C49A87B3806A87BB88B38F7188BB80E5E1
S11334408DB981E08EB908957799FECF8FB9779BB6
S1133450FECF8FB1089520B52F7720BD90BD89B9D7
S11334608AB188698AB980B58E6880BD08955D9BEC
S1133470FECF8CB90895CF93DF93EC0102C00E9474
S1133480371A89918111FBCFDF91CF9108951F9253
S11334900F920FB60F9211248F939F93EF93FF9384
S11334A08CB1882331F0833219F581E08093700068
S11334B03CC080917000813091F480917100882328
S11334C071F0E0917100F0E0E059FF4F128282E068
S11334D080937000809171008F5F80937100809160
S11334E07000813021F580917100811120C01BC0D2
S11334F090917000913079F490917100943158F466
S1133500E0917100F0E0E059FF4F828380917100F7
S11335108F5F8093710080917000813041F48091BD
S113352071008A3020F01092700010927100FF91A7
S1133530EF919F918F910F900FBE0F901F90189550
S1133540DB018F939F930E94D21ABF91AF91A29FE8
S1133550800D911DA39F900DB29F900D112408958D
S1133560052E97FB16F4009407D057FD0DD00E944A
S1133570E51A07FC09D07EF49095809570956195C5
S11335807F4F8F4F9F4F08955095409530952195CB
S11335903F4F4F4F5F4F0895EE0FFF1F0590F4917B
S11335A0E02D09940E94071BA59F900DB49F900DD8
S11335B0A49F800D911D11240895B7FF0C94D21A75
S11335C00E94D21A821B930B0895A1E21A2EAA1B01
S11335D0BB1BFD010DC0AA1FBB1FEE1FFF1FA217BF
S11335E0B307E407F50720F0A21BB30BE40BF50BBC
S11335F0661F771F881F991F1A9469F76095709545
S1133600809590959B01AC01BD01CF010895A29FC7
S1133610B001B39FC001A39F01D0B29F700D811D63
S11336201124911D08951F93FC0199278827BC013B
S1133630E89411911032E9F3193010F01E30C8F3F8
S11336401B3251F01D3249F4689406C00E946E1B6F
S1133650610F711D811D911D119110531A30B0F32A
S11336603EF490958095709561957F4F8F4F9F4F55
S11336701F910895FA01CF93FF93EF93223044F101
S1133680253234F5C22FE894CA3049F497FB3EF44E
S113369090958095709561957F4F8F4F9F4F2C2FFC
S11336A0332744275527FF93EF930E94E51AEF91A0
S11336B0FF91605D6A330CF0695D6193B901CA01E1
S11336C0605070408040904051F716F4CDE2C193B1
S11336D010828F919F91CF910C94831B592F482F67
S11336E0372F262F660F771F881F991F660F771FA6
S11336F0881F991F620F731F841F951F660F771F02
S1133700881F991F0895DC01FC01672F71917723AD
S1133710E1F7329704C07C916D9370836291AE1788
S10D3720BF07C8F30895F894FFCF23
S113372A62756C6C7368697420737472696E67006D
S9030000FC
