S013000073656E736F72426F6172642E737265638F
S11300000C9448000C949F140C94BB140C9465003D
S11300100C9465000C9465000C9465000C943D14DC
S11300200C9465000C9465000C9465000C946500B8
S11300300C9465000C9465000C9465000C946500A8
S11300400C9465000C9465000C9491150C94650057
S11300500C9465000C9465000C9465000C94650088
S11300600C94C2110C94650007634236B79BD8A761
S11300701A39685618AEBAAB558C1D3CB7CC5763C9
S1130080BD6DEDFD753EF6177231BF000000803F77
S113009011241FBECFEFD4E0DEBFCDBF12E0A0E03D
S11300A0B1E0EEE8F3E302C005900D92AA31B10786
S11300B0D9F722E0AAE1B2E001C01D92A438B20748
S11300C0E1F70E94CA140C94C5190C940000909195
S11300D07C00907F90937C0090917C00982B90936F
S11300E07C0080917A00876480937A0080917A0002
S11300F086FDFCCF48E160E070E0CB0120917A00FE
S1130100206420937A0020917A0026FDFCCF209170
S1130110780030917900620F731F811D911D415049
S113012069F728E130E040E050E00E94BE18C901C0
S11301300895CF93C82F2A9883E00E9466158C2FC8
S11301400E94661580EA0E9466152A9ACF91089546
S11301501F93CF93DF931F92CDB7DEB7182F2A9842
S113016082E069830E946615812F0E946615698169
S1130170862F0E9466152A9A0F90DF91CF911F91C6
S113018008951F93CF93DF9300D0CDB7DEB7182F18
S11301902A9885E04A8369830E946615812F0E940C
S11301A066156981862F0E9466154A81842F0E94F4
S11301B066152A9A0F900F90DF91CF911F910895A1
S11301C0EF92FF920F931F93CF93DF93EC018B0178
S11301D02A9880EC0E94661529E2F22E8EE00E9495
S11301E09900807E803811F0FA94C1F72A9A8AE047
S11301F090E00E944D1547E067E08AE20E94C1004A
S113020040E960E989E20E94C10042E062E088E2DC
S11302100E94C10043E263E28BE20E94C10044E217
S113022064E680E60E94C10040E260E680E70E9446
S1130230C1007E0183E0F694E7948A95E1F76E2D80
S113024080E20E94A800C295CC0FC07E4C2F60EEC5
S113025081E20E94C1006E2D84E20E94A8004C2F0E
S113026060EE85E20E94C100E80193E0D695C7954F
S11302709A95E1F74C2F6FEF80E00E94C100029540
S1130280000F007E402F60EE81E00E94C1004C2FE1
S11302906FEF84E00E94C100402F60EE85E00E9471
S11302A0C1004C2F6FEF88E00E94C100402F60EE28
S11302B089E00E94C1004C2F6FEF80E10E94C100D1
S11302C0402F60EE81E10E94C1004C2F6FEF84E16A
S11302D00E94C100402F60EE84E10E94C1004C2FB7
S11302E06FEF88E10E94C100402F60EE88E10E9418
S11302F0C10040E06FEF8CE00E94C10040E06FEF6E
S11303008DE00E94C10040E060EE8FE00E94C100D9
S11303102A9ADF91CF911F910F91FF90EF9008954A
S1130320CF92DF92EF92FF920F931F93CF93DF93BD
S11303301F92CDB7DEB78C012A9880EA0E94661519
S11303408FEF0E94661589838FEF0E9466152A9AA3
S1130350898182FF09C0898184FF08C0898186FD63
S113036052C064E0D62E04C0D12C02C052E0D52E77
S11303702A988D2D80640E946615F80180819181F0
S113038043E0969587954A95E1F70E946615F80132
S113039080818295880F807E0E94661580E00E948D
S11303A0661580E00E946615F801C380F8E0FC152C
S11303B010F438E0C32EF8018281882329F08C2DB3
S11303C080640E94661511C08C2D0E946615E12C74
S11303D0F12C09C0F801EE0DFF1D84810E94661501
S11303E0FFEFEF1AFF0AEC14A8F32A9A00002A98E8
S11303F0D11002C081E802C08D2D80680E9466156C
S11304002A9A81E001C080E00F90DF91CF911F9183
S11304100F91FF90EF90DF90CF900895CF932A989B
S113042080EB0E9466158FEF0E946615C82F8FEF30
S11304300E9466152A9A8C2FCF910895DF92EF922D
S1130440FF920F931F93CF93DF931F92CDB7DEB725
S11304508C010E940E028983898186FF03C02A9839
S113046080E905C0898187FF4CC02A9884E90E94ED
S113047066158FEF0E94661598E0899F700111241C
S1130480F801F182E0828FEF0E94661582958695CD
S11304908770E82AF801F182E0828FEF0E946615E6
S11304A08FEF0E9466158FEF0E9466157FE0D72EAE
S11304B0D822F801D382E12CF12C0AC08FEF0E94DC
S11304C06615F801EE0DFF1D8483FFEFEF1AFF0A96
S11304D0ED14A0F32A9A898183FF04C081E0F80116
S11304E0828302C0F8011282898140E086FF02C043
S11304F061E001C062E08CE20E94C10089818770E2
S113050001C08FEF0F90DF91CF911F910F91FF905A
S1130510EF90DF900895CF93DF9300D01F92CDB773
S1130520DEB78EEE89838AEA8A83439A21E046E124
S113053062E0CE0101960E948711FC0143989081EC
S113054080E02181822B90934E0280934D02928110
S113055080E02381822B9093700280936F029481B8
S113056080E02581822B90937202809371029681A0
S113057080E02781822B90936C0280936B0290859C
S113058080E02185822B9093690280936802928592
S113059080E02385822B9093500280934F029485B0
S11305A080E02585822B909381028093800296853A
S11305B080E02785822B9093750280937402908942
S11305C080E02189822B90936E0280936D02928940
S11305D080E02389822B9093830280938202948902
S11305E080E02589822B90934802809347020F90E4
S11305F00F900F90DF91CF9108953F924F925F92A9
S11306006F927F928F929F92AF92BF92CF92DF921E
S1130610EF92FF920F931F93CF93DF93CDB7DEB783
S11306202B970FB6F894DEBF0FBECDBF5C018B01D4
S11306308EEE898384EF8A838EE28B8381E08093BC
S1130640B800439AA3E0FA2E20E040E063E0CE0134
S113065001960E94871180914402882311F0FA9434
S113066099F78EE190E00E944D158EEE898386EF16
S11306708A83F3E0DF2E21E042E062E0CE010196BE
S11306800E9487117C0181E090E00E944D158091C9
S11306904402811110C08EE190E00E944D15D701F3
S11306A08C9011969C908EEE898384EF8A838B8341
S11306B0E3E0FE2E03C0DA94F1F6EDCF20E040E053
S11306C063E0CE0101960E94871181E090E00E94D0
S11306D04D1580914402882311F0FA9479F78EE144
S11306E090E00E944D158EEE898386EF8A8373E035
S11306F0F72E21E043E062E0CE0101960E948711CB
S11307003C0181E090E00E944D15809144028111EA
S113071006C0439880914402882321F067C1FA946B
S113072041F7F7CF3FB6F894F301C080D12CE12C08
S1130730F12C7601DD24CC248281C82A918180E0C9
S1130740A0E0B0E0C82AD92AEA2AFB2AB5E0F69448
S1130750E794D794C794BA95D1F7982D80E09C017B
S1130760292940E050E080914F0290915002281BCB
S1130770390B41095109A0916802B09169020E94A4
S1130780FC182B013C018FE07594679457944794AF
S11307908A95D1F76091820270918302882777FD50
S11307A08095982F2BE0660F771F881F991F2A9535
S11307B0D1F72091470230914802442737FD4095F4
S11307C0542F240D351D461D571D0E94E018240D7D
S11307D0351D461D571DDA01C9010896A11DB11D1D
S11307E064E0B595A795979587956A95D1F7F50136
S11307F091838083DA01C901805A9F40A109B1091C
S11308008C839D83AE83BF839C01AD01BC01CD016C
S11308100E94AE184B015C017CE0B594A7949794B8
S113082087947A95D1F7E0914D02F0914E02A09110
S11308307102B09172020E9407192B013C01ADE0D4
S11308407594679457944794AA95D1F7A091800220
S1130850B0918102A50194010E940719BB2797FD5D
S1130860B095AB2F480E591E6A1E7B1E92E0490EAE
S1130870511C611C711C82E07594679457944794D1
S11308808A95D1F7A0E85A0E611C711CA0916B02E5
S1130890B0916C02A30192010E94FC18DC01CB010F
S11308A02FE0B695A795979587952A95D1F78887D0
S11308B09987AA87BB872F01662457FC6094762CFE
S11308C032E0440C551C661C771C3A95D1F7A09174
S11308D07402B0917502A50194010E9407194B019D
S11308E05C014BE0B594A794979487944A95D1F70B
S11308F0A0916F02B09170022C813D814E815F8185
S11309000E9407195BE095958795779567955A95A9
S1130910D1F7860E971EA81EB91E480C591C6A1CD6
S11309207B1C440C551C661C771CC418D508E608AF
S1130930F708AAE6B8E1A70196010E94FC1897FD02
S11309400DC0660F771F881F991F288539854A8532
S11309505B850E94BE1849015A010CC0288539855F
S11309604A855B850E94BE1849015A01880C991C6E
S1130970AA1CBB1C9927B7FC9A958B2D7A2D692D3F
S11309809B01AC010E94AE189B01AC01AEEDBBE033
S11309900E94FC186C01FF24D7FCF094EF2CA3E414
S11309A0B3EEA50194010E940A19BB2797FDB095E7
S11309B0AB2FC80ED91EEA1EFB1E9FECC90E9EE08B
S11309C0D91EE11CF11C44E0F594E794D794C79434
S11309D04A95D1F7C80CD91CEA1CFB1CD801CD924E
S11309E0DD92ED92FC9213973FBE0EC081EF98ED1D
S11309F0F5019183808381EF98EDAFEFBFEFF801AC
S1130A0080839183A283B3832B960FB6F894DEBFC1
S1130A100FBECDBFDF91CF911F910F91FF90EF904B
S1130A20DF90CF90BF90AF909F908F907F906F900A
S1130A305F904F903F900895CF92DF92EF92FF9294
S1130A400F931F93CF93DF9300D000D01F92CDB7A5
S1130A50DEB78C016B0180E18093B800429A80ED8F
S1130A60898382E28A831B8288E08C838AE28D8375
S1130A70FB01108210927E0210927D02E12CF12C77
S1130A8020E040E065E0CE0101960E9487118EE1EE
S1130A9090E00E944D1580914402811110C020E025
S1130AA044E060E0CE0101960E9487117C018091B0
S1130AB04402882379F08EE190E00E944D158091E4
S1130AC04402882339F080917D0290917E02883C13
S1130AD09105B0F2429881E08093B800809144027D
S1130AE081111EC0F701808180FF1FC08081F60143
S1130AF08083F701828190E0F80191838083808173
S1130B009181F7014181342F20E0822B932BF8014E
S1130B1091838083808191819183808381E006C069
S1130B2081EF98EDF8019183808380E00F900F901E
S1130B300F900F900F90DF91CF911F910F91FF9025
S1130B40EF90DF90CF9008954F925F926F927F92D3
S1130B50AF92BF92CF92DF92EF92FF920F931F93C7
S1130B60CF93DF931F92CDB7DEB75C018B0180E595
S1130B70898385E090E00E944D1520E040E061E02B
S1130B80EE24E394F12CEC0EFD1EC7010E948711A4
S1130B9085E090E00E944D1520E044E060E0C7014C
S1130BA00E948711FC01408146FD05C080914402EA
S1130BB0811159C008C020917D0230917E02283CE9
S1130BC0310530F3F3CF242F2F732083328140E497
S1130BD0349FC0011124938196959695982B938305
S1130BE0832F869586958283522E412C662457FC4A
S1130BF06094762C382F20E0442737FD4095542FFD
S1130C00292BA4E7B0E40E94FC186B017C0180E26C
S1130C10D80EE11CF11CBEE0F594E794D794C79478
S1130C20BA95D1F78181482AA0E1B7E2A3019201E4
S1130C300E94FC18705E8F4F9F4FE0EACE1AEFE0DF
S1130C40DE0AE108F108F501D182C0822EE0959513
S1130C508795779567952A95D1F7F8017183608315
S1130C601092260210C080914402882361F081EF23
S1130C7098EDF50191838083F801918380838091BD
S1130C8044028093260281E00F90DF91CF911F915F
S1130C900F91FF90EF90DF90CF90BF90AF907F9037
S1130CA06F905F904F9008951F93CF93DF9300D080
S1130CB000D000D0CDB7DEB780E18093B800429A6F
S1130CC08EE190E00E944D1510ED198381E48A8332
S1130CD01B828EE38C832A818B819C81820F890FF6
S1130CE08D8320E040E065E0CE0101960E948711EB
S1130CF08EE190E00E944D15198320E043E060E00E
S1130D00CE0101960E948711429821E02093B800F9
S1130D1020914402211107C020914402211105C0F1
S1130D20FC01818103C08AEF01C080E026960FB6E2
S1130D30F894DEBF0FBECDBFDF91CF911F91089510
S1130D400F931F93CF93DF9300D000D000D0CDB783
S1130D50DEB7082F80E18093B800429A8EE190E0DC
S1130D600E944D151092000010ED198381E38A83CF
S1130D701B828EE38C830D833A818B812C819D8130
S1130D80830F820F890F8E8320E040E066E0CE015E
S1130D9001960E9487118EE190E00E944D151983FF
S1130DA020E042E060E0CE0101960E948711429863
S1130DB081E08093B80080914402811104C0909135
S1130DC0440281E0911180E026960FB6F894DEBFCC
S1130DD00FBECDBFDF91CF911F910F9108950F9357
S1130DE01F93CF93DF93CDB7DEB729970FB6F8944F
S1130DF0DEBF0FBECDBF082F0E945406182F8A3FB6
S1130E0009F483C083E291E00E94851542E050E03A
S1130E10BE016F5F7F4F812F90E00E948B19CE013E
S1130E2001960E9485158AE00E947E15011106C074
S1130E3081E391E00E948515126027C0013031F4EE
S1130E4089E491E00E9485151D7F1FC0023031F4B2
S1130E5080E691E00E948515146017C0033031F4D8
S1130E6089E791E00E9485151B7F0FC0043031F49F
S1130E7080E991E00E948515186007C00530C9F427
S1130E808AEA91E00E948515177F42E050E0BE0196
S1130E906F5F7F4F812F90E00E948B19CE010196E6
S1130EA00E9485158AE00E947E15812F0E94A0066B
S1130EB00DC0063019F482EC91E011C085ED91E08B
S1130EC00E9485158AE00E947E1502C0811103C02C
S1130ED081EE91E004C0813039F486EE91E00E9405
S1130EE085158AE00E947E1583E291E00E948515B3
S1130EF00E94540642E050E0BE016F5F7F4F90E0D5
S1130F000E948B19CE01019602C08FEE91E00E94DF
S1130F1085158AE00E947E1580E029960FB6F89424
S1130F20DEBF0FBECDBFDF91CF911F910F9108950A
S1130F301F93CF93DF93CDB7DEB72C970FB6F894FA
S1130F40DEBF0FBECDBF85B111E0812785B9CE01CB
S1130F5001960E941E028F3F41F1CE0101960E942C
S1130F601E028D81813029F480937B0210927F02CE
S1130F7030C08230A9F42E818F8190E0A0E0B0E0EF
S1130F80BA2FA92F982F8827A22B2885822B8093EC
S1130F90490290934A02A0934B02B0934C0219C0A9
S1130FA08330B9F41093780214C08CE20E94990043
S1130FB085FF0FC08DE20E94990080936A02482F3A
S1130FC0682F8DE20E94C10040E260E28CE20E9440
S1130FD0C10010925A0281E02C960FB6F894DEBF3D
S1130FE00FBECDBFDF91CF911F9108951F93CF9373
S1130FF0DF93CDB7DEB72C970FB6F894DEBF0FBEE4
S1131000CDBF81E190E09A8389831B8288E08C8341
S11310108E8D9F8D9D838E8D9F8D8E838C899D89D2
S11310209F838C899D8988878E899F8999878E89DA
S11310309F898A87888D998D9B87888D998D8C87C8
S113104010E001C01F5FCE0101960E9490011A3F7B
S113105010F48823B9F382E190E09A8389831B8298
S113106087E08C838A8D9B8DAC8DBD8DBD838A8DED
S11310709B8DAC8DBD8DAE838A8D9B8DAC8DBD8DCE
S11310809F838A8D9B8DAC8DBD8D888788A1898730
S11310908A899B899A878A899B898B8710E001C0FA
S11310A01F5FCE0101960E9490011A3F10F488231D
S11310B0B9F383E190E09A8389831B8288E08C836F
S11310C089A19AA19D8389A19AA18E8389AD9AADA4
S11310D09F8389AD9AAD88878DA19EA199878DA1A3
S11310E09EA18A878FA198A59B878FA198A58C879D
S11310F010E001C01F5FCE0101960E9490011A3FCB
S113110010F48823B9F32C960FB6F894DEBF0FBE03
S1131110CDBFDF91CF911F9108951F93CF93DF939C
S1131120CDB7DEB72C970FB6F894DEBF0FBECDBF98
S113113084E190E09A8389831B8288E08C838DA963
S11311409EA99D838DA99EA98E838BA59CA59F8313
S11311508BA59CA588878DA59EA599878DA59EA501
S11311608A878FA598A99B878FA598A98C8710E05B
S113117001C01F5FCE0101960E9490011A3F10F436
S11311808823B9F385E190E09A8389831B8286E002
S11311908C8389A99AA9ABA9BCA9BD8389A99AA959
S11311A0ABA9BCA9AE8389A99AA9ABA9BCA99F8301
S11311B089A99AA9ABA9BCA9888789A59AA5998761
S11311C089A59AA58A8710E001C01F5FCE01019608
S11311D00E9490011A3F10F48823B9F386E190E04D
S11311E09A8389831B8288E08C838FA998AD9D8321
S11311F08FA998AD8E8389AD9AAD9F8389AD9AAD41
S113120088878BAD9CAD99878BAD9CAD8A878DAD5E
S11312109EAD9B878DAD9EAD8C8710E001C01F5F96
S1131220CE0101960E9490011A3F10F48823B9F36D
S11312302C960FB6F894DEBF0FBECDBFDF91CF91D1
S11312401F9108951F93CF93DF93CDB7DEB7C05896
S1131250D1090FB6F894DEBF0FBECDBF8091510205
S113126090E0A0E0B0E089839A83AB83BC83809153
S1131270520290915302A0915402B09155028D8371
S11312809E83AF83B887C657DF4F88819981CA5838
S1131290D040AA2797FDA095BA2F89879A87AB8754
S11312A0BC87C457DF4F88819981CC58D040AA2786
S11312B097FDA095BA2F8D879E87AF87B88BC257AD
S11312C0DF4F88819981AA81BB81CE58D040898B18
S11312D09A8BAB8BBC8BC857DF4F88819981C858D8
S11312E0D040AA2797FDA095BA2F8D8B9E8BAF8BEC
S11312F0B88FCC56DF4F8881C459D04090E0A0E02D
S1131300B0E0898F9A8FAB8FBC8FCA57DF4F88812B
S11313109981C658D040AA2797FDA095BA2F8D8FE2
S11313209E8FAF8FB8A3CB56DF4F88819981C55963
S1131330D040AA2797FDA095BA2F89A39AA3ABA35F
S1131340BCA3C956DF4F88819981C759D040AA27C9
S113135097FDA095BA2F8DA39EA3AFA3B8A7C75698
S1131360DF4F88819981C959D040AA2797FDA0955C
S1131370BA2F89A79AA7ABA7BCA7C556DF4F888108
S11313809981CB59D040AA2797FDA095BA2F8DA754
S11313909EA7AFA7B8ABCF55DF4F88819981C15ABB
S11313A0D040AA2797FDA095BA2F89AB9AABABABD7
S11313B0BCABCD55DF4F88819981C35AD040AA2751
S11313C097FDA095BA2F8DAB9EABAFABB8AFCB5505
S11313D0DF4F88819981AA81BB81C55AD04089AFEA
S11313E09AAFABAFBCAFC156DF4F88819981CF595B
S11313F0D040AA2797FDA095BA2F21968CAF9DAF18
S1131400AEAFBFAF2197C356DF4F88819981CD59C5
S1131410D040AA2797FDA095BA2F25968CAF9DAFF3
S1131420AEAFBFAF2597C555DF4F88819981CB5AA1
S1131430D040AA2797FDA095BA2F29968CAF9DAFCF
S1131440AEAFBFAF2997C355DF4F88819981CD5A7D
S1131450D040AA2797FDA095BA2F2D968CAF9DAFAB
S1131460AEAFBFAF2D97C155DF4F88819981CF5A59
S1131470D040AA2797FDA095BA2F61968CAF9DAF57
S1131480AEAFBFAF6197CF54DF4F88819981C15B05
S1131490D040AA2797FDA095BA2F65968CAF9DAF33
S11314A0AEAFBFAF6597C151DF4F88819981CF5EE1
S11314B0D040A0E0B0E069968CAF9DAFAEAFBFAFB7
S11314C06997CF50DF4F8881C15FD04090E0A0E0A2
S11314D0B0E06D968CAF9DAFAEAFBFAF6D9780EFB0
S11314E090EFA0EFB0E0A1968CAF9DAFAEAFBFAFD1
S11314F0A19710E010C02AE030E0AE0147585F4FDA
S11315000E944219CE0187589F4F0E9485158BE394
S11315100E947E151F5FE1E0F0E0EC0FFD1F24E068
S1131520129FE00DF11D11246081718182819381EC
S1131530603F20EF720782079105E9F68AE00E9476
S11315407E15C058DF4F0FB6F894DEBF0FBECDBF77
S1131550DF91CF911F9108952F923F924F925F9206
S11315606F927F928F929F92AF92BF92CF92DF92AF
S1131570EF92FF920F931F93CF93DF93CDB7DEB714
S113158028970FB6F894DEBF0FBECDBF98878F8320
S1131590BC01625F7F4F02960E941C058AE090E0C6
S11315A00E944D156F8178856A5F7F4F8F81988582
S11315B004960E94A4058AE090E00E944D156F8174
S11315C07885685F7F4F8F8198850C960E94FD0215
S11315D080E00E946700AF81B88511969C938E933A
S11315E014968D919C911597813F984D09F472C181
S11315F0EF81F88586819781813F984D09F46AC10E
S1131600AF81B88514966D917C911597882777FDE5
S11316108095982F0E941C1720E030E048EC52E49B
S11316200E94501669837A83582E692EEF81F885BB
S11316300681178160857185828593850E941C17B8
S113164020E030E048EC52E40E945016762E272E1B
S1131650382E492E20E030E04DE851E4B981AA81CA
S11316606B2F7A2F852D962D0E943D186B017C01DE
S11316702DE33AE043E753E4B981AA816B2F7A2F33
S1131680852D962D0E94EC159B01AC01C701B60176
S11316900E9450160E94BD166B017C0125EB3EEFA3
S11316A046E956E3672D722D832D942D0E943D1833
S11316B00E94BD164B015C0124E330E843EC50E486
S11316C0C701B6010E943D186B017C0124E437E197
S11316D040E85FE3C501B4010E943D189B01AC01E1
S11316E0C701B6010E943D186B837C838D839E8362
S11316F0B801882777FD8095982F0E941C1720E059
S113170030E048EC52E40E94501620E030E048EC0F
S113171052E40E9450169B01AC01BB81AC811D8137
S11317200E816B2F7A2F812F902F0E943D185B0121
S11317308C0123E333E948E853E4B981AA816B2F90
S11317407A2F852D962D0E94EC15662E872E982EC5
S1131750592E20E030E048EC52E4672D722D832DA1
S1131760942D0E943D186B017C01272D322D432DB1
S1131770542D6A2D7B2D802F912F0E9450162CED15
S11317803BE841EC5EE30E943D189B01AC0160E044
S113179070E080E89FE30E94EB159B01AC016DE6CD
S11317A077E88FE893E40E945016262D382D492DB2
S11317B0552D0E943D189B01AC01C701B6010E9442
S11317C0501620E030E04AE754E40E943D180E949D
S11317D0E916AF81B88550967C936E931F9728EBDA
S11317E03EE74BE154E46A2D7B2D802F912F0E941C
S11317F03D186B017C0126ED3BE841EC5EE36A2D6C
S11318007B2D802F912F0E943D189B01AC01672DE9
S1131810722D832D942D0E94EB159B01AC01C70101
S1131820B6010E94501620E030E04AE754E40E94DA
S11318303D180E94E916EF81F885728B618B20E0D8
S113184030E048EC52E46A2D7B2D802F912F0E94CA
S11318503D1820E030E048EC52E40E943D186B0152
S11318607C0122EF32EC46EE53E4662D782D892D6F
S1131870952D0E943D189B01AC01C701B6010E9441
S1131880501620E030E04AE754E40E943D180E94DC
S1131890E916AF81B88554967C936E9353972A2D9D
S11318A03B2D402F512FBB81AC81ED811E816B2FCD
S11318B07A2F8E2F912F0E94EB1520E030E048EC18
S11318C052E40E943D180E94E916EF81F885768B58
S11318D0658B14C081EF98EDAF81B88550969C93C9
S11318E08E931F9752969C938E93519754969C93E4
S11318F08E93539756969C938E9355974F81588504
S113190047595F4FFA0180819181A0E0B0E0C09017
S11319104902D0904A02E0904B02F0904C028C15A0
S11319209D05AE05BF0508F497C021EF38EDAF81E2
S1131930B88558963C932E9357975A963C932E937A
S113194059975C963C932E935B975E963C932E93AB
S11319505D9781EF98EDAFEFBFEFEF81F885878F4B
S113196090A3A1A3B2A334A323A336A325A330A792
S113197027A332A721A734A723A7DA0111961C9223
S11319801E9215A616A617A610AADF0111AA12AA5E
S113199013AA14AA15AA16AA17AA10AE11AE12AE4B
S11319A013AE14AEFD961082118212821382FD01D1
S11319B0EF5BFF4F1082118212821382FD01EB5BF9
S11319C0FF4F1082118212821382FD01E75BFF4FE9
S11319D01082118212821382FD01E35BFF4F108299
S11319E0118212821382FD01EF5AFF4F108211827D
S11319F012821382FD01EB5AFF4F11821082FD0106
S1131A00E95AFF4F11821082FD01E75AFF4F1182FC
S1131A101082FD01E55AFF4F11821082FD01E35A45
S1131A20FF4F11821082FD01E15AFF4F1182108293
S1131A30FD01EF59FF4F11821082FD01ED59FF4F57
S1131A4011821082FD01EB59FF4F11821082FD01BA
S1131A50E959FF4F11821082EF81F885E759FF4F52
S1131A60808191810196918380834F8158854B5A5F
S1131A705F4FFA0180819181019691838083EF8188
S1131A80F88585A596A5A7A5B0A90081118122276F
S1131A9017FD2095322F800F911FA21FB31F85A71A
S1131AA096A7A7A7B0AB05A516A527A530A9DA0167
S1131AB08D919C9111974D915C9197FD0196BC017C
S1131AC075956795882777FD8095982F600F711F0E
S1131AD0821F931F9A01442737FD4095542F0E947B
S1131AE0E018EF81F885308F278B82819381813FC5
S1131AF0984D09F447C04F815885495A5F4FDA0120
S1131B008D919C911197019611969C938E93EF81E0
S1131B10F88581A992A9A3A9B4A9028113812227D6
S1131B2017FD2095322F800F911FA21FB31F81AB89
S1131B3092ABA3ABB4AB01A912A923A934A9DA01CE
S1131B408D919C9111974D915C9197FD0196BC01EB
S1131B5075956795882777FD8095982F600F711F7D
S1131B60821F931F9A01442737FD4095542F0E94EA
S1131B70E018EF81F885328F218FE559FF4F80817E
S1131B808E7F06C0EF81F885E559FF4F8081816023
S1131B908083AF81B88514968D919C911597813F70
S1131BA0984D09F445C04F815885475A5F4FFA0153
S1131BB080819181019691838083EF81F88585A945
S1131BC096A9A7A9B0AD04811581222717FD2095F8
S1131BD0322F800F911FA21FB31F85AB96ABA7AB0B
S1131BE0B0AF05A916A927A930ADDA018D919C9152
S1131BF011974D915C9197FD0196BC017595679580
S1131C00882777FD8095982F600F711F821F931F7F
S1131C109A01442737FD4095542F0E94E018EF8124
S1131C20F885348F238FE559FF4F80818D7F06C05F
S1131C30EF81F885E559FF4F808182608083AF8111
S1131C40B88516968D919C911797813F984D09F40C
S1131C5045C04F815885455A5F4FFA018081918173
S1131C60019691838083EF81F88581AD92ADA3AD18
S1131C70B4AD06811781222717FD2095322F800FDE
S1131C80911FA21FB31F81AF92AFA3AFB4AF01AD39
S1131C9012AD23AD34ADDA018D919C9111974D9124
S1131CA05C9197FD0196BC0175956795882777FD32
S1131CB08095982F600F711F821F931F9A014427EC
S1131CC037FD4095542F0E94E018EF81F885368F38
S1131CD0258FE559FF4F80818B7F06C0EF81F88502
S1131CE0E559FF4F808184608083EF81F88580858A
S1131CF09185A285B385813F984DAF4FBF4F09F4BD
S1131D004DC06F817885635A7F4FDB018D919C9123
S1131D101197019611969C938E934F815885435C3D
S1131D205F4FFA0180819181A281B381EF81F885AF
S1131D300085118522853385800F911FA21FB31F53
S1131D40FA0180839183A283B3830081118122816C
S1131D503381DB018D919C9111974D915C9197FD9D
S1131D600196BC0175956795882777FD8095982F16
S1131D70600F711F821F931F9A01442737FD4095FE
S1131D80542F0E94E018EF81F885278F30A341A3D8
S1131D9052A3E559FF4F8081877F06C0EF81F88504
S1131DA0E559FF4F808188608083AF81B8851C9698
S1131DB08D919C911D97813F984D09F44BC06F8183
S1131DC07885615A7F4FFB018081918101969183CF
S1131DD080834F8158854F5B5F4FFA0180819181E9
S1131DE0A281B381EF81F88504851585222717FD2B
S1131DF02095322F800F911FA21FB31FFA018083F9
S1131E009183A283B3830081118122813381DB0119
S1131E108D919C9111974D915C9197FD0196BC0118
S1131E2075956795882777FD8095982F600F711FAA
S1131E30821F931F9A01442737FD4095542F0E9417
S1131E40E018EF81F88534A323A3E559FF4F80817F
S1131E508F7E06C0EF81F885E559FF4F8081806150
S1131E608083AF81B8851F968D919C9150975D01B9
S1131E70E5E4AE0EB11C813F984D09F444C0BD01A8
S1131E806F597F4FDB018D919C91119701961196AB
S1131E909C938E93F50180819181A281B381EF811E
S1131EA0F88507851089222717FD2095322F800F8A
S1131EB0911FA21FB31FF50180839183A283B38373
S1131EC00081118122813381DB018D919C911197D5
S1131ED04D915C9197FD0196BC0175956795882796
S1131EE077FD8095982F600F711F821F931F9A01B1
S1131EF0442737FD4095542F0E94E018EF81F88560
S1131F0036A325A316C0F50180819181A281B381F6
S1131F10EF81F88545A156A1662757FD6095762F78
S1131F20840F951FA61FB71FF50180839183A28399
S1131F30B383AF81B88551968D919C9152975D0181
S1131F40E9E4AE0EB11C813F984D09F444C0BD01D3
S1131F506D597F4FDB018D919C91119701961196DC
S1131F609C938E93F50180819181A281B381EF814D
S1131F70F88501891289222717FD2095322F800FB9
S1131F80911FA21FB31FF50180839183A283B383A2
S1131F900081118122813381DB018D919C91119704
S1131FA04D915C9197FD0196BC01759567958827C5
S1131FB077FD8095982F600F711F821F931F9A01E0
S1131FC0442737FD4095542F0E94E018EF81F8858F
S1131FD030A727A316C0F50180819181A281B38126
S1131FE0EF81F88547A150A5662757FD6095762FA8
S1131FF0840F951FA61FB71FF50180839183A283C9
S1132000B383AF81B88553968D919C9154975D01AC
S1132010EDE4AE0EB11C813F984D09F444C0BD01FE
S11320206B597F4FDB018D919C911197019611960D
S11320309C938E93F50180819181A281B381EF817C
S1132040F88503891489222717FD2095322F800FE4
S1132050911FA21FB31FF50180839183A283B383D1
S11320600081118122813381DB018D919C91119733
S11320704D915C9197FD0196BC01759567958827F4
S113208077FD8095982F600F711F821F931F9A010F
S1132090442737FD4095542F0E94E018EF81F885BE
S11320A032A721A716C0F50180819181A281B38155
S11320B0EF81F88541A552A5662757FD6095762FD7
S11320C0840F951FA61FB71FF50180839183A283F8
S11320D0B383AF81B88555968D919C9156975D01D8
S11320E0E1E5AE0EB11C813F984D09F444C0BD0139
S11320F069597F4FDB018D919C911197019611963F
S11321009C938E93F50180819181A281B381EF81AB
S1132110F88505891689222717FD2095322F800F0F
S1132120911FA21FB31FF50180839183A283B38300
S11321300081118122813381DB018D919C91119762
S11321404D915C9197FD0196BC0175956795882723
S113215077FD8095982F600F711F821F931F9A013E
S1132160442737FD4095542F0E94E018EF81F885ED
S113217034A723A716C0F50180819181A281B38180
S1132180EF81F88543A554A5662757FD6095762F02
S1132190840F951FA61FB71FF50180839183A28327
S11321A0B383EF81F885E759FF4F80819181A0E0E7
S11321B0B0E08C159D05AE05BF05D0F02DB73EB738
S11321C02C5631090FB6F8943EBF0FBE2DBFADB7E4
S11321D0BEB711968CE6EF81F88501900D928A9531
S11321E0E1F70E948D080FB6F894DEBF0FBECDBF95
S11321F081E028960FB6F894DEBF0FBECDBFDF9105
S1132200CF911F910F91FF90EF90DF90CF90BF90EF
S1132210AF909F908F907F906F905F904F903F9082
S11322202F9008951F93CF93DF93CDB7DEB72B97ED
S11322300FB6F894DEBF0FBECDBF10911C0220E094
S11322400BC02F5F822F90E0FC01E65EFD4F3281D0
S1132250FE01E80FF91F3083E22FF0E0E65EFD4F48
S113226082818111EECFCE0101960E941B19143593
S1132270C1F0153629F1113461F510E0812F0E9467
S11322807E151B8720E040E061E0CE010B960E94A2
S1132290871185E090E00E944D151F5F1F3F71F785
S11322A01CC06F3F71058105910509F0B0F46A8780
S11322B020E040E061E0CE010A960E9487110DC043
S11322C0673071058105910544F4862F0E94EF065D
S11322D004C089E092E00E94851510921A022B96A0
S11322E00FB6F894DEBF0FBECDBFDF91CF911F9123
S11322F00895E9EBF0E080818D7F808380818160A7
S1132300808381E08093B800808190E00895CF932A
S1132310DF9300D0CDB7DEB769834A839093280258
S1132320809327029093400280933F0220934502BA
S11323301092430289E0809344028A81809342028E
S113234089818093410285EA8093BC0010927702D0
S11323501092760223E009C0809176029091770270
S1132360883C910510F02093440280914402893006
S113237099F38091440289E292E00F900F90DF91EB
S1132380CF9108951F920F920FB60F9211242F939D
S11323903F938F939F93EF93FF938091B900887F2E
S11323A0883209F499C090F4803109F451C038F4AA
S11323B0882309F409C1883009F006C11CC088319A
S11323C009F474C0803209F0FFC0CFC0803409F42E
S11323D0C7C038F4803309F4C8C0883309F0F4C0A6
S11323E0BDC0803509F4C6C0883509F4DFC088341F
S11323F009F0EAC0BAC09091430280914102981357
S113240004C08091420281112DC010924302809138
S11324103F02909140029093280280932702E0911A
S11324202702F091280280818093BB0085E8809385
S1132430BC00809127029091280201969093280273
S113244080932702809143028F5F80934302C2C02E
S11324509091430280914102981316C080914202E8
S1132460882391F080913F0290914002909328023A
S113247080932702E0912702F091280280818160F5
S11324808083109243020AC01092430280913F025B
S1132490909140029093280280932702E0912702B2
S11324A0F091280280818093BB007AC0909143020E
S11324B080914102981305C080914202811101C0AC
S11324C07DC09091430280914102981331C0809164
S11324D04202882369F11AC090914302809141021B
S11324E0981730F080914202811102C084E967C0DC
S11324F0909143028091410298130AC08091420254
S1132500882331F080914502811102C085EB4BC0D4
S1132510909143028091410298130AC08091420233
S1132520882331F080914502882311F085EA3BC06D
S1132530E0912702F091280280818093BB00809172
S113254027029091280201969093280280932702F3
S1132550809143028F5F8093430222C080E823C0AE
S1132560809142028130F1F41BC080E98093BC0069
S113257082E02EC080914302E82FF0E09091BB00EE
S1132580E95DFD4F92838F5F809343022091430264
S11325908091420230E090E001972817390714F047
S11325A085E801C085EC8093BC0014C0E09143022F
S11325B0F0E08091BB00E95DFD4F828380E9809368
S11325C0BC001092440206C080E98093BC0081E004
S11325D080934402FF91EF919F918F913F912F91AE
S11325E00F900FBE0F901F901895CF93DF93EC01BF
S11325F0E0EBF0E0808182608083E1EBF0E08081B9
S113260083608083E0E7F0E08081826080838AEFEA
S11326108093B3005398E9E6F0E08081886080837A
S1132620E99A52985A9A808182608083E89A579AEC
S1132630209A87B18C6087B9439842983898399822
S1132640ECE7F0E080818064808380818F778083F1
S1132650EAE7F0E0808180688083EEE7F0E0808143
S11326608360808310925B02789483E390E00E94FD
S11326706F150E9479118FE19EE40197F1F700C074
S113268000000E9459158FEC97E00197F1F700C004
S1132690000060E170E08FEF97E00E94E00010928C
S11326A04E0210924D021092700210926F0210921C
S11326B072021092710210926C0210926B021092CC
S11326C06902109268021092500210924F02109206
S11326D0810210928002109275021092740210927C
S11326E06E0210926D021092830210928202109276
S11326F048021092470281EF98ED9D878C879B8357
S11327008A839F838E839D838C831E86998388838B
S113271041EF58ED6FEF7FEF488759876A877B87D2
S1132720988B8F879A8B898B9C8B8B8B9E8B8D8BB5
S1132730188E1F8A1A8E198E1C8E1B8E1E8E1D8E4D
S11327401F8E18A219A21AA21CA21BA21EA21DA2AD
S113275018A61FA21AA619A61CA61BA61DA61EA66D
S11327601FA618AA19AA1AAA1BAA1CAA1DAA1EAA3D
S11327701FAA18AE19AE1AAE1BAE1CAEFE01FD9612
S11327801082118212821382FE01EF5BFF4F1082CE
S1132790118212821382FE01EB5BFF4F10821182C1
S11327A012821382FE01E75BFF4F108211821282B4
S11327B01382FE01E35BFF4F1082118212821382A7
S11327C0FE01EF5AFF4F1082118212821382FE0122
S11327D0EB5AFF4F11821082FE01E95AFF4F11821A
S11327E01082FE01E75AFF4F11821082FE01E55A62
S11327F0FF4F11821082FE01E35AFF4F11821082B3
S1132800FE01E15AFF4F11821082FE01EF59FF4F82
S113281011821082FE01ED59FF4F11821082FE01D8
S1132820EB59FF4F11821082FE01E959FF4F1182CB
S11328301082FE01E759FF4F11821082C559DF4F04
S1132840188210927C0210925A0281E080937F02D7
S113285010927B028AE090E0A0E0B0E0809349020D
S113286090934A02A0934B02B0934C0210927802C8
S113287010926A02DF91CF9108951F920F920FB6C2
S11328800F9211242F938F939F93AF93BF938091B3
S1132890790290917A02019690937A028093790258
S11328A08091790290917A02853E9340D0F0109203
S11328B07A021092790281E080937302809152022D
S11328C090915302A0915402B09155020196A11D1A
S11328D0B11D8093520290935302A0935402B0937B
S11328E0550280915B02882329F080915B0281501C
S11328F080935B0280917602909177020196909387
S113290077028093760280917D0290917E020196F7
S113291090937E0280937D0280915C0290915D028F
S1132920019690935D0280935C02BF91AF919F9159
S11329308F912F910F900FBE0F901F9018951F929B
S11329400F920FB60F9211248F939F9380915B0285
S1132950811109C088EC80935B0280917F0291E031
S1132960892780937F02E09A9F918F910F900FBEE9
S11329700F901F9018951F920F920FB60F9211246B
S11329808F9381E080935A028F910F900FBE0F9026
S11329901F901895CF93DF93CDB7DEB7CC56D109EE
S11329A00FB6F894DEBF0FBECDBFCE0101960E94D4
S11329B0F51284E190E00E944D1512E30E948B020F
S11329C08AE090E00E944D1580914D0290914E0254
S11329D0892B11F4115091F71CE601E080915A0201
S11329E0882321F0CE0101960E94980780917B02F2
S11329F0882309F43FC0CE0101960E94AC0A8DB72A
S1132A009EB78C5691090FB6F8949EBF0FBE8DBF2A
S1132A10ADB7BEB71196FE013196812F01900D928C
S1132A208A95E1F70E94F6078DB79EB784599F4FA8
S1132A300FB6F894DEBF0FBECDBF8C5691090FB60A
S1132A40F8949EBF0FBE8DBFADB7BEB71196FE0101
S1132A503196812F01900D928A95E1F70E94220907
S1132A6010927B028BB180588BB90FB6F894DEBFFD
S1132A700FBECDBF80917302882309F4AFCF80913C
S1132A801A02823011F40E94121180917F02811186
S1132A9000937B0210927302A1CF10925D021092F8
S1132AA05C0220915C0230915D0228173907C8F35B
S1132AB00895229A2A9A84B1886284B985B1877C60
S1132AC085B980E58CBD81E08DBD08950DB407FC0A
S1132AD0FDCF8EBD0DB407FEFDCF8EB50895909346
S1132AE0C5008093C400E1ECF0E0808188698083B4
S1132AF0E2ECF0E080818E60808308959091C000C4
S1132B0095FFFCCF8093C6000895CF93DF93EC012B
S1132B1002C00E947E1589918111FBCFDF91CF9174
S1132B2008951F920F920FB60F9211248F939F93C3
S1132B30EF93FF938091C600882331F0833219F517
S1132B4081E080931A023CC080911A02813091F492
S1132B5080911B02882371F0E0911B02F0E0E65E95
S1132B60FD4F128282E080931A0280911B028F5FD4
S1132B7080931B0280911A02813021F580911B02FF
S1132B80811120C01BC090911A02913079F4909168
S1132B901B029A3058F4E0911B02F0E0E65EFD4F10
S1132BA0828380911B028F5F80931B0280911A02A3
S1132BB0813041F480911B028A3020F010921A0275
S1132BC010921B02FF91EF919F918F910F900FBE76
S1132BD00F901F9018955058BB27AA270ED0A3C159
S1132BE094D130F099D120F031F49F3F11F41EF4C8
S1132BF064C10EF4E095E7FB5AC1E92FA5D180F337
S1132C00BA17620773078407950718F071F49EF5E5
S1132C10BDC10EF4E0950B2EBA2FA02D0B01B90106
S1132C2090010C01CA01A0011124FF27591B99F03E
S1132C30593F50F4503E68F11A16F040A22F232F4A
S1132C40342F4427585FF3CF469537952795A7959A
S1132C50F0405395C9F77EF41F16BA0B620B730B41
S1132C60840BBAF09150A1F0FF0FBB1F661F771FB2
S1132C70881FC2F70EC0BA0F621F731F841F48F467
S1132C80879577956795B795F7959E3F08F0B3CFED
S1132C909395880F08F09927EE0F979587950895D7
S1132CA00CD041C139D140F030D130F021F45F3F34
S1132CB019F0FDC051116BC100C146D198F399239D
S1132CC0C9F35523B1F3951B550BBB27AA276217EC
S1132CD07307840738F09F5F5F4F220F331F441F31
S1132CE0AA1FA9F333D00E2E3AF0E0E830D0915069
S1132CF05040E695001CCAF729D0FE2F27D0660F56
S1132D00771F881FBB1F261737074807AB07B0E894
S1132D1009F0BB0B802DBF01FF2793585F4F2AF0AA
S1132D209E3F510568F0C3C032C15F3FECF3983E4B
S1132D30DCF3869577956795B795F7959F5FC9F707
S1132D40880F911D9695879597F90895E1E0660F90
S1132D50771F881FBB1F621773078407BA0720F009
S1132D60621B730B840BBA0BEE1F88F7E095089572
S1132D7019F40EF09CC00AC1A0C0EED0C8F3963876
S1132D80C0F707F80F92E8942BE33AEA48EB5FE7C1
S1132D9082D10F920F920F924DB75EB70F923AD134
S1132DA0E8E6F0E08DD04F915F91EF91FF91E595CA
S1132DB0EE1FFF1F49F0FE57E0684427EE0F441F43
S1132DC0FA95E1F74195550BF1D00F9007FEE5C058
S1132DD0089504D06894B111DAC00895BDD088F084
S1132DE09F5790F0B92F9927B751A0F0D1F0660FF3
S1132DF0771F881F991F1AF0BA95C9F712C0B1300E
S1132E0081F0C4D0B1E00895C1C0672F782F88271E
S1132E10B85F39F0B93FCCF3869577956795B3954C
S1132E20D9F73EF490958095709561957F4F8F4FBB
S1132E309F4F0895E89409C097FB3EF490958095C0
S1132E40709561957F4F8F4F9F4F9923A9F0F92F6C
S1132E5096E9BB279395F695879577956795B795EA
S1132E60F111F8CFFAF4BB0F11F460FF1BC06F5FD0
S1132E707F4F8F4F9F4F16C0882311F096E911C0E2
S1132E80772321F09EE8872F762F05C0662371F003
S1132E9096E8862F70E060E02AF09A95660F771F17
S1132EA0881FDAF7880F9695879597F9089597F90B
S1132EB09F6780E870E060E008959FEF80EC0895DC
S1132EC0DF93CF931F930F93FF92EF92DF927B01D7
S1132ED08C01689405C0DA2EEF01DBD0FE01E89482
S1132EE0A5912591359145915591AEF3EF0185DE7C
S1132EF0FE019701A801DA9479F7DF90EF90FF9033
S1132F000F911F91CF91DF91089500240A94161612
S1132F10170618060906089500240A9412161306C3
S1132F20140605060895092E0394000C11F4882351
S1132F3052F0BB0F40F4BF2B11F460FF04C06F5F6D
S1132F407F4F8F4F9F4F089557FD9058440F551F43
S1132F5059F05F3F71F04795880F97FB991F61F017
S1132F609F3F79F087950895121613061406551F8E
S1132F70F2CF4695F1DF08C0161617061806991FFA
S1132F80F1CF86957105610508940895E894BB27EF
S1132F9066277727CB0197F908959B01AC0160E080
S1132FA070E080E89FE37CCE82CFCAC0D5DFE8F32F
S1132FB09923D9F3940F511DBBF39150504094F0D1
S1132FC059F0882332F0660F771F881F91505040C4
S1132FD0C1F79E3F510544F7880F911D969587953B
S1132FE097F908955F3FACF0983E9CF0BB27869517
S1132FF077956795B79508F4B1609395C1F7BB0FC2
S113300058F711F460FFE8CF6F5F7F4F8F4F9F4FEA
S1133010E3CFBDCFFA01DC01AA0FBB1F9B01AC01BA
S1133020BF5728F422273327442750781FC0B751AD
S113303088F4AB2F0024469537952795011CA3955A
S1133040D2F3002069F0220F331F441FB395DAF343
S11330500DD0C1CD61307105A0E88A07B94630F4BE
S11330609B01AC016627772788279078309621F05A
S1133070208331834283538308950BD054CF45DF9B
S113308028F04ADF18F0952309F011CF16CF112448
S11330907ECF5ADFA0F3959FD1F3950F50E0551FD3
S11330A0629FF001729FBB27F00DB11D639FAA2799
S11330B0F00DB11DAA1F649F6627B00DA11D661FE8
S11330C0829F2227B00DA11D621F739FB00DA11D09
S11330D0621F839FA00D611D221F749F3327A00DC3
S11330E0611D231F849F600D211D822F762F6A2F5F
S11330F011249F5750408AF0E1F088234AF0EE0FE4
S1133100FF1FBB1F661F771F881F91505040A9F7F0
S11331109E3F510570F0CBCE3ACF5F3FECF3983E23
S1133120DCF3869577956795B795F795E7959F5F57
S1133130C1F7FE2B880F911D9695879597F90895F1
S11331409F3F31F0915020F4879577956795B79517
S1133150880F911D9695879597F90895DB018F93B4
S11331609F930E94FC18BF91AF91A29F800D911D67
S1133170A39F900DB29F900D11240895A1E21A2EE1
S1133180AA1BBB1BFD010DC0AA1FBB1FEE1FFF1F07
S1133190A217B307E407F50720F0A21BB30BE40B57
S11331A0F50B661F771F881F991F1A9469F760959E
S11331B07095809590959B01AC01BD01CF01089558
S11331C0052E97FB16F4009407D057FD0DD00E94EE
S11331D0BE1807FC09D07EF4909580957095619592
S11331E07F4F8F4F9F4F089550954095309521956F
S11331F03F4F4F4F5F4F08950E940F19A59F900DA9
S1133200B49F900DA49F800D911D11240895B7FFC4
S11332100C94FC180E94FC18821B930B0895A29F27
S1133220B001B39FC001A39F01D0B29F700D811D57
S11332301124911D08951F93FC0199278827BC012F
S1133240E89411911032E9F3193010F01E30C8F3EC
S11332501B3251F01D3249F4689406C00E9476195D
S1133260610F711D811D911D119110531A30B0F31E
S11332703EF490958095709561957F4F8F4F9F4F49
S11332801F910895FA01CF93FF93EF93223044F1F5
S1133290253234F5C22FE894CA3049F497FB3EF442
S11332A090958095709561957F4F8F4F9F4F2C2FF0
S11332B0332744275527FF93EF930E94BE18EF91BD
S11332C0FF91605D6A330CF0695D6193B901CA01D5
S11332D0605070408040904051F716F4CDE2C193A5
S11332E010828F919F91CF910C94A119592F482F3F
S11332F0372F262F660F771F881F991F660F771F9A
S1133300881F991F620F731F841F951F660F771FF5
S1133310881F991F0895FB019F01423074F04532C4
S113332064F4642F77270E94B119805D8A330CF00E
S1133330895D8193CB010097A1F71082C9010C9498
S1133340A119DC01FC01672F71917723E1F7329712
S113335004C07C916D9370836291AE17BF07C8F36C
S11333600895AA1BBB1B51E107C0AA1FBB1FA617C8
S1133370B70710F0A61BB70B881F991F5A95A9F71A
S111338080959095BC01CD010895F894FFCF7F
S113338E72656164206164726573732E2E007265BA
S113339E6164206164726573732066696E69736813
S11333AE65640041637475616C206D436F6E3A20E1
S11333BE0077696C6C2064697361626C65204142AC
S11333CE4320776974683A200077696C6C20656EC7
S11333DE61626C652041424320776974683A20002B
S11333EE77696C6C2064697361626C652046524126
S11333FE432077697468203A0077696C6C20656E97
S113340E61626C65204652414320776974683A00C4
S113341E77696C6C2064697361626C6520644652D2
S113342E41432077697468203A0077696C6C206593
S113343E6E61626C652064465241432077697468FC
S113344E3A00526561642072657175657374206FFC
S113345E6E6C792E0077726F6E67205461736B2ECB
S113346E006661696C007772697474656E21004937
S113347E3243206661696C207768696C65207265D9
S113348E6164206D436F6E2E0062756C6C73686997
S10D349E7420737472696E670000F5
S9030000FC
