S017000073656E736F72426F6172645F365F312E7372656366
S11300000C9448000C94D1140C94ED140C946500D9
S11300100C9465000C9465000C9465000C946F14AA
S11300200C9465000C9465000C9465000C946500B8
S11300300C9465000C9465000C9465000C946500A8
S11300400C9465000C9465000C94C2150C94650026
S11300500C9465000C9465000C9465000C94650088
S11300600C9416120C94650007634236B79BD8A70C
S11300701A39685618AEBAAB558C1D3CB7CC5763C9
S1130080BD6DEDFD753EF6177231BF000000803F77
S113009011241FBECFEFD4E0DEBFCDBF12E0A0E03D
S11300A0B1E0EAE3F4E302C005900D92AA31B1078E
S11300B0D9F722E0AAE1B2E001C01D92A438B20748
S11300C0E1F70E94FC140C941B1A0C94000090910C
S11300D07C00907F90937C0090917C00892B80938E
S11300E07C0080917A00876480937A0080917A0002
S11300F086FDFCCF28E160E070E0CB0130917A000E
S1130100306430937A0030917A0036FDFCCF409110
S1130110780050917900640F751F811D911D215045
S113012069F728E130E040E050E00E942119C9015C
S11301300895CF93C82F2A9883E00E9497158C2F97
S11301400E94971580EA0E9497152A9ACF910895E4
S1130150CF93DF93D82FC62F2A9882E00E94971559
S11301608D2F0E9497158C2F0E9497152A9ADF9144
S1130170CF9108951F93CF93DF93182FD62FC42FB9
S11301802A9885E00E949715812F0E9497158D2F3C
S11301900E9497158C2F0E9497152A9ADF91CF9170
S11301A01F910895EF92FF920F931F93CF93DF93C4
S11301B08C01EB012A9880EC0E94971529E2F22E1B
S11301C08EE00E949900807E803819F0FA94F11034
S11301D0F7CF2A9A8AE090E00E947E1547E067E014
S11301E08AE20E94BA0040E960E989E20E94BA000A
S11301F042E062E088E20E94BA0043E263E28BE2FA
S11302000E94BA0044E264E680E60E94BA0040E23A
S113021060E680E70E94BA00780183E0F694E794F0
S11302208A95E1F76E2D80E20E94A8000295000FE6
S1130230007E402F60EE81E20E94BA006E2D84E2BF
S11302400E94A800402F60EE85E20E94BA008E0151
S113025093E0169507959A95E1F7402F6FEF80E0AC
S11302600E94BA00C295CC0FC07E4C2F60EE81E094
S11302700E94BA00402F6FEF84E00E94BA004C2F16
S113028060EE85E00E94BA00402F6FEF88E00E9484
S1130290BA004C2F60EE89E00E94BA00402F6FEF45
S11302A080E10E94BA004C2F60EE81E10E94BA0006
S11302B0402F6FEF84E10E94BA004C2F60EE84E17E
S11302C00E94BA00402F6FEF88E10E94BA004C2FC1
S11302D060EE88E10E94BA0040E06FEF8CE00E947B
S11302E0BA0040E06FEF8DE00E94BA0040E060EE9B
S11302F08FE00E94BA002A9ADF91CF911F910F914B
S1130300FF90EF900895DF92EF92FF920F931F9367
S1130310CF93DF931F92CDB7DEB78C012A9880EA82
S11303200E9497158FEF0E94971589838FEF0E9483
S113033097152A9A898182FF09C0898184FF08C0A0
S1130340898186FD50C044E0F42E04C0F12C02C023
S113035032E0F32E2A988F2D80640E949715F801BD
S11303608081918123E0969587952A95E1F70E94F3
S11303709715F80180818295880F807E0E949715D9
S113038080E00E94971580E00E949715F801E380B1
S1130390F8E0FE1510F488E0E82EF8018281882345
S11303A029F08E2D80640E9497150FC08E2D0E9417
S11303B097150C5F1F4FD12CDE1439F0F801819191
S11303C08F010E949715D394F7CF2A9A00002A9898
S11303D0F11002C081E802C08F2D80680E94971539
S11303E02A9A81E001C080E00F90DF91CF911F91A4
S11303F00F91FF90EF90DF900895CF932A9880EBB0
S11304000E9497158FEF0E949715C82F8FEF0E94B7
S113041097152A9A8C2FCF910895CF92DF92EF925D
S1130420FF920F931F93CF93DF931F92CDB7DEB745
S11304308C010E94FD018983898186FF03C02A986B
S113044080E905C0898187FF4EC02A9884E90E940B
S113045097158FEF0E94971528E0829FC001112401
S1130460F801918380838FEF0E949715282F22959E
S113047026952770F80180819181822B9183808356
S11304808FEF0E9497158FEF0E9497158FEF0E94B0
S113049097158F70E82EF80183836801F4E0CF0E7E
S11304A0D11CF12CFE1441F08FEF0E949715F60138
S11304B081936F01F394F6CF2A9A898183FF04C054
S11304C081E0F801828302C0F8011282898140E050
S11304D086FF02C061E001C062E08CE20E94BA00C3
S11304E08981877001C08FEF0F90DF91CF911F91A9
S11304F00F91FF90EF90DF90CF900895CF93DF930B
S113050000D01F92CDB7DEB78EEE89838AEA8A8344
S1130510439A21E046E162E0CE0101960E94DB119C
S1130520FC0143988081918198278927982790938B
S11305304E0280934D0282819381982789279827C0
S11305409093700280936F02848195819827892704
S113055098279093720280937102868197819827DD
S11305608927982790936C0280936B0280859185EC
S11305709827892798279093690280936802828537
S113058093859827892798279093500280934F0248
S1130590848595859827892798279093810280934D
S11305A080028685978598278927982790937502D6
S11305B0809374028089918998278927982790933A
S11305C06E0280936D0282899389982789279827E0
S11305D0909383028093820284899589982789273E
S11305E0982790934802809347020F900F900F90A2
S11305F0DF91CF9108953F924F925F926F927F92D5
S11306008F929F92AF92BF92CF92DF92EF92FF921E
S11306100F931F93CF93DF93CDB7DEB72B970FB60E
S1130620F894DEBF0FBECDBF5C018B018EEE8983D3
S113063084EF8A838EE28B8381E08093B800439AAF
S113064093E0F92E20E040E063E0CE0101960E94A1
S1130650DB1180914402882319F0FA94F110F2CF4F
S11306608EE190E00E947E158EEE898386EF8A8368
S113067083E0F82E21E042E062E0CE0101960E9480
S1130680DB116C0181E090E00E947E1580914402B0
S1130690811114C08EE190E00E947E15D6014D9028
S11306A05C90542445245424612C712C8EEE89834F
S11306B084EF8A838B83B3E0FB2E07C0FA94F11096
S11306C0D9CFE8CFFA94FF2079F020E040E063E04E
S11306D0CE0101960E94DB1181E090E00E947E151C
S11306E0809144028111EECF8EE190E00E947E154C
S11306F08EEE898386EF8A83A3E0DA2E21E043E03D
S113070062E0CE0101960E94DB117C0181E090E061
S11307100E947E1580914402811106C04398809105
S11307204402882329F071C1DA94D110E7CFF6CFBF
S11307303FB6F894F7012081822F90E0A0E0B0E06A
S1130740BC01552744278281482B818190E0982F52
S11307508827A0E0B0E06A017B01C82AD92AEA2AE6
S1130760FB2AA701960165E056954795379527958D
S11307706A95D1F72C833D834E835F8380914F022A
S113078090915002A3019201281B390B4109510990
S1130790A0916802B09169020E9462192B013C0188
S11307A07FE075946794579447947A95D1F7609154
S11307B0820270918302CB01770FAA0BBB0BBC01A1
S11307C0CD01EBE0660F771F881F991FEA95D1F7DB
S11307D020914702309148026901330FEE08FF0867
S11307E0A7019601240D351D461D571D0E9443196E
S11307F0420E531E641E751ED301C2010896A11D2C
S1130800B11DF4E0B595A79597958795FA95D1F71D
S1130810F5019183808353014201F0EA8F1AFFE0CE
S11308209F0AA108B108A5019401C501B4010E9461
S113083011196B017C01ACE0F594E794D794C7944B
S1130840AA95D1F7E0914D02F0914E02A091710268
S1130850B09172020E946D192B013C01BDE07594A8
S1130860679457944794BA95D1F7A0918002B091B8
S11308708102A70196010E946D19BB2797FDB095CF
S1130880AB2F840D951DA61DB71D0296A11DB11D8C
S113089032E0B595A795979587953A95D1F79C0140
S11308A0AD0130584F4F5F4FA0916B02B0916C0275
S11308B00E9462192B013C014FE07694679457948F
S11308C047944A95D1F7A0917402B0917502A7019B
S11308D096010E946D199B01AC016BE055954795FB
S11308E0379527956A95D1F7288739874A875B8793
S11308F0A0916F02B0917002A50194010E946D193C
S1130900DC01CB017BE0B595A795979587957A9502
S1130910D1F7288539854A855B85820F931FA41FEB
S1130920B51FAF01FF0F660B770BE2E0440F551FB5
S1130930661F771FEA95D1F7840F951FA61FB71F6F
S1130940880F991FAA1FBB1F2C813D814E815F8197
S1130950281B390B4A0B5B0BAAE6B8E10E9462190B
S113096097FD0BC0660F771F881F991FA301920183
S11309700E94211949015A010AC0A30192010E944F
S1130980211949015A01880C991CAA1CBB1C9927DE
S1130990B7FC9A958B2D7A2D692D9B01AC010E9491
S11309A011199B01AC01AEEDBBE00E9462196B0111
S11309B07C01A3E4B3EEA50194010E947019BB2746
S11309C097FDB095AB2F6701FF24D7FCF094EF2C73
S11309D0C80ED91EEA1EFB1E3FECC30E3EE0D31E1A
S11309E0E11CF11C44E0F594E794D794C7944A952C
S11309F0D1F7C80CD91CEA1CFB1CD801CD92DD929E
S1130A00ED92FC9213973FBE0EC081EF98EDF50175
S1130A109183808381EF98EDAFEFBFEFF80180837E
S1130A209183A283B3832B960FB6F894DEBF0FBED7
S1130A30CDBFDF91CF911F910F91FF90EF90DF9089
S1130A40CF90BF90AF909F908F907F906F905F906A
S1130A504F903F900895CF92DF92EF92FF920F93C1
S1130A601F93CF93DF9300D000D01F92CDB7DEB792
S1130A708C016B0180E18093B800429A80ED8983F8
S1130A8082E28A831B8288E08C838AE28D83FB0165
S1130A90108210927E0210927D02E12CF12C20E053
S1130AA040E065E0CE0101960E94DB118EE190E00A
S1130AB00E947E1580914402811110C020E044E020
S1130AC060E0CE0101960E94DB117C01809144021A
S1130AD0882379F08EE190E00E947E158091440293
S1130AE0882339F080917D0290917E02883C9105A3
S1130AF0B0F2429881E08093B80080914402811161
S1130B001DC0F7019081892F817090FF1DC08081E5
S1130B10F6018083F701828190E0F801918380835C
S1130B20F7012181F80180819181922B9183808347
S1130B30808191819183808381E006C081EF98ED6B
S1130B40F8019183808380E00F900F900F900F90B5
S1130B500F90DF91CF911F910F91FF90EF90DF9055
S1130B60CF9008954F925F926F927F92AF92BF920F
S1130B70CF92DF92EF92FF920F931F93CF93DF9365
S1130B801F92CDB7DEB75C018B0180E5898385E0D8
S1130B9090E00E947E1520E040E061E0CE010196E5
S1130BA00E94DB1185E090E00E947E1520E044E085
S1130BB060E0CE0101960E94DB11FC01908196FD5C
S1130BC05BC080914402811160C09F739083228135
S1130BD063816695669580E4289FA0011124642BA7
S1130BE06383822F869586958283C92ED12CDC2C33
S1130BF0CC240D2C000CEE08FF08282F30E0322FF7
S1130C002227C901330FAA0BBB0B9C01AD01262B74
S1130C10A4E7B0E40E9462192B013C0120E2520EC9
S1130C20611C711C5EE075946794579447945A95BF
S1130C30D1F78181A7019601282BA0E1B7E20E9498
S1130C406219DC01CB01905EAF4FBF4FE0EA4E1A50
S1130C50EFE05E0A61087108F501518240826EE09E
S1130C60B595A795979587956A95D1F7F8019183DE
S1130C7080831092260219C020917D0230917E0259
S1130C80283C310508F48ECF9CCF80914402882300
S1130C9061F081EF98EDF50191838083F8019183F0
S1130CA08083809144028093260281E00F90DF913B
S1130CB0CF911F910F91FF90EF90DF90CF90BF9055
S1130CC0AF907F906F905F904F9008951F93CF9354
S1130CD0DF9300D000D000D0CDB7DEB780E18093A1
S1130CE0B800429A8EE190E00E947E1510ED1983BF
S1130CF081E48A831B828EE38C832A818B819C818D
S1130D00820F890F8D8320E040E065E0CE010196DB
S1130D100E94DB118EE190E00E947E15198320E091
S1130D2043E060E0CE0101960E94DB11FC01429891
S1130D3081E08093B80080914402811106C09091B3
S1130D404402911103C0818101C08AEF26960FB637
S1130D50F894DEBF0FBECDBFDF91CF911F910895F0
S1130D600F931F93CF93DF9300D000D000D0CDB763
S1130D70DEB7082F80E18093B800429A8EE190E0BC
S1130D800E947E151092000010ED198381E38A837E
S1130D901B828EE38C830D833A818B812C819D8110
S1130DA0830F820F890F8E8320E040E066E0CE013E
S1130DB001960E94DB118EE190E00E947E1519835A
S1130DC020E042E060E0CE0101960E94DB114298EF
S1130DD081E08093B80080914402811104C0909115
S1130DE0440281E0911180E026960FB6F894DEBFAC
S1130DF00FBECDBFDF91CF911F910F9108950F9337
S1130E001F93CF93DF93CDB7DEB729970FB6F8942E
S1130E10DEBF0FBECDBF082F0E946606182F8A3F83
S1130E2009F47FC083E291E00E94B61542E0BE015E
S1130E306F5F7F4F812F90E00E94F119CE010196E0
S1130E400E94B6158AE00E94AF15011106C081E325
S1130E5091E00E94B615126027C0013031F489E494
S1130E6091E00E94B6151D7F1FC0023031F480E668
S1130E7091E00E94B615146017C0033031F489E77D
S1130E8091E00E94B6151B7F0FC0043031F480E955
S1130E9091E00E94B615186007C00530D1F48AEAC3
S1130EA091E00E94B615177F42E0BE016F5F7F4F4D
S1130EB0812F90E00E94F119CE0101960E94B6158F
S1130EC08AE00E94AF15812F0E94B006811110C0E4
S1130ED00CC0063019F482EC91E00EC085ED91E06F
S1130EE00E94B6158AE00E94AF1581EE91E004C01D
S1130EF0813039F486EE91E00E94B6158AE00E94B2
S1130F00AF1583E291E00E94B6150E94660642E0A6
S1130F10BE016F5F7F4F90E00E94F119CE010196F0
S1130F2002C08FEE91E00E94B6158AE00E94AF15D0
S1130F3080E029960FB6F894DEBF0FBECDBFDF91D7
S1130F40CF911F910F9108951F93CF93DF93CDB746
S1130F50DEB72C970FB6F894DEBF0FBECDBF85B1B8
S1130F6011E0812785B9CE0101960E940D028F3FC1
S1130F7041F1CE0101960E940D028D81813029F448
S1130F8080937B0210927F0230C08230A9F42E81BC
S1130F908F8190E0A0E0B0E0BA2FA92F982F882786
S1130FA0A22B2885822B8093490290934A02A09316
S1130FB04B02B0934C0219C08330B9F410937802F9
S1130FC014C08CE20E94990085FF0FC08DE20E943C
S1130FD0990080936A02482F682F8DE20E94BA001C
S1130FE040E260E28CE20E94BA0010925A0281E070
S1130FF02C960FB6F894DEBF0FBECDBFDF91CF9114
S11310001F9108951F93CF93DF93CDB7DEB72C972D
S11310100FB6F894DEBF0FBECDBF81E190E09A8396
S113102089831B8288E08C838E8D9F8D9D838E8D1A
S11310309F8D8E838C899D899F838C899D898887C8
S11310408E899F8999878E899F898A87888D998DB2
S11310509B87888D998D8C8710E0CE0101960E9424
S11310608301811104C01A3F10F41F5FF6CF82E19F
S113107090E09A8389831B8287E08C838A8D9B8D81
S1131080AC8DBD8DBD838A8D9B8DAC8DBD8DAE83A6
S11310908A8D9B8DAC8DBD8D9F838A8D9B8DAC8DF0
S11310A0BD8D888788A189878A899B899A878A893F
S11310B09B898B8710E0CE0101960E9483018111E8
S11310C004C01A3F10F41F5FF6CF83E190E09A83C7
S11310D089831B8288E08C8389A19AA19D8389A13D
S11310E09AA18E8389AD9AAD9F8389AD9AAD888785
S11310F08DA19EA199878DA19EA18A878FA198A574
S11311009B878FA198A58C8710E0CE0101960E9441
S11311108301811104C01A3F10F41F5FF6CF2C968F
S11311200FB6F894DEBF0FBECDBFDF91CF911F91F4
S113113008951F93CF93DF93CDB7DEB72C970FB6E7
S1131140F894DEBF0FBECDBF84E190E09A8389831B
S11311501B8288E08C838DA99EA99D838DA99EA95D
S11311608E838BA59CA59F838BA59CA588878DA525
S11311709EA599878DA59EA58A878FA598A99B87EB
S11311808FA598A98C8710E0CE0101960E94830157
S1131190811104C01A3F10F41F5FF6CF85E190E07F
S11311A09A8389831B8286E08C8389A99AA9ABA937
S11311B0BCA9BD8389A99AA9ABA9BCA9AE8389A9F5
S11311C09AA9ABA9BCA99F8389A99AA9ABA9BCA9CF
S11311D0888789A59AA5998789A59AA58A8710E001
S11311E0CE0101960E948301811104C01A3F10F4BC
S11311F01F5FF6CF86E190E09A8389831B8288E0A3
S11312008C838FA998AD9D838FA998AD8E8389AD6A
S11312109AAD9F8389AD9AAD88878BAD9CAD998734
S11312208BAD9CAD8A878DAD9EAD9B878DAD9EADFC
S11312308C8710E0CE0101960E948301811104C0C5
S11312401A3F10F41F5FF6CF2C960FB6F894DEBF4A
S11312500FBECDBFDF91CF911F9108951F93CF9300
S1131260DF93CDB7DEB7C058D1090FB6F894DEBF0F
S11312700FBECDBF8091510290E0A0E0B0E0898321
S11312809A83AB83BC838091520290915302A091C4
S11312905402B09155028D839E83AF83B887C6579D
S11312A0DF4F88819981CA58D040092E000CAA0BBF
S11312B0BB0B89879A87AB87BC87C457DF4F88816C
S11312C09981CC58D040092E000CAA0BBB0B8D87FA
S11312D09E87AF87B88BC257DF4F88819981AA81D7
S11312E0BB81CE58D040898B9A8BAB8BBC8BC857B3
S11312F0DF4F88819981C858D040092E000CAA0B71
S1131300BB0B8D8B9E8BAF8BB88FCC56DF4F8881F8
S1131310C459D04090E0A0E0B0E0898F9A8FAB8FA1
S1131320BC8FCA57DF4F88819981C658D040092E97
S1131330000CAA0BBB0B8D8F9E8FAF8FB8A3CB561F
S1131340DF4F88819981C559D040092E000CAA0B22
S1131350BB0B89A39AA3ABA3BCA3C956DF4F888157
S11313609981C759D040092E000CAA0BBB0B8DA341
S11313709EA3AFA3B8A7C756DF4F88819981C959E7
S1131380D040092E000CAA0BBB0B89A79AA7ABA7C8
S1131390BCA7C556DF4F88819981CB59D040092E0F
S11313A0000CAA0BBB0B8DA79EA7AFA7B8ABCF555C
S11313B0DF4F88819981C15AD040092E000CAA0BB5
S11313C0BB0B89AB9AABABABBCABCD55DF4F8881C4
S11313D09981C35AD040092E000CAA0BBB0B8DABCC
S11313E09EABAFABB8AFCB55DF4F88819981AA8153
S11313F0BB81C55AD04089AF9AAFABAFBCAFC15621
S1131400DF4F88819981CF59D040092E000CAA0B57
S1131410BB0B21968CAF9DAFAEAFBFAF2197C35628
S1131420DF4F88819981CD59D040092E000CAA0B39
S1131430BB0B25968CAF9DAFAEAFBFAF2597C555FF
S1131440DF4F88819981CB5AD040092E000CAA0B1A
S1131450BB0B29968CAF9DAFAEAFBFAF2997C355D9
S1131460DF4F88819981CD5AD040092E000CAA0BF8
S1131470BB0B2D968CAF9DAFAEAFBFAF2D97C155B3
S1131480DF4F88819981CF5AD040092E000CAA0BD6
S1131490BB0B61968CAF9DAFAEAFBFAF6197CF541E
S11314A0DF4F88819981C15BD040092E000CAA0BC3
S11314B0BB0B65968CAF9DAFAEAFBFAF6597C15107
S11314C0DF4F88819981CF5ED040A0E0B0E069967B
S11314D08CAF9DAFAEAFBFAF6997CF50DF4F888160
S11314E0C15FD04090E0A0E0B0E06D968CAF9DAFBE
S11314F0AEAFBFAF6D9780EF90EFA0EFB0E0A196D5
S11315008CAF9DAFAEAFBFAFA19710E0E1E0F0E0CC
S1131510EC0FFD1F24E0129FE00DF11D11246081EA
S1131520718182819381603F20EF72078207910568
S113153081F02AE0AE0147585F4F0E94AB19CE01FB
S113154087589F4F0E94B6158BE30E94AF151F5F0B
S1131550DDCF8AE00E94AF15C058DF4F0FB6F89474
S1131560DEBF0FBECDBFDF91CF911F9108952F92A3
S11315703F924F925F926F927F928F929F92AF921F
S1131580BF92CF92DF92EF92FF920F931F93CF936C
S1131590DF93CDB7DEB72A970FB6F894DEBF0FBE40
S11315A0CDBF9A878987BC01625F7F4F02960E94F4
S11315B02B058AE090E00E947E1569857A856A5F32
S11315C07F4F89859A8504960E94B2058AE090E04F
S11315D00E947E1569857A85685F7F4F89859A8523
S11315E00C960E94FB0280E00E946700A985BA85E0
S11315F011969C938E9314968D919C911597813F8F
S1131600984D09F44BC1E985FA8586819781813F1C
S1131610984D09F443C1A985BA8514966D917C91BE
S11316201597072E000C880B990B0E946D1720E06C
S113163030E048EC52E40E9489162B013C01E98514
S1131640FA850681178160857185828593850E945C
S11316506D1720E030E048EC52E40E9489164B01FB
S11316605C0120E030E04DE851E4C301B2010E9486
S113167096186B017C012DE33AE043E753E4C30180
S1131680B2010E941D169B01AC01C701B6010E9464
S113169089160E9403176B017C0125EB3EEF46E996
S11316A056E3C501B4010E9496180E94031769838A
S11316B07A838B839C8324E330E843EC50E4C701B2
S11316C0B6010E9496186B017C0124E437E140E8DE
S11316D05FE369817A818B819C810E9496189B01CA
S11316E0AC01C701B6010E94961869837A838B8383
S11316F09C83B801110F880B990B0E946D1720E091
S113170030E048EC52E40E94891620E030E048ECD6
S113171052E40E94891629813A814B815C810E949E
S113172096186B017C0123E333E948E853E4C301D1
S1131730B2010E941D162B013C0120E030E048EC70
S113174052E4C501B4010E9496186D837E838F8391
S11317509887A5019401C701B6010E9489162CED52
S11317603BE841EC5EE30E9496189B01AC0160E00B
S113177070E080E89FE30E941C169B01AC016DE6BB
S113178077E88FE893E40E948916A30192010E94EE
S113179096189B01AC016D817E818F8198850E9492
S11317A0891620E030E04AE754E40E9496180E942B
S11317B03517A985BA8550967C936E931F9728EBAD
S11317C03EE74BE154E4C701B6010E9496186D83CD
S11317D07E838F83988726ED3BE841EC5EE3C70167
S11317E0B6010E9496189B01AC01C501B4010E9488
S11317F01C169B01AC016D817E818F8198850E94AE
S1131800891620E030E04AE754E40E9496180E94CA
S11318103517E985FA85728B618B20E030E048EC5E
S113182052E4C701B6010E94961820E030E048EC6B
S113183052E40E9496184B015C0122EF32EC46EE12
S113184053E4C301B2010E9496189B01AC01C50187
S1131850B4010E94891620E030E04AE754E40E9473
S113186096180E943517A985BA8554967C936E9371
S11318705397A701960169817A818B819C810E948B
S11318801C1620E030E048EC52E40E9496180E94B6
S11318903517E985FA85768B658B14C081EF98ED51
S11318A0A985BA8550969C938E931F9752969C93C4
S11318B08E93519754969C938E93539756969C93DC
S11318C08E93559769847A84B9E66B0E711CF30183
S11318D080819181A0E0B0E02090490230904A02DA
S11318E040904B0250904C0209851A850B5B1F4FA8
S11318F0480109851A85075B1F4F580109851A8518
S1131900035B1F4F680109851A850F5A1F4F780121
S1131910E985FA85EB5AFF4F82159305A405B505B1
S113192008F4B8C081EF98EDA985BA8558969C93C0
S11319308E9357975A969C938E9359975C969C9343
S11319408E935B975E969C938E935D9741EF58EDD3
S11319506FEF7FEF5F964D935D936D937C939297BA
S113196094969C938E93939796969C938E93959727
S113197098969C938E9397979A969C938E93999707
S11319809C969C938E939B97D30111961C921E92C6
S1131990A985BA859D961D921D921D921C92D09781
S11319A0D1961D921D921D921C92D497D5961D928C
S11319B01D921D921C92D897D9961D921D921D922C
S11319C01C92DC97DD961D921D921D921C9213971A
S11319D0A985BA85AF5BBF4F1D921D921D921C92C3
S11319E01397D4011D921D921D921C921397D50139
S11319F01D921D921D921C921397D6011D921D9249
S1131A001D921C921397D8011D921D921D921C9237
S1131A10139711821082A985BA85A95ABF4F1196CE
S1131A201C921E92A985BA85A75ABF4F11961C9283
S1131A301E92A985BA85A55ABF4F11961C921E9273
S1131A40A985BA85A35ABF4F11961C921E92A985E7
S1131A50BA85A15ABF4F11961C921E92A985BA85C8
S1131A60AF59BF4F11961C921E92A985BA85AD59E4
S1131A70BF4F11961C921E92A985BA85AB59BF4FD0
S1131A8011961C921E92A985BA85A959BF4F119629
S1131A901C921E92D3018D919C91119701961196DF
S1131AA09C938E9380819181019691838083A985F3
S1131AB0BA858D919C9111979D964D915D916D91F3
S1131AC07C91D097092E000CAA0BBB0B480F591F11
S1131AD06A1F7B1FA985BA859D964D935D936D936F
S1131AE07C93D0979D964D915D916D917C91D0970B
S1131AF0808191810190F081E02D97FD019695956B
S1131B008795092E000CAA0BBB0B8C019D01040FB9
S1131B10151F261F371FC901B8019F01FF0F440B72
S1131B20550B0E944319A985BA8558963C932E9368
S1131B30579712968D919C9113978D0105591F4FBC
S1131B40813F984D09F457C0E985FA85E95AFF4F5A
S1131B5080819181019691838083A985BA851296AB
S1131B608D919C911397D1964D915D916D917C913E
S1131B70D497092E000CAA0BBB0B480F591F6A1FE0
S1131B807B1FA985BA85D1964D935D936D937C9304
S1131B90D497D1962D913D914D915C91D497298301
S1131BA03A834B835C83808191810190F081E02DA5
S1131BB097FD019695958795092E000CAA0BBB0BF2
S1131BC029813A814B815C81280F391F4A1F5B1F91
S1131BD0CA01B9019F01FF0F440B550B0E94431921
S1131BE0A985BA855A963C932E935997F80180811A
S1131BF08E7F808304C0D8018C9181608C93E985A9
S1131C00FA8584819581813F984D09F457C0E9850F
S1131C10FA85E75AFF4F80819181019691838083F1
S1131C20A985BA8514968D919C911597D5964D9159
S1131C305D916D917C91D897092E000CAA0BBB0B7A
S1131C40480F591F6A1F7B1FA985BA85D5964D93E6
S1131C505D936D937C93D897D5962D913D914D913D
S1131C605C91D89729833A834B835C8380819181EB
S1131C700190F081E02D97FD019695958795092EA9
S1131C80000CAA0BBB0B29813A814B815C81280F84
S1131C90391F4A1F5B1FCA01B9019F01FF0F440B83
S1131CA0550B0E944319A985BA855C963C932E93E3
S1131CB05B97F80180818D7F808304C0D8018C916B
S1131CC082608C93E985FA8586819781813F984D5E
S1131CD009F457C0E985FA85E55AFF4F808191815F
S1131CE0019691838083A985BA8516968D919C91DE
S1131CF01797D9964D915D916D917C91DC97092E42
S1131D00000CAA0BBB0B480F591F6A1F7B1FA98528
S1131D10BA85D9964D935D936D937C93DC97D99650
S1131D202D913D914D915C91DC9729833A834B83AE
S1131D305C83808191810190F081E02D97FD019673
S1131D4095958795092E000CAA0BBB0B29813A8126
S1131D504B815C81280F391F4A1F5B1FCA01B901DF
S1131D609F01FF0F440B550B0E944319A985BA85A7
S1131D705E963C932E935D97F80180818B7F8083E0
S1131D8004C0D8018C9184608C93E985FA858085A0
S1131D909185A285B385813F984DAF4FBF4F09F41C
S1131DA057C0E985FA85E35AFF4F808191810196F6
S1131DB091838083A985BA8518964D915D916D9123
S1131DC07C911B979D01235C3F4FD9018D919D917F
S1131DD00D90BC91A02D480F591F6A1F7B1FD9017C
S1131DE04D935D936D937C9313978D919D910D907D
S1131DF0BC91A02D89839A83AB83BC83808191811C
S1131E000190F081E02D97FD019695958795092E17
S1131E10000CAA0BBB0B29813A814B815C81280FF2
S1131E20391F4A1F5B1FCA01B9019F01FF0F440BF1
S1131E30550B0E944319A985BA855F962D933D934E
S1131E404D935C939297F8018081877F808304C0CF
S1131E50D8018C9188608C93E985FA858485958571
S1131E60813F984D09F456C0E985FA85E15AFF4F40
S1131E7080819181019691838083A985BA851C967E
S1131E808D919C911D979D012F5B3F4FD9014D91E1
S1131E905D916D917C91092E000CAA0BBB0B480F30
S1131EA0591F6A1F7B1FD9014D935D936D937C93DA
S1131EB013978D919D910D90BC91A02D89839A8348
S1131EC0AB83BC83808191810190F081E02D97FDEB
S1131ED0019695958795092E000CAA0BBB0B2981B9
S1131EE03A814B815C81280F391F4A1F5B1FCA014D
S1131EF0B9019F01FF0F440B550B0E944319A9859B
S1131F00BA8594963C932E939397F80180818F7EA3
S1131F10808304C0D8018C9180618C93E985FA8513
S1131F2087859089813F984D09F449C0E985FA85F0
S1131F30EF59FF4F80819181019691838083A98518
S1131F40BA851F968D919C915097D4014D915D91C6
S1131F506D917C91092E000CAA0BBB0B480F591FE5
S1131F606A1F7B1FD4014D935D936D937C931397EC
S1131F704D915D916D917C91208131810190F08131
S1131F80E02DC90137FD019695958795092E000C22
S1131F90AA0BBB0B8C019D01040F151F261F371FB5
S1131FA0C901B8019F01FF0F440B550B0E9443194F
S1131FB0A985BA8596963C932E93959716C0E98584
S1131FC0FA8585A196A1D4014D915D916D917C9185
S1131FD0092E000CAA0BBB0B840F951FA61FB71F5D
S1131FE0F40180839183A283B383A985BA85519632
S1131FF08D919C915297813F984D09F444C0E98595
S1132000FA85ED59FF4F80819181019691838083F8
S1132010A985BA8551962D913C915297D5014D9140
S11320205D916D917C91C901330FAA0BBB0B480FD5
S1132030591F6A1F7B1FD5014D935D936D937C934C
S113204013978D909D90AD90BC90408151812081DB
S11320503181CA0157FD019695958795092E000C8B
S1132060AA0BBB0BBC01CD01680D791D8A1D9B1DFC
S1132070032E000C440B550B0E944319E985FA8585
S113208030A727A317C0A985BA8597968D919C91EF
S11320909897F5014081518162817381092E000C6A
S11320A0AA0BBB0B840F951FA61FB71F80839183B8
S11320B0A283B383A985BA8553968D919C91549735
S11320C0813F984D09F446C0E985FA85EB59FF4FE5
S11320D080819181019691838083A985BA855396E5
S11320E02D913C915497D6014D915D916D917C91C8
S11320F0C901330FAA0BBB0B480F591F6A1F7B1F63
S1132100D6014D935D936D937C9313978D909D9021
S1132110AD90BC90408151812081318157FF02C034
S11321204F5F5F4FCA0195958795092E000CAA0B46
S1132130BB0BBC01CD01680D791D8A1D9B1D032EAF
S1132140000C440B550B0E944319E985FA8532A70C
S113215021A717C0A985BA8599968D919C919A97C4
S1132160F6014081518162817381092E000CAA0B12
S1132170BB0B840F951FA61FB71F80839183A28377
S1132180B383A985BA8555968D919C915697813FC5
S1132190984D09F446C0E985FA85E959FF4F8081D5
S11321A09181019691838083A985BA8555968D91F5
S11321B09C915697D7014D915D916D917C91092E1B
S11321C0000CAA0BBB0B480F591F6A1F7B1FD701BA
S11321D04D935D936D937C931397CD90DD90ED902B
S11321E0FC90408151812081318157FF02C04F5FB3
S11321F05F4FCA0195958795092E000CAA0BBB0B5E
S1132200BC01CD016C0D7D1D8E1D9F1D032E000C88
S1132210440B550B0E944319E985FA8534A723A77B
S113222017C0A985BA859B968D919C919C97F701BF
S11322304081518162817381092E000CAA0BBB0B72
S1132240840F951FA61FB71F80839183A283B38336
S1132250D3018D919C91A0E0B0E082159305A40573
S1132260B505D0F0EDB7FEB7EC56F1090FB6F8940A
S1132270FEBF0FBEEDBFADB7BEB711968CE6E985C4
S1132280FA8501900D928A95E1F70E9499080FB69C
S1132290F894DEBF0FBECDBF81E02A960FB6F89446
S11322A0DEBF0FBECDBFDF91CF911F910F91FF9085
S11322B0EF90DF90CF90BF90AF909F908F907F90E2
S11322C06F905F904F903F902F9008951F93CF93FE
S11322D0DF93CDB7DEB72B970FB6F894DEBF0FBEF2
S11322E0CDBF10911C0280E0E82FF0E0E65EFD4FC8
S11322F09281992361F08F5F282F30E0F901E65E27
S1132300FD4F9281FE01E20FF31F9083EDCFCE01CA
S113231001960E9484191435C1F0153629F111343F
S113232061F510E0812F0E94AF151B8720E040E08B
S113233061E0CE010B960E94DB1185E090E00E94E3
S11323407E151F5F1F3F71F71CC06F3F710581052C
S1132350910509F0B0F46A8720E040E061E0CE0125
S11323600A960E94DB110DC0673071058105910545
S113237044F4862F0E94FF0604C089E092E00E9484
S1132380B61510921A022B960FB6F894DEBF0FBE44
S1132390CDBFDF91CF911F910895E9EBF0E08081EB
S11323A08D7F808380818160808381E08093B80009
S11323B0808190E00895CF93DF9300D0CDB7DEB74E
S11323C069834A8390932802809327029093400262
S11323D080933F02209345021092430289E0809348
S11323E044028A818093420289818093410285EA72
S11323F08093BC00109277021092760293E0809151
S11324004402893051F42091760230917702283CBD
S11324103105A8F390934402F2CF8091440289E2FB
S113242092E00F900F90DF91CF9108951F920F9239
S11324300FB60F9211242F933F938F939F93EF9393
S1132440FF938091B900887F883209F499C088F499
S1132450803109F451C030F4882309F407C188306D
S1132460F1F004C1883109F475C0803209F4CFC099
S1132470FDC0803409F4C6C040F4803309F4C7C0F9
S1132480883309F0F3C080E8E0C0803509F4C4C0A3
S1132490883509F4DDC0883409F0E8C0B8C09091EB
S11324A0430280914102981304C080914202811139
S11324B02DC01092430280913F029091400290936C
S11324C0280280932702E0912702F091280280815C
S11324D08093BB0085E88093BC0080912702909193
S11324E02802019690932802809327028091430248
S11324F08F5F80934302C0C0909143028091410258
S1132500981316C080914202882391F080913F0273
S1132510909140029093280280932702E091270231
S1132520F0912802808181608083109243020AC066
S11325301092430280913F029091400290932802AE
S113254080932702E0912702F091280280818093F2
S1132550BB0078C09091430280914102981305C05A
S113256080914202882309F47BC0909143028091B8
S11325704102981331C080914202882369F11AC044
S11325809091430280914102981730F08091420269
S1132590811102C084E965C0909143028091410297
S11325A098130AC080914202882331F08091450239
S11325B0811102C085EB49C0909143028091410290
S11325C098130AC080914202882331F08091450219
S11325D0882311F085EA39C0E0912702F09128029E
S11325E080818093BB0080912702909128020196FC
S11325F09093280280932702809143028F5F8093F7
S1132600430220C0809142028130F1F41BC080E972
S11326108093BC0082E02EC0E091430281E08E0FE3
S113262080934302F0E08091BB00E95DFD4F82831B
S1132630209143028091420230E090E001972817F4
S1132640390714F085E801C085EC8093BC0014C000
S1132650E0914302F0E08091BB00E95DFD4F82838D
S113266080E98093BC001092440206C080E9809304
S1132670BC0081E080934402FF91EF919F918F9180
S11326803F912F910F900FBE0F901F901895CF93ED
S1132690DF93EC01E0EBF0E0808182608083E1EB8A
S11326A0F0E0808183608083E0E7F0E080818260F5
S11326B080838AEF8093B3005398E9E6F0E0808149
S11326C088608083E99A52985A9A808182608083D4
S11326D0E89A579A209A87B18C6087B943984298B0
S11326E038983998ECE7F0E08081806480838081B9
S11326F08F778083EAE7F0E0808180688083EEE76B
S1132700F0E080818360808310925B02789483E39D
S113271090E00E94A0150E94CD118FE19EE40197E4
S1132720F1F700C000000E948A158FEC97E0019732
S1132730F1F700C0000060E170E08FEF97E00E94C5
S1132740D20010924E0210924D021092700210921A
S11327506F02109272021092710210926C02109227
S11327606B02109269021092680210925002109249
S11327704F02109281021092800210927502109200
S1132780740210926E0210926D02109283021092E3
S11327908202109248021092470281EF98ED9D87C1
S11327A08C879B838A839F838E839D838C831E86E1
S11327B09983888341EF58ED6FEF7FEF48875987FE
S11327C06A877B87988B8F879A8B898B9C8B8B8B63
S11327D09E8B8D8B188E1F8A1A8E198E1C8E1B8EC3
S11327E01E8E1D8E1F8E18A219A21AA21CA21BA235
S11327F01EA21DA218A61FA21AA619A61CA61BA6D5
S11328001DA61EA61FA618AA19AA1AAA1BAA1CAAA4
S11328101DAA1EAA1FAA18AE19AE1AAE1BAE1CAE74
S1132820FE01FD9610821182128213823496108268
S113283011821282138234961082118212821382C0
S1132840349610821182128213823496108211827D
S11328501282138234961082118212821382349669
S11328601182108232961182108232961182108265
S1132870329611821082329611821082329611821F
S11328801082329611821082329611821082329610
S11328901182108232961182108232961182108235
S11328A0C559DF4F188210927C0210925A0281E0BF
S11328B080937F0210927B028AE090E0A0E0B0E077
S11328C08093490290934A02A0934B02B0934C0226
S11328D01092780210926A02DF91CF9108951F92AC
S11328E00F920FB60F9211242F938F939F93AF9350
S11328F0BF938091790290917A02019690937A0223
S1132900809379028091790290917A02853E934076
S1132910D0F010927A021092790281E080937302CF
S11329208091520290915302A0915402B0915502A9
S11329300196A11DB11D8093520290935302A0935E
S11329405402B093550280915B02882329F0809150
S11329505B02815080935B028091760290917702B2
S11329600196909377028093760280917D029091F4
S11329707E02019690937E0280937D0280915C0298
S113298090915D02019690935D0280935C02BF91E9
S1132990AF919F918F912F910F900FBE0F901F9029
S11329A018951F920F920FB60F9211248F939F9335
S11329B080915B02811109C088EC80935B02909145
S11329C07F0281E0892780937F02E09A9F918F9113
S11329D00F900FBE0F901F9018951F920F920FB675
S11329E00F9211248F9381E080935A028F910F905C
S11329F00FBE0F901F901895CF93DF93CDB7DEB71E
S1132A00CC56D1090FB6F894DEBF0FBECDBFCE01B0
S1132A1001960E94471384E190E00E947E1512E320
S1132A200E947E028AE090E00E947E1580914D0211
S1132A3090914E02892B11F4115091F711E080917D
S1132A405A02882321F0CE0101960E94A4078091A6
S1132A507B02882309F43FC0CE0101960E94B70A85
S1132A608DB79EB78C5691090FB6F8949EBF0FBED2
S1132A708DBFADB7BEB711968CE6FE0131960190BD
S1132A800D928A95E1F70E9402088DB79EB784598A
S1132A909F4F0FB6F894DEBF0FBECDBF8C56910981
S1132AA00FB6F8949EBF0FBE8DBFADB7BEB71196DB
S1132AB08CE6FE01319601900D928A95E1F70E9411
S1132AC02E0910927B028BB180588BB90FB6F89403
S1132AD0DEBF0FBECDBF80917302882309F4AFCF50
S1132AE080911A02823011F40E94661180917F0253
S1132AF0811110937B0210927302A1CF10925D0298
S1132B0010925C0220915C0230915D022817390713
S1132B10C8F30895229A2A9A84B1886284B985B147
S1132B20877C85B980E58CBD81E08DBD08950DB4A9
S1132B3007FCFDCF8EBD0DB407FEFDCF8EB5089505
S1132B409093C5008093C400E1ECF0E08081886933
S1132B508083E2ECF0E080818E6080830895909120
S1132B60C00095FFFCCF8093C6000895CF93DF93F8
S1132B70EC018991882319F00E94AF15FACFDF91F7
S1132B80CF9108951F920F920FB60F9211248F9335
S1132B909F93EF93FF938091C600882331F0833293
S1132BA019F581E080931A023CC080911A028130A9
S1132BB091F480911B02882371F0E0911B02F0E0F4
S1132BC0E65EFD4F128282E080931A0280911B021E
S1132BD08F5F80931B0280911A02813021F58091CE
S1132BE01B02811120C01BC090911A02913079F40C
S1132BF090911B029A3058F4E0911B02F0E0E65EDB
S1132C00FD4F828380911B028F5F80931B02809112
S1132C101A02813041F480911B028A3020F0109214
S1132C201A0210921B02FF91EF919F918F910F90C6
S1132C300FBE0F901F9018955058BB27AA270E94CB
S1132C4034160C94E6170E94D81738F00E94DF1748
S1132C5020F039F49F3F19F426F40C94AE170EF4C7
S1132C60E095E7FB0C94A817E92F0E94F71758F397
S1132C70BA17620773078407950720F079F4A6F55D
S1132C800C9419180EF4E0950B2EBA2FA02D0B01FD
S1132C90B90190010C01CA01A0011124FF27591B9D
S1132CA099F0593F50F4503E68F11A16F040A22FA3
S1132CB0232F342F4427585FF3CF46953795279514
S1132CC0A795F0405395C9F77EF41F16BA0B620B13
S1132CD0730B840BBAF09150A1F0FF0FBB1F661F5A
S1132CE0771F881FC2F70EC0BA0F621F731F841F9D
S1132CF048F4879577956795B795F7959E3F08F0C3
S1132D00B0CF9395880F08F09927EE0F9795879584
S1132D1008950E949D160C94E6170E94DF1758F040
S1132D200E94D81740F029F45F3F29F00C94A817AB
S1132D3051110C941A180C94AE170E94F71768F3EB
S1132D409923B1F3552391F3951B550BBB27AA2760
S1132D5062177307840738F09F5F5F4F220F331F9A
S1132D60441FAA1FA9F335D00E2E3AF0E0E832D062
S1132D7091505040E695001CCAF72BD0FE2F29D065
S1132D80660F771F881FBB1F261737074807AB0737
S1132D90B0E809F0BB0B802DBF01FF2793585F4FAC
S1132DA03AF09E3F510578F00C94A8170C941A1829
S1132DB05F3FE4F3983ED4F3869577956795B7958E
S1132DC0F7959F5FC9F7880F911D9695879597F999
S1132DD00895E1E0660F771F881FBB1F6217730712
S1132DE08407BA0720F0621B730B840BBA0BEE1F27
S1132DF088F7E095089529F416F00C94A8170C941C
S1132E0019180C94AE170E94FF17A8F39638A0F770
S1132E1007F80F92E8942BE33AEA48EB5FE70E9445
S1132E20AC180F920F920F924DB75EB70F920E949B
S1132E306218E8E6F0E00E94B1174F915F91EF91BC
S1132E40FF91E595EE1FFF1F49F0FE57E068442708
S1132E50EE0F441FFA95E1F74195550B0E942C188B
S1132E600F9007FE0C94201808950E943C17689454
S1132E70B1110C941A1808950E94FF1788F09F57F7
S1132E8098F0B92F9927B751B0F0E1F0660F771F8A
S1132E90881F991F1AF0BA95C9F714C0B13091F080
S1132EA00E941918B1E008950C941918672F782F0F
S1132EB08827B85F39F0B93FCCF386957795679545
S1132EC0B395D9F73EF490958095709561957F4FB1
S1132ED08F4F9F4F0895E89409C097FB3EF4909557
S1132EE08095709561957F4F8F4F9F4F9923A9F0DF
S1132EF0F92F96E9BB279395F6958795779567956E
S1132F00B795F111F8CFFAF4BB0F11F460FF1BC0B1
S1132F106F5F7F4F8F4F9F4F16C0882311F096E944
S1132F2011C0772321F09EE8872F762F05C06623F2
S1132F3071F096E8862F70E060E02AF09A95660FAB
S1132F40771F881FDAF7880F9695879597F9089564
S1132F5097F99F6780E870E060E008959FEF80EC48
S1132F600895DF93CF931F930F93FF92EF92DF9215
S1132F707B018C01689406C0DA2EEF010E94A91827
S1132F80FE01E894A5912591359145915591A6F3BB
S1132F90EF010E943416FE019701A801DA9469F743
S1132FA0DF90EF90FF900F911F91CF91DF910895E3
S1132FB000240A9416161706180609060895002414
S1132FC00A9412161306140605060895092E03948E
S1132FD0000C11F4882352F0BB0F40F4BF2B11F402
S1132FE060FF04C06F5F7F4F8F4F9F4F089557FD61
S1132FF09058440F551F59F05F3F71F04795880F63
S113300097FB991F61F09F3F79F0879508951216F9
S113301013061406551FF2CF4695F1DF08C01616A5
S113302017061806991FF1CF869571056105089456
S11330300895E894BB2766277727CB0197F908956D
S11330409B01AC0160E070E080E89FE30C9489167A
S11330500C94A8170C9403190E94FF17D8F3992312
S1133060C9F3940F511DA3F39150504094F059F0BB
S1133070882332F0660F771F881F91505040C1F7A4
S11330809E3F51052CF7880F911D9695879597F9CA
S113309008955F3FACF0983E9CF0BB2786957795EA
S11330A06795B79508F4B1609395C1F7BB0F58F7CE
S11330B011F460FFE8CF6F5F7F4F8F4F9F4FE3CFD7
S11330C00C941A18FA01DC01AA0FBB1F9B01AC0176
S11330D0BF5728F4222733274427507820C0B751FC
S11330E090F4AB2F0024469537952795011CA395A2
S11330F0D2F3002071F0220F331F441FB395DAF38B
S11331000ED00C941C1661307105A0E88A07B946EC
S113311030F49B01AC016627772788279078309696
S113312021F0208331834283538308950E94A91898
S11331300C94E6170E94D81738F00E94DF1720F08D
S1133140952311F00C94A8170C94AE1711240C9429
S11331501A180E94F71770F3959FC1F3950F50E06A
S1133160551F629FF001729FBB27F00DB11D639F35
S1133170AA27F00DB11DAA1F649F6627B00DA11DDB
S1133180661F829F2227B00DA11D621F739FB00D81
S1133190A11D621F839FA00D611D221F749F3327F1
S11331A0A00D611D231F849F600D211D822F762F8A
S11331B06A2F11249F5750409AF0F1F088234AF067
S11331C0EE0FFF1FBB1F661F771F881F91505040D3
S11331D0A9F79E3F510580F00C94A8170C941A1877
S11331E05F3FE4F3983ED4F3869577956795B7955A
S11331F0F795E7959F5FC1F7FE2B880F911D969574
S1133200879597F908959F3F31F0915020F4879561
S113321077956795B795880F911D9695879597F93A
S11332200895DB018F939F930E946219BF91AF9120
S1133230A29F800D911DA39F900DB29F900D11240C
S11332400895A1E21A2EAA1BBB1BFD010DC0AA1FE3
S1133250BB1FEE1FFF1FA217B307E407F50720F0FB
S1133260A21BB30BE40BF50B661F771F881F991F76
S11332701A9469F760957095809590959B01AC01BF
S1133280BD01CF010895052E97FB1EF400940E9402
S11332905A1957FD07D00E94211907FC03D04EF498
S11332A00C945A1950954095309521953F4F4F4FA6
S11332B05F4F089590958095709561957F4F8F4FDE
S11332C09F4F08950E947519A59F900DB49F900D6E
S11332D0A49F800D911D11240895B7FF0C946219C9
S11332E00E946219821B930B0895A29FB001B39FA1
S11332F0C001A39F700D811D1124911DB29F700DFB
S1133300811D1124911D08951F93FC01992788277D
S1133310BC01E89411911032E9F3193010F01E3019
S1133320C8F31B3251F01D3249F4689406C00E9460
S1133330BA19610F711D811D911D119110531A301D
S1133340B0F33EF490958095709561957F4F8F4FC3
S11333509F4F1F910895BB272A3051F4992342F4BB
S1133360BDE290958095709561957F4F8F4F9F4FEB
S11333700C94D019592F482F372F262F660F771FFB
S1133380881F991F660F771F881F991F620F731F6D
S1133390841F951F660F771F881F991F0895BB27E9
S11333A0FA01A62F6217710581059105330B30FBD5
S11333B066F0AA27660F771F881F991FAA1FA217F6
S11333C010F0A21B63953850A9F7A05DAA3308F04A
S11333D0A95DA19336F7B111B1931082CA010C947F
S11333E00B1ABB27FB015527AA27880F991FAA1F71
S11333F0A41710F0A41B83955051B9F7A05DAA330C
S113340008F0A95DA193009779F7B111B1931192D6
S1133410CB010C940B1ADC01FC01672F719177230B
S1133420E1F7329704C07C916D9370836291AE177B
S10D3430BF07C8F30895F894FFCF16
S113343A72656164206164726573732E2E0072650D
S113344A6164206164726573732066696E69736866
S113345A65640041637475616C206D436F6E3A2034
S113346A0077696C6C2064697361626C65204142FF
S113347A4320776974683A200077696C6C20656E1A
S113348A61626C652041424320776974683A20007E
S113349A77696C6C2064697361626C652046524179
S11334AA432077697468203A0077696C6C20656EEA
S11334BA61626C65204652414320776974683A0018
S11334CA77696C6C2064697361626C652064465226
S11334DA41432077697468203A0077696C6C2065E7
S11334EA6E61626C65206446524143207769746850
S11334FA3A00526561642072657175657374206F50
S113350A6E6C792E0077726F6E67205461736B2E1E
S113351A006661696C007772697474656E2100498A
S113352A3243206661696C207768696C652072652C
S113353A6164206D436F6E2E0062756C6C736869EA
S10D354A7420737472696E67000048
S9030000FC
