S0140000636F6E74726F6C426F6172642E7372656327
S11300000C945E000C947C130C949A130C94B3130C
S11300100C947B000C947B000C947B000C947B0070
S11300200C947B000C947B000C941A130C947B00AE
S11300300C947B000C94FF140C947B000C947B00B8
S11300400C947B000C947B000C947B000C942F107C
S11300500C947B000E082D084C084C084C084C08E6
S11300604C084C084C084C084C084C084C084C08EC
S11300704C084C084C084C084C084C084C084C08DC
S11300804C084C084C084C084C084C084C084C08CC
S11300904C084C083F07480751075A076307700785
S11300A07D078A0795079E07A707B007B907C30707
S11300B0CD07D707E107E407F207070811241FBE9D
S11300C0CFE5D8E0DEBFCDBF10E0A0E6B0E0EAE8BF
S11300D0FCE202C005900D92A037B107D9F720E0E9
S11300E0A0E7B0E001C01D92A03EB207E1F70E9474
S11300F0A40E0C9443160C940000CF93C82FC498FC
S113010083E00E94DC148C2F0E94DC1480EA0E949D
S1130110DC14C49ACF9108951F93CF93DF931F9259
S1130120CDB7DEB7182FC49882E069830E94DC142F
S1130130812F0E94DC146981862F0E94DC14C49AEA
S11301400F90DF91CF911F9108951F93CF93DF9369
S113015000D0CDB7DEB7182FC49885E04A836983F1
S11301600E94DC14812F0E94DC146981862F0E9476
S1130170DC144A81842F0E94DC14C49A0F900F90DF
S1130180DF91CF911F910895DF92EF92FF920F9329
S11301901F93CF93DF93EC018B01DFB6F894C298E1
S11301A080EC0E94DC148EE00E947D00807E80380A
S11301B0D1F7C29A83EC99E00197F1F700C00000EF
S11301C047E067E08AE20E94A50040E960E989E22D
S11301D00E94A50042E062E088E20E94A50043E29A
S11301E063E28BE20E94A50044E264E680E60E949A
S11301F0A50040E260E680E70E94A5007E0183E05E
S1130200F694E7948A95E1F76E2D80E20E948C00C3
S1130210C295CC0FC07E4C2F60EE81E20E94A500F7
S11302206E2D84E20E948C004C2F60EE85E20E94C9
S1130230A500E80193E0D695C7959A95E1F74C2F70
S11302406FEF80E00E94A5000295000F007E402F12
S113025060EE81E00E94A5004C2F6FEF84E00E94C5
S1130260A500402F60EE85E00E94A5004C2F6FEFA3
S113027088E00E94A500402F60EE89E00E94A5005E
S11302804C2F6FEF80E10E94A500402F60EE81E1CA
S11302900E94A5004C2F6FEF84E10E94A500402F1F
S11302A060EE84E10E94A5004C2F6FEF88E10E946C
S11302B0A500402F60EE88E10E94A50040E06FEFAA
S11302C08CE00E94A50040E06FEF8DE00E94A50045
S11302D040E060EE8FE00E94A500C29ADFBEDF918D
S11302E0CF911F910F91FF90EF90DF900895CF92DF
S11302F0DF92EF92FF920F931F93CF93DF931F929E
S1130300CDB7DEB78C01C49880EA0E94DC148FEF6D
S11303100E94DC1489838FEF0E94DC14C49A8981C3
S113032082FF09C0898184FF08C0898186FD52C08B
S113033054E0D52E04C0D12C02C042E0D42EC4987F
S11303408D2D80640E94DC14F8018081918133E05A
S1130350969587953A95E1F70E94DC14F80180811F
S11303608295880F807E0E94DC1480E00E94DC1459
S113037080E00E94DC14F801C380F8E0FC1510F45E
S113038028E0C22EF8018281882329F08C2D806414
S11303900E94DC1411C08C2D0E94DC14E12CF12C81
S11303A009C0F801EE0DFF1D84810E94DC14FFEFEB
S11303B0EF1AFF0AEC14A8F3C49A0000C498D110F1
S11303C002C081E802C08D2D80680E94DC14C49AAA
S11303D081E001C080E00F90DF91CF911F910F91D8
S11303E0FF90EF90DF90CF900895CF93C49880EB67
S11303F00E94DC148FEF0E94DC14C82F8FEF0E9440
S1130400DC14C49A8C2FCF910895DF92EF92FF925F
S11304100F931F93CF93DF931F92CDB7DEB78C0159
S11304200E94F5018983898186FF03C0C49880E90D
S113043005C0898187FF4BC0C49884E90E94DC14FD
S11304408FEF0E94DC1498E0899F70011124F80159
S1130450F182E0828FEF0E94DC148295869587708A
S1130460E82AF801F182E0828FEF0E94DC148FEF1A
S11304700E94DC148FEF0E94DC146FE0D62ED82289
S1130480F801D382E12CF12C0AC08FEF0E94DC1416
S1130490F801EE0DFF1D8483FFEFEF1AFF0AED1440
S11304A0A0F3C49A898183FF04C081E0F8018283A8
S11304B002C0F8011282898140E086FF02C061E037
S11304C001C062E08CE20E94A500898101C08FEF27
S11304D00F90DF91CF911F910F91FF90EF90DF90DC
S11304E00895CF93DF9300D0CDB7DEB790E499831E
S11304F08A8320E040E062E0CE0101960E9403106E
S113050080E00F900F90DF91CF910895BF92CF922A
S1130510DF92EF92FF920F931F93CF93DF93CDB7A8
S1130520DEB764970FB6F894DEBF0FBECDBF6C0183
S11305307B018A012FB7F894FA0180819181A2810D
S1130540B381AC01BD01FFE076956795579547955A
S1130550FA95D1F74270552766277727406A498371
S1130560492F5A2F6B2F77274A838B8380917800EA
S11305708C838091790090917A00A0917B00B09156
S11305807C00CD01AA27BB278D83809179009091AF
S11305907A00A0917B00B0917C00892F9A2FAB2F19
S11305A0BB278E838091790090917A00A0917B0083
S11305B0B0917C008F838091A80088878091B800D7
S11305C08987F60185A196A1892F990F990B8A87AE
S11305D085A196A18B8787A190A5892F990F990B47
S11305E08C8787A190A58D87F70185A196A1892F76
S11305F0990F990B8E8785A196A18F8787A190A5C6
S1130600892F990F990B888B87A190A5898B1A8ABA
S11306101B8A2FBF84E6B82E20E040E063E1CE01C0
S113062001960E9403108091D200882311F0BA949D
S113063099F7F80180819181A281B3814096A11D2F
S1130640B11D80839183A283B3832FB7F894408133
S1130650518162817381DB01CA013FE0B695A795A0
S1130660979587953A95D1F782709927AA27BB2742
S1130670806A8983BB27A72F962F852F8A834B8374
S1130680F601838D948D892F990F990B8C83838D1B
S1130690948D8D83858D968D892F990F990B8E83DB
S11306A0858D968D8F83878D90A1A1A1B2A18B2F6B
S11306B0BB2787FDB0959B2FAB2F8887878D90A193
S11306C0A1A1B2A1CD01BB2797FDB095AB2F89871E
S11306D0878D90A1A1A1B2A1892F9A2FAB2FBB27FF
S11306E0A7FDBA958A87878D90A1A1A1B2A18B8716
S11306F0818D928D892F990F990B8C87818D928D85
S11307008D878789908D892F990F990B8E8787897B
S1130710908D8F8783A594A5988B83A594A5898BA9
S113072081A592A59A8B81A592A58B8B2FBFE4E618
S1130730DE2E20E040E063E1CE0101960E9403102A
S11307408091D200882311F0DA9499F7F80180811E
S11307509181A281B3814096A11DB11D80839183B3
S1130760A283B3832FB7F89480819181A281B3814E
S1130770AC01BD01EFE07695679557954795EA95ED
S1130780D1F74270552766277727406A4983492F56
S11307905A2F6B2F77274A838B83F701838D948D90
S11307A0892F990F990B8C83838D948D8D83858DDF
S11307B0968D892F990F990B8E83858D968D8F83B6
S11307C0878D90A1A1A1B2A18B2FBB2787FDB095E6
S11307D09B2FAB2F8887878D90A1A1A1B2A1CD01BA
S11307E0BB2797FDB095AB2F8987878D90A1A1A1D9
S11307F0B2A1892F9A2FAB2FBB27A7FDBA958A8761
S1130800878D90A1A1A1B2A18B87818D928D892F13
S1130810990F990B8C87818D928D8D878789908D07
S1130820892F990F990B8E878789908D8F8783A540
S113083094A5892F990F990B888B83A594A5898BEF
S113084081A592A5892F990F990B8A8B81A592A5D1
S11308508B8B2FBF84E6F82E20E040E063E1CE01CD
S113086001960E9403108091D200882311F0FA941B
S113087099F7F80180819181A281B3814096A11DED
S1130880B11D80839183A283B3832FB7F8948081B1
S11308909181A281B381AC01BD013FE0769567955A
S11308A0579547953A95D1F742705527662777278C
S11308B0406A4983492F5A2F6B2F77274A838B83AA
S11308C08BEF8C838CEF8D838DEF8E838EEF8F83F4
S11308D02FBF14E620E040E067E0CE0101960E94BD
S11308E003108091D200882311F0115099F781E010
S11308F064960FB6F894DEBF0FBECDBFDF91CF91E3
S11309001F910F91FF90EF90DF90CF90BF900895CB
S11309102F923F924F925F926F927F928F929F920B
S1130920AF92BF92CF92DF92EF92FF920F931F93F9
S1130930CF93DF93CDB7DEB7C955D1090FB6F8947D
S1130940DEBF0FBECDBF53B613BEFE01EF5BFF4F3C
S113095080E490E0A0E0B0E080839183A283B3833D
S11309606E0145E4C40ED11CD6011C9211961C9252
S11309708F0176015E01B1E2AB0EB11C3E01EDE1E7
S11309806E0E711CF6C121E040E163E0C6010E94D5
S113099003102091D200211111C0D8014D915D9115
S11309A06D917C91405F5F4F6F4F7F4FF8014083A3
S11309B051836283738320E030E003C09A9419F773
S11309C0ECCFFC01E20FF31F4081F501E20FF31FAE
S11309D040832F5F3F4F2031310599F749A18AA108
S11309E03BA12CA191E08C3F09F090E081E04B3FCA
S11309F009F080E0982381E03D3F09F080E08923FD
S1130A0019F02E3F09F4DCC189A190E0A0E0B0E028
S1130A1089839A83AB83BC833AA18BA12CA190E0F8
S1130A20A0E0B0E0BA2FA92F982F8827A32B822B00
S1130A308D839E83AF83B8878DA190E0A0E0B0E062
S1130A4089879A87AB87BC878EA190E0A0E0B0E04D
S1130A508D879E87AF87B88B8FA128A52A968FAFE5
S1130A602A9729961FAE29972A964EAD5FAD2A97ED
S1130A70CA01AA2797FDA095BA2F822B898B9A8B3E
S1130A80AB8BBC8B89A52AA52C968FAF2C972B9664
S1130A901FAE2B972C96EEADFFAD2C97CF01AA2756
S1130AA097FDA095BA2F822B8D8B9E8BAF8BB88F21
S1130AB08BA52CA52E968FAF2E972D961FAE2D9716
S1130AC02E964EAD5FAD2E97CA01AA2797FDA0952D
S1130AD0BA2F822B898F9A8FAB8FBC8F8DA52EA5B1
S1130AE060968FAF60972F961FAE2F976096EEADEE
S1130AF0FFAD6097CF01AA2797FDA095BA2F822B4F
S1130B008D8F9E8FAF8FB8A388248394912C8C0EE5
S1130B109D1ED4016D917D918D919D914D012AE091
S1130B2030E0AE01475C5F4F0E94EA15CE01C996E2
S1130B300E94F3148BE30E94EF148A149B0449F778
S1130B40A2E04A2EF80180819181A281B3817FE0E5
S1130B50B695A795979587957A95D1F78270992739
S1130B60AA27BB27806AD7018C9380819181A281B7
S1130B70B381892F9A2FAB2FBB27F7018183F8010B
S1130B8080819181A281B381F7018283F4E69F2E53
S1130B9021E040E163E0C6010E9403102091D200ED
S1130BA0211111C0D8014D915D916D917C91405FEF
S1130BB05F4F6F4F7F4FF80140835183628373838C
S1130BC020E030E003C09A9419F7ECCFFC01E20F67
S1130BD0F31F4081F501E20FF31F40832F5F3F4F66
S1130BE02031310599F749A18AA13BA12CA191E0BB
S1130BF08C3F09F090E081E04B3F09F080E09823BE
S1130C0081E03D3F09F080E0892319F02E3F09F48B
S1130C10ADC089A12AA162968FAF629761961FAE7B
S1130C20619762964EAD5FAD6297CA01AA2797FDA0
S1130C30A095BA2F822B89839A83AB83BC838BA123
S1130C402CA164968FAF649763961FAE63976496E6
S1130C50EEADFFAD6497CF01AA2797FDA095BA2FFB
S1130C60822B8D839E83AF83B8878DA14EA13FA134
S1130C7028A590E0A0E0B0E0B82FAA2799278827FC
S1130C80A42B932B822B89879A87AB87BC8789A552
S1130C902AA566968FAF669765961FAE659766968A
S1130CA04EAD5FAD6697CA01AA2797FDA095BA2FEE
S1130CB0822B8D879E87AF87B88B8BA52CA56896D2
S1130CC08FAF689767961FAE67976896EEADFFADD6
S1130CD06897CF01AA2797FDA095BA2F822B898BFD
S1130CE09A8BAB8BBC8B8DA52EA56A968FAF6A971A
S1130CF069961FAE69976A964EAD5FAD6A97CA0151
S1130D00AA2797FDA095BA2F822B8D8B9E8BAF8B34
S1130D10B88F8FA528A9382E212CC101AA2797FDA9
S1130D20A095BA2F822B898F9A8FAB8FBC8F882482
S1130D308394912C8C0E9D1ED4016D917D918D9187
S1130D409D914D012AE030E0AE014F5C5F4F0E945F
S1130D50EA15CE01C1960E94F3148BE30E94EF14AE
S1130D608614970449F74A9409F0ECCE8AE00E946D
S1130D70EF14F80180819181A281B3812FE0B695AF
S1130D80A795979587952A95D1F782709927AA27D1
S1130D90BB27806AD7018C9380819181A281B38122
S1130DA0892F9A2FAB2FBB27F7018183F80180810C
S1130DB09181A281B381F701828344E6942EE3CD2D
S1130DC053BE81E0C75ADF4F0FB6F894DEBF0FBEA3
S1130DD0CDBFDF91CF911F910F91FF90EF90DF90E6
S1130DE0CF90BF90AF909F908F907F906F905F90C7
S1130DF04F903F902F9008957F928F929F92AF9241
S1130E00BF92CF92DF92EF92FF920F931F93CF93F3
S1130E10DF93CDB7DEB765970FB6F894DEBF0FBE8C
S1130E20CDBF4C015B017A0169017090910030E003
S1130E300EC03F5F832F90E0FC01E157FF4F4281DA
S1130E40ECE0F0E0EC0FFD1FE80FF91F4083E32F07
S1130E50F0E0E157FF4F82818111EBCFCE010D9677
S1130E600E94C315272D30E0F901E154F109E43360
S1130E70F10508F011C1E65DFF4F0C94841561156E
S1130E80710521E08207910508F00AC1F70123C02A
S1130E9061157105F1E08F07910508F001C1F701B3
S1130EA027C061157105F1E08F07910508F0F8C0BE
S1130EB0F7012BC06938F3E17F078105910508F03C
S1130EC0EFC0F7012FC061157105F1E08F0791059F
S1130ED008F0E6C0F601678B708F818F928FE0C0B7
S1130EE061157105F1E08F07910508F0D9C0F6018D
S1130EF0638F748F858F968FD3C061157105F1E070
S1130F008F07910508F0CCC0F601678F70A381A309
S1130F1092A3C6C06938F3E17F078105910508F003
S1130F20BFC0F601768B658BBBC061157105F1E01E
S1130F308F07910508F0B4C0F801CDCF6115710594
S1130F40F1E08F07910508F0ABC0F801D1CF61152E
S1130F507105F1E08F07910508F0A2C0F801D5CF23
S1130F606131F7E27F078105910508F099C0F80126
S1130F70D9CF6F3F71058105910511F008F090C03C
S1130F80F80163A38DC06F3F71058105910511F0D0
S1130F9008F086C06093780083C06F3F71058105B7
S1130FA0910511F008F07CC06093A80079C06F3FF0
S1130FB071058105910511F008F072C06093B800C5
S1130FC06FC00E9488046CC08B019C010150110900
S1130FD02109310900311E402105310508F060C0A6
S1130FE0F4010DC08B019C01015011092109310943
S1130FF000311E402105310508F052C0F501E359C6
S1131000FF4F7183608381E08093700049C08091B9
S1131010AA0091E089278093AA0042C06038E1E5E4
S11310207E07E1E08E079105D8F520E130E03A83B0
S113103029831B8225E02C8322E02D838E837F83EA
S1131040688710E001C01F5FCE0101960E947701FE
S11310501A3030F58823B9F323C06038F1E57F07EF
S1131060F1E08F079105E0F420E230E03A83298330
S11310701B8225E02C8322E02D838E837F83688767
S113108010E001C01F5FCE0101960E9477011A3063
S113109038F48823B9F304C080E690E00E94F31486
S11310A010928F0065960FB6F894DEBF0FBECDBFC9
S11310B0DF91CF911F910F91FF90EF90DF90CF9030
S11310C0BF90AF909F908F907F9008951F93CF9380
S11310D0DF93CDB7DEB7C459D1090FB6F894DEBF9C
S11310E00FBECDBFDC019B014091780050E060E071
S11310F070E049835A836B837C83409179005091DB
S11311007A0060917B0070917C004D835E836F83D5
S113111078874091A80050E060E070E049875A87E2
S11311206B877C874091B80050E060E070E04D87A9
S11311305E876F87788B14964D915C91159766271F
S113114057FD6095762F498B5A8B6B8B7C8BF901FD
S113115044815581662757FD6095762F4D8B5E8BB4
S11311606F8B788F16964D915C911797662757FD74
S11311706095762F498F5A8F6B8F7C8F468157816C
S1131180662757FD6095762F4D8F5E8F6F8F78A3FE
S113119018964D915D916D917C911B9749A35AA32B
S11311A06BA37CA340855185628573854DA35EA3A3
S11311B06FA378A712964D915C911397662757FDFC
S11311C06095762F49A75AA76BA77CA742815381C4
S11311D0662757FD6095762F4DA75EA76FA778AB5E
S11311E01E964C911E9750E060E070E049AB5AABFC
S11311F06BAB7CAB468550E060E070E04DAB5EAB22
S11312006FAB78AF4D915C911197662757FD609550
S1131210762F49AF5AAF6BAF7CAF408151816627BF
S113122057FD6095762F21964CAF5DAF6EAF7FAFC3
S113123021971F964D915C915097662757FD6095B5
S1131240762F25964CAF5DAF6EAF7FAF2597478560
S11312505089662757FD6095762F29964CAF5DAF70
S11312606EAF7FAF299751964D915C915297662747
S113127057FD6095762F2D964CAF5DAF6EAF7FAF67
S11312802D9741895289662757FD6095762F61967F
S11312904CAF5DAF6EAF7FAF619755964D915C914A
S11312A05697662757FD6095762F65964CAF5DAFD0
S11312B06EAF7FAF659745895689662757FD609560
S11312C0762F69964CAF5DAF6EAF7FAF699753963B
S11312D04D915C915497662757FD6095762F6D96D6
S11312E04CAF5DAF6EAF7FAF6D974389548966276E
S11312F057FD6095762FA1964CAF5DAF6EAF7FAF73
S1131300A1971C964D915C911D97662757FD60959A
S1131310762FA5964CAF5DAF6EAF7FAFA597448592
S11313205585662757FD6095762FA9964CAF5DAF1E
S11313306EAF7FAFA99787599F4FFC0140815181C0
S113134060E070E0AD964CAF5DAF6EAF7FAFAD9730
S1131350C90187599F4FFC014081518160E070E0D1
S1131360E1964CAF5DAF6EAF7FAFE197A559BF4F2C
S11313708D919C91AA2797FDA095BA2FE5968CAFE5
S11313809DAFAEAFBFAFE597F901E559FF4F80813F
S11313909181AA2797FDA095BA2FE9968CAF9DAFAE
S11313A0AEAFBFAFE9978091AA0090E0A0E0B0E0B3
S11313B0ED968CAF9DAFAEAFBFAFED978AB59BB541
S11313C0A0E0B0E0C358DF4F88839983AA83BB832E
S11313D0CD57D04088B599B5A0E0B0E0CF57DF4FE6
S11313E088839983AA83BB83C158D04083B590E096
S11313F0A0E0B0E0CB57DF4F88839983AA83BB83F7
S1131400C558D04080EF90EFA0EFB0E0C757DF4F52
S113141088839983AA83BB83C958D04010E010C045
S11314202AE030E0AE0143575F4F0E94EA15CE0137
S113143083579F4F0E94F3148BE30E94EF141F5FA6
S1131440E1E0F0E0EC0FFD1F24E0129FE00DF11D40
S113145011246081718182819381603FE0EF7E0776
S11314608E079105E9F68AE00E94EF14CC56DF4F0F
S11314700FB6F894DEBF0FBECDBFDF91CF911F91A1
S11314800895EF92FF920F931F93CF93DF93CDB7FD
S1131490DEB72C970FB6F894DEBF0FBECDBF7C012C
S11314A08B01CE0101960E9405028F3F09F4DFC033
S11314B089819A81282F2F70E4E096958795EA9583
S11314C0E1F799278130910521F0029709F0E8C0EE
S11314D03BC0213021F49D8180E0F7013AC02230E5
S11314E061F58D8190E0A0E0B0E0B82FAA2799279C
S11314F08827F70180879187A287B38780859185A4
S1131500A285B3852E81A22B80879187A287B3877A
S113151080859185A285B3852F81922B80879187C1
S1131520A287B38740855185628573858885482B5A
S1131530408751876287738760C0233009F0B0C049
S11315409D8180E0F7016CC0213051F59D8180E0E0
S1131550F80195878487848595852E81822B9587CC
S113156084879F8180E0938382838281938128850D
S1131570822B93838283998580E0958384838481FD
S113158095812A85822B958384839B8580E097832C
S11315908683868197812C85822B9783868380C05E
S11315A02230C1F58D8190E0A0E0B0E0B82FAA27E9
S11315B099278827F80180879187A287B387808538
S11315C09185A285B3852E81A22B80879187A287DE
S11315D0B38780859185A285B3852F81922B8087DF
S11315E09187A287B38780859185A285B385288555
S11315F0822B80879187A287B387898586879A857E
S113160080E091838083808191812B85822B9183DB
S1131610808346C0233009F043C09D8180E0F801F7
S1131620908B8787878590892E81822B908B8787E3
S11316309F8180E0928B818B818992892885822B7E
S1131640928B818B998580E0948B838B8389948999
S11316502A85822B948B838B9B8580E0968B858B4C
S1131660858996892C85822B968B858B19C08CE273
S11316700E947D0085FF10C08DE20E947D00809352
S1131680A900482F682F8DE20E94A50040E260E285
S11316908CE20E94A50002C01092810080E001C08B
S11316A081E02C960FB6F894DEBF0FBECDBFDF915C
S11316B0CF911F910F91FF90EF9008950F931F9377
S11316C0CF93DF93EC018DA59EA5AFA5B8A9488162
S11316D05981662757FD6095762F840F951FA61FA5
S11316E0B71F8DA79EA7AFA7B8ABFE01EB5AFF4F5C
S11316F0808191810196918380830DA51EA52FA5DC
S113170038A9808191814081518197FD0196BC0166
S113171075956795882777FD8095982F600F711FC1
S1131720821F931F9A01442737FD4095542F0E942E
S11317306815388F2F8B8A819B81813F984DE1F109
S11317408A819B81892BC1F189A99AA9ABA9BCA9DA
S11317504A815B81662757FD6095762F840F951F1C
S1131760A61FB71F89AB9AABABABBCABFE01E95A62
S1131770FF4F8081918101969183808309A91AA9E1
S11317802BA93CA9808191814081518197FD0196CB
S1131790BC0175956795882777FD8095982F600F14
S11317A0711F821F931F9A01442737FD4095542FC0
S11317B00E9468153A8F298F8C819D81813F984DB5
S11317C0E1F18C819D81892BC1F18DA99EA9AFA9DD
S11317D0B8AD4C815D81662757FD6095762F840FE7
S11317E0951FA61FB71F8DAB9EABAFABB8AFFE0165
S11317F0E75AFF4F808191810196918380830DA9DF
S11318001EA92FA938AD808191814081518197FD16
S11318100196BC0175956795882777FD8095982F6B
S1131820600F711F821F931F9A01442737FD409553
S1131830542F0E9468153C8F2B8F8E819F81813F8E
S1131840984DE1F18E819F81892BC1F189AD9AADCB
S1131850ABADBCAD4E815F81662757FD6095762F99
S1131860840F951FA61FB71F89AF9AAFABAFBCAF4C
S1131870FE01E55AFF4F8081918101969183808317
S113188009AD1AAD2BAD3CAD808191814081518170
S113189097FD0196BC0175956795882777FD80951E
S11318A0982F600F711F821F931F9A01442737FDE1
S11318B04095542F0E9468153E8F2D8F88859985F9
S11318C0AA85BB85813F984DAF4FBF4F09F445C0F2
S11318D088859985AA85BB85892B8A2B8B2BE9F171
S11318E09E01235C3F4FF90180819181A281B381E4
S11318F0488559856A857B85840F951FA61FB71F68
S113190080839183A283B383FE01E35AFF4F8081D6
S11319109181019691838083D9010D911D912D911F
S11319203C91808191814081518197FD0196BC0158
S113193075956795882777FD8095982F600F711F9F
S1131940821F931F9A01442737FD4095542F0E940C
S113195068152F8F38A349A35AA38C859D85813F91
S1131960984D09F441C08C859D85892BE9F19E0130
S11319702F5B3F4FF90180819181A281B3814C8516
S11319805D85662757FD6095762F840F951FA61FEA
S1131990B71F80839183A283B383FE01E15AFF4F73
S11319A080819181019691838083D9010D911D914C
S11319B02D913C91808191814081518197FD0196C7
S11319C0BC0175956795882777FD8095982F600FE2
S11319D0711F821F931F9A01442737FD4095542F8E
S11319E00E9468153CA32BA38F859889813F984D4D
S11319F009F441C08F859889892BE9F19E012B5BFD
S1131A003F4FF90180819181A281B3814F8558892B
S1131A10662757FD6095762F840F951FA61FB71F65
S1131A2080839183A283B383FE01EF59FF4F8081AA
S1131A309181019691838083D9010D911D912D91FE
S1131A403C91808191814081518197FD0196BC0137
S1131A5075956795882777FD8095982F600F711F7E
S1131A60821F931F9A01442737FD4095542F0E94EB
S1131A7068153EA32DA389899A89813F984D09F45D
S1131A8041C089899A89892BE9F19E01275B3F4FDF
S1131A90F90180819181A281B38149895A8966279C
S1131AA057FD6095762F840F951FA61FB71F80835F
S1131AB09183A283B383FE01ED59FF4F808191810D
S1131AC0019691838083D9010D911D912D913C91B3
S1131AD0808191814081518197FD0196BC0175956A
S1131AE06795882777FD8095982F600F711F821F57
S1131AF0931F9A01442737FD4095542F0E9468157F
S1131B0038A72FA38B899C89813F984D09F441C044
S1131B108B899C89892BE9F19E01235B3F4FF90155
S1131B2080819181A281B3814B895C89662757FDAD
S1131B306095762F840F951FA61FB71F808391830E
S1131B40A283B383FE01EB59FF4F808191810196FB
S1131B5091838083D9010D911D912D913C918081B8
S1131B6091814081518197FD0196BC0175956795DE
S1131B70882777FD8095982F600F711F821F931F10
S1131B809A01442737FD4095542F0E9468153AA7BF
S1131B9029A78D899E89813F984D09F441C08D897B
S1131BA09E89892BE9F19E012F5A3F4FF90140810B
S1131BB05181628173818D899E89AA2797FDA095A1
S1131BC0BA2F480F591F6A1F7B1FD90140835183C5
S1131BD062837383FE01E959FF4F808191810196ED
S1131BE0918380830D911D912D913C9180819181F0
S1131BF04081518197FD0196BC01759567958827B1
S1131C0077FD8095982F600F711F821F931F9A0193
S1131C10442737FD4095542F0E9468153CA72BA7F5
S1131C20FE01E759FF4F8081918101969183808362
S1131C3020813181DE01A559BF4F8D919C912817D8
S1131C40390708F47BC01DA61EA61FA618AA19AA48
S1131C501AAA1BAA1CAA1DAA1EAA1FAA18AE19AE4C
S1131C601AAE1BAE1CAEDE01DD961D921D921D92B6
S1131C701C921397DE01AF5BBF4F1D921D921D9204
S1131C801C921397DE01AB5BBF4F1D921D921D92F8
S1131C901C921397DE01A75BBF4F1D921D921D92EC
S1131CA01C921397DE01A35BBF4F1D921D921D92E0
S1131CB01C921397DE01AF5ABF4F1D921D921D92C5
S1131CC01C921397DE01AB5ABF4F11961C921E92C1
S1131CD0DE01A95ABF4F11961C921E92DE01A75A2B
S1131CE0BF4F11961C921E92DE01A55ABF4F11964A
S1131CF01C921E92DE01A35ABF4F11961C921E9293
S1131D00DE01A15ABF4F11961C921E92DE01AF59FB
S1131D10BF4F11961C921E92DE01AD59BF4F119612
S1131D201C921E92DE01AB59BF4F11961C921E925B
S1131D30C959DF4F198218821182108280E0DF9125
S1131D40CF911F910F910895CF93DF93CDB7DEB755
S1131D50C056D1400FB6F894DEBF0FBECDBF0E946F
S1131D6057113E0125ED621A2EEF720A8AEFC82E32
S1131D70D12CE12C08EB1BE02FEF41E062E0C30122
S1131D800E94DA122E018BEF481A8EEF580A00E8EF
S1131D901CE02FEF41E062E0C2010E94DA121E0152
S1131DA0EFED2E0E311C9CEDC92E95E0D92E22E3C9
S1131DB0E22E00E717E12FEF41E062E0C1010E944B
S1131DC0DA124E01F3EA8F1AFEEF9F0A80E490E0E4
S1131DD0A0E0B0E0F40180839183A283B3835E0129
S1131DE0F0E7AF0EB11CC5010E94FF11CE010196B0
S1131DF00E94FF1180918100882331F0BE016F5F42
S1131E007F4FC5010E94410A8091B300882391F35A
S1131E10F50184819581813F984D49F0F5016481F4
S1131E207581C3010E94CE1390E09BBD8ABD8D8154
S1131E309E81813F984D41F06D817E81C2010E9457
S1131E40CE1390E099BD88BDF50186819781813FCD
S1131E50984D39F0F50166817781C1010E94CE1356
S1131E6083BD8FEF8093DA000E94710280918F000E
S1131E70823049F481019201A301BE016F5F7F4F5B
S1131E80C5010E94FC06C552DF4F88819981CB5D54
S1131E90D040C752DF4F48815981C95DD040AE96CA
S1131EA02EAD3FADAE97841B950B2817390720F054
S1131EB0CE0101960E945E0BC5010E945E0BAC969A
S1131EC08EAD9FADAC97892B09F04DC0C752DF4F43
S1131ED088819981C95DD040892B09F044C08091E3
S1131EE0AA008130B1F4A401BE016F5F7F4FC50128
S1131EF00E948602F401C080D180E280F380F0E881
S1131F00CF16F9EFDF06E104F10418F082E08093C4
S1131F10AA00C352DF4F88819981CD5DD040C5525C
S1131F20DF4F99838883CB5DD040E0968EAD9FAD23
S1131F30E097AE969FAF8EAFAE97C552DF4F8881C4
S1131F409981CB5DD040C352DF4F99838883CD5DA7
S1131F50D040AE968EAD9FADAE97E0969FAF8EAF5C
S1131F60E09710927000BE016F5F7F4FC5010E9421
S1131F70660880E190E0CF5ADE4F99838883C1558B
S1131F80D140CD5ADE4F1882C355D14082E0CC5A9D
S1131F90DE4F8883C455D14081E0CB5ADE4F88831D
S1131FA0C555D14010E001C01F5FCE018F5A9E4F2E
S1131FB00E9477011A3F10F48823B1F380E290E085
S1131FC0CF5ADE4F99838883C155D14010E001C0B8
S1131FD01F5FCE018F5A9E4F0E9477011A3F10F463
S1131FE08823B1F3C5010E94C112CE0101960E945B
S1131FF0C1121092B300FECE0998089A81E080B90C
S113200081B190E008959093BA008093B9009093C1
S1132010CE008093CD002093D3001092D10089E0AC
S11320208093D2004093D0006093CF0085EA86BFAE
S11320301092B7001092B60023E008C08091B60059
S11320409091B700449714F02093D2008091D2006D
S11320508930A1F38091D2008BEB90E008951F9218
S11320600F920FB60F9211242F933F938F939F9348
S1132070EF93FF9381B1887F883209F496C090F47E
S1132080803109F44FC038F4882309F400C1883042
S113209009F0FDC01CC0883109F471C0803209F018
S11320A0F6C0CBC0803409F4C3C038F4803309F4DB
S11320B0C4C0883309F0EBC0B9C0803509F4C1C08D
S11320C0883509F4D8C0883409F0E1C0B6C09091CD
S11320D0D1008091CF00981304C08091D000811169
S11320E02BC01092D1008091CD009091CE0090939E
S11320F0BA008093B900E091B900F091BA008081F0
S113210083B985E886BF8091B9009091BA000196A1
S11321109093BA008093B9008091D1008F5F80932F
S1132120D100BAC09091D1008091CF00981316C00D
S11321308091D000882391F08091CD009091CE00C1
S11321409093BA008093B900E091B900F091BA007D
S11321508081816080831092D1000AC01092D100E6
S11321608091CD009091CE009093BA008093B900F5
S1132170E091B900F091BA00808183B977C0909161
S1132180D1008091CF00981305C08091D0008111B7
S113219001C078C09091D1008091CF00981331C0D4
S11321A08091D000882369F11AC09091D100809168
S11321B0CF00981306C08091D000811102C084E939
S11321C062C09091D1008091CF0098130AC0809191
S11321D0D000882331F08091D300811102C085EBB7
S11321E048C09091D1008091CF0098130AC080918B
S11321F0D000882331F08091D300882311F085EA40
S113220038C0E091B900F091BA00808183B980911F
S1132210B9009091BA0001969093BA008093B900E6
S11322208091D1008F5F8093D10020C080E821C0CD
S11322308091D0008130E1F419C080E986BF82E04A
S113224029C08091D100E82FF0E093B1E754FF4F0B
S113225092838F5F8093D1002091D1008091D00030
S113226030E090E001972817390711F485E801C0A0
S113227085EC86BF11C0E091D100F0E083B1E75452
S1132280FF4F828380E986BF1092D20005C080E9A7
S113229086BF81E08093D200FF91EF919F918F914F
S11322A03F912F910F900FBE0F901F90189583B7F9
S11322B0886083BF83B7836083BF89B7826089BF27
S11322C08DE78CBF8FB5816A8FBD8EB585608EBD5D
S11322D01BBC1ABC19BC18BC85B5826685BD13BC71
S11322E0BA988BB780628BBF84B78F7B84BF8A9880
S11322F082B38C6082BB85B78F6085BF8BB7806CDF
S11323008BBF81B3806F81BB84B3846F84BB82B382
S11323108F7082BB85B38F7085BB979AAA9A3E9AB9
S11323203F9886B1876086B910928200789483E3DF
S113233090E00E94E3140E94FC0F0E94CF1481E0FD
S113234090E00E94C21360E070E080E090E00E94A0
S1132350C40010927400109273001092B000109296
S1132360AF001092B2001092B1001092AC00109223
S1132370AB001092A6001092A50010927600109265
S113238075001092DC001092DB001092B5001092E0
S1132390B4001092AE001092AD001092DF001092C3
S11323A0DE0010927200109271001092DA00109206
S11323B0D70010928100109270001092A800109221
S11323C0B80081E08093B3001092AA001092A90093
S11323D01092780081E090E0A0E0B0E08093790072
S11323E090937A00A0937B00B0937C0010927D00C0
S11323F010927E0010927F00109280000895FC01DC
S113240081EF98ED9587848793838283978386836E
S11324109583848316861182108241EF58ED6FEF05
S11324207FEF4087518762877387908B8787928B72
S1132430818B948B838B968B858B908F878B928FDC
S1132440818F948F838F968F858F478F50A361A33D
S113245072A394A383A396A385A390A787A392A70B
S113246081A794A783A715A616A617A610AA11AA32
S113247012AA13AA14AA15AA16AA17AA10AE11AE64
S113248012AE13AE14AEDF01DD961D921D921D92A5
S11324901C921397DF01AF5BBF4F1D921D921D92DB
S11324A01C921397DF01AB5BBF4F1D921D921D92CF
S11324B01C921397DF01A75BBF4F1D921D921D92C3
S11324C01C921397DF01A35BBF4F1D921D921D92B7
S11324D01C921397DF01AF5ABF4F1D921D921D929C
S11324E01C921397DF01AB5ABF4F11961C921E9298
S11324F0DF01A95ABF4F11961C921E92DF01A75A01
S1132500BF4F11961C921E92DF01A55ABF4F119620
S11325101C921E92DF01A35ABF4F11961C921E9269
S1132520DF01A15ABF4F11961C921E92DF01AF59D1
S1132530BF4F11961C921E92DF01AD59BF4F1196E9
S11325401C921E92DF01AB59BF4F11961C921E9232
S1132550DF01A959BF4F11961C921E92DF01A759A2
S1132560BF4F11961C921E92DF01A559BF4F8AE0FE
S113257090E011969C938E93E359FF4F918380834F
S11325800895FC011586148613821282178216821E
S11325901582148216861182108210861186128684
S11325A01386108A1786128A118A148A138A168A45
S11325B0158A0895CF92DF92EF920F931F93FC0137
S11325C0342F422F108211821282138214821582B8
S11325D0168217821086118612861386118A128A31
S11325E0138A148A91E09487168B058B862F90E0CA
S11325F0A0E0B0E0878B908FA18FB28F032F10E003
S113260020E030E0038F148F258F368F50E060E098
S113261070E0478F50A361A372A3158616861786B0
S1132620108AE3A2D5A2C4A21F910F91EF90DF906C
S1132630CF9008951F920F920FB60F9211242F93EB
S11326408F939F93AF93BF938091D4009091D500C3
S113265001969093D5008093D4008091D4009091FA
S1132660D500853E9340D4F01092D5001092D4004A
S113267081E08093B3008091790090917A00A091D9
S11326807B00B0917C000196A11DB11D809379005F
S113269090937A00A0937B00B0937C008091820099
S11326A0882329F080918200815080938200809158
S11326B0B6009091B70001969093B7008093B6004E
S11326C08091D8009091D90001969093D90080937D
S11326D0D8008091830090918400019690938400A7
S11326E080938300BF91AF919F918F912F910F9011
S11326F00FBE0F901F9018951F920F920FB60F9256
S113270011248F939F9380918200811109C088ECDA
S1132710809382008091AA0091E089278093AA0087
S11327208AB780648ABF9F918F910F900FBE0F90DC
S11327301F9018951F920F920FB60F9211248F932A
S113274080918200811106C088EC8093820082B35C
S1132750805882BB8AB780688ABF8F910F900FBE62
S11327600F901F9018951F920F920FB60F9211247D
S11327708F9381E0809381008F910F900FBE0F9013
S11327801F9018951092840010928300209183006A
S11327903091840028173907C8F30895AF92BF9287
S11327A0CF92DF92EF92FF920F931F93CF93DF9319
S11327B0EC01CD88DE88C61AD70A8CA19DA18C15A0
S11327C09D0508F4C5C0919581959109C816D9064F
S11327D008F4D0C08C819D81AE81BF8188879987A0
S11327E0AA87BB8788819981AA81BB818C839D83B9
S11327F0AE83BF83EE24D7FCE094FE2CC882D9823A
S1132800EA82FB821C141D041E041F041CF4B7FF7F
S113281010C00AC0C114D104E104F10429F018164F
S113282019061A061B062CF41D861E861F86188A96
S113283017C08D859E85AF85B889AC01BD0149510E
S11328405C4F6F4F7F4F4F3C57406105710540F41B
S11328508C0D9D1DAE1DBF1D8D879E87AF87B88BC8
S11328606F89788D898D9A8DA70196010E945815DC
S113287020E031E040E050E00E94681589012E3FDD
S11328808FEF380714F40EEF1FEF6D857E858F856B
S1132890988920E031E040E050E00E9468158B8D7B
S11328A09C8D829F5001839FB00C929FB00C112489
S11328B0B7FE03C0AA24AA94BA2C8C85FE0194E026
S11328C0899FE00DF11D112480819181A281B38142
S11328D0A7019601281B390B4A0B5B0B6F8D78A15E
S11328E089A19AA10E94581520E031E040E050E00F
S11328F00E946815C9018C3F2FEF920714F48CEFE6
S11329009FEFA8010330110514F042E050E0950157
S11329101A141B0414F421E030E0420F531F8530D5
S1132920910514F084E090E0480F591F662757FD85
S11329306095762F89899A89AB89BC89480F591F7C
S11329406A1F7B1F4F3F51056105710551F04CF023
S11329508FEF90E0A0E0B0E0898B9A8BAB8BBC8BBF
S113296012C08BA190E0A0E0B0E0481759076A07B5
S11329707B072CF4198A1A8A1B8A1C8A04C0498B87
S11329805A8B6B8B7C8B8989DF91CF911F910F912F
S1132990FF90EF90DF90CF90BF90AF900895BC9AD6
S11329A0C49A87B3806A87BB88B38F7188BB80E57C
S11329B08DB981E08EB908957799FECF8FB9779B51
S11329C0FECF8FB1089520B52F7720BD90BD89B972
S11329D08AB188698AB980B58E6880BD08955D9B87
S11329E0FECF8CB90895CF93DF93EC0102C00E940F
S11329F0EF1489918111FBCFDF91CF9108951F923C
S1132A000F920FB60F9211248F939F93EF93FF931E
S1132A108CB1882331F0833219F581E080938F00E3
S1132A203CC080918F00813091F480919000882384
S1132A3071F0E0919000F0E0E157FF4F128282E0E4
S1132A4080938F00809190008F5F8093900080919D
S1132A508F00813021F580919000811120C01BC02E
S1132A6090918F00913079F490919000943158F4C2
S1132A70E0919000F0E0E157FF4F82838091900055
S1132A808F5F8093900080918F00813041F480911A
S1132A9090008A3020F010928F0010929000FF91E5
S1132AA0EF919F918F910F900FBE0F901F901895EB
S1132AB0DB018F939F930E948A15BF91AF91A29FD0
S1132AC0800D911DA39F900DB29F900D1124089528
S1132AD0052E97FB16F4009407D057FD0DD00E94E5
S1132AE0951507FC09D07EF49095809570956195B5
S1132AF07F4F8F4F9F4F0895509540953095219566
S1132B003F4F4F4F5F4F0895EE0FFF1F0590F49115
S1132B10E02D09940E94B715A59F900DB49F900DC8
S1132B20A49F800D911D11240895A1E21A2EAA1BC1
S1132B30BB1BFD010DC0AA1FBB1FEE1FFF1FA21769
S1132B40B307E407F50720F0A21BB30BE40BF50B66
S1132B50661F771F881F991F1A9469F760957095EF
S1132B60809590959B01AC01BD01CF010895A29F72
S1132B70B001B39FC001A39F01D0B29F700D811D0E
S1132B801124911D08951F93FC0199278827BC01E6
S1132B90E89411911032E9F3193010F01E30C8F3A3
S1132BA01B3251F01D3249F4689406C00E941E166F
S1132BB0610F711D811D911D119110531A30B0F3D5
S1132BC03EF490958095709561957F4F8F4F9F4F00
S1132BD01F910895FA01CF93FF93EF93223044F1AC
S1132BE0253234F5C22FE894CA3049F497FB3EF4F9
S1132BF090958095709561957F4F8F4F9F4F2C2FA7
S1132C00332744275527FF93EF930E949515EF919F
S1132C10FF91605D6A330CF0695D6193B901CA018B
S1132C20605070408040904051F716F4CDE2C1935B
S1132C3010828F919F91CF910C943316592F482F66
S1132C40372F262F660F771F881F991F660F771F50
S1132C50881F991F620F731F841F951F660F771FAC
S1132C60881F991F0895DC01FC01672F7191772358
S1132C70E1F7329704C07C916D9370836291AE1733
S10D2C80BF07C8F30895F894FFCFCE
S1132C8A62756C6C7368697420737472696E670018
S9030000FC
